{
  "contractName": "Doc2eth",
  "abi": [
    {
      "inputs": [],
      "payable": false,
      "stateMutability": "nonpayable",
      "type": "constructor"
    },
    {
      "anonymous": false,
      "inputs": [
        {
          "indexed": false,
          "internalType": "string",
          "name": "fileId",
          "type": "string"
        },
        {
          "indexed": false,
          "internalType": "string",
          "name": "fileHash",
          "type": "string"
        },
        {
          "indexed": false,
          "internalType": "uint256",
          "name": "fileSize",
          "type": "uint256"
        },
        {
          "indexed": false,
          "internalType": "string",
          "name": "fileType",
          "type": "string"
        },
        {
          "indexed": false,
          "internalType": "string",
          "name": "fileName",
          "type": "string"
        },
        {
          "indexed": false,
          "internalType": "uint256",
          "name": "uploadTime",
          "type": "uint256"
        }
      ],
      "name": "FileShareUploaded",
      "type": "event"
    },
    {
      "anonymous": false,
      "inputs": [
        {
          "indexed": false,
          "internalType": "string",
          "name": "fileId",
          "type": "string"
        },
        {
          "indexed": false,
          "internalType": "string",
          "name": "fileHash",
          "type": "string"
        },
        {
          "indexed": false,
          "internalType": "uint256",
          "name": "fileSize",
          "type": "uint256"
        },
        {
          "indexed": false,
          "internalType": "string",
          "name": "fileType",
          "type": "string"
        },
        {
          "indexed": false,
          "internalType": "string",
          "name": "fileName",
          "type": "string"
        },
        {
          "indexed": false,
          "internalType": "uint256",
          "name": "uploadTime",
          "type": "uint256"
        }
      ],
      "name": "FileUploaded",
      "type": "event"
    },
    {
      "anonymous": false,
      "inputs": [
        {
          "indexed": false,
          "internalType": "string",
          "name": "service",
          "type": "string"
        },
        {
          "indexed": false,
          "internalType": "string",
          "name": "firstname",
          "type": "string"
        },
        {
          "indexed": false,
          "internalType": "string",
          "name": "lastname",
          "type": "string"
        },
        {
          "indexed": false,
          "internalType": "address",
          "name": "userwallet",
          "type": "address"
        }
      ],
      "name": "UserAdded",
      "type": "event"
    },
    {
      "constant": true,
      "inputs": [
        {
          "internalType": "uint256",
          "name": "",
          "type": "uint256"
        }
      ],
      "name": "allUsers",
      "outputs": [
        {
          "internalType": "string",
          "name": "service",
          "type": "string"
        },
        {
          "internalType": "string",
          "name": "firstname",
          "type": "string"
        },
        {
          "internalType": "string",
          "name": "lastname",
          "type": "string"
        },
        {
          "internalType": "address",
          "name": "userwallet",
          "type": "address"
        }
      ],
      "payable": false,
      "stateMutability": "view",
      "type": "function"
    },
    {
      "constant": true,
      "inputs": [],
      "name": "name",
      "outputs": [
        {
          "internalType": "string",
          "name": "",
          "type": "string"
        }
      ],
      "payable": false,
      "stateMutability": "view",
      "type": "function"
    },
    {
      "constant": true,
      "inputs": [
        {
          "internalType": "address",
          "name": "",
          "type": "address"
        },
        {
          "internalType": "uint256",
          "name": "",
          "type": "uint256"
        }
      ],
      "name": "shares",
      "outputs": [
        {
          "internalType": "string",
          "name": "fileId",
          "type": "string"
        },
        {
          "internalType": "string",
          "name": "fileHash",
          "type": "string"
        },
        {
          "internalType": "uint256",
          "name": "fileSize",
          "type": "uint256"
        },
        {
          "internalType": "string",
          "name": "fileType",
          "type": "string"
        },
        {
          "internalType": "string",
          "name": "fileName",
          "type": "string"
        },
        {
          "internalType": "uint256",
          "name": "uploadTime",
          "type": "uint256"
        }
      ],
      "payable": false,
      "stateMutability": "view",
      "type": "function"
    },
    {
      "constant": true,
      "inputs": [
        {
          "internalType": "address",
          "name": "",
          "type": "address"
        },
        {
          "internalType": "uint256",
          "name": "",
          "type": "uint256"
        }
      ],
      "name": "users",
      "outputs": [
        {
          "internalType": "string",
          "name": "fileId",
          "type": "string"
        },
        {
          "internalType": "string",
          "name": "fileHash",
          "type": "string"
        },
        {
          "internalType": "uint256",
          "name": "fileSize",
          "type": "uint256"
        },
        {
          "internalType": "string",
          "name": "fileType",
          "type": "string"
        },
        {
          "internalType": "string",
          "name": "fileName",
          "type": "string"
        },
        {
          "internalType": "uint256",
          "name": "uploadTime",
          "type": "uint256"
        }
      ],
      "payable": false,
      "stateMutability": "view",
      "type": "function"
    },
    {
      "constant": false,
      "inputs": [
        {
          "internalType": "string",
          "name": "_service",
          "type": "string"
        },
        {
          "internalType": "string",
          "name": "_firstname",
          "type": "string"
        },
        {
          "internalType": "string",
          "name": "_lastname",
          "type": "string"
        },
        {
          "internalType": "address",
          "name": "_userwallet",
          "type": "address"
        }
      ],
      "name": "addUser",
      "outputs": [
        {
          "internalType": "string",
          "name": "userservice",
          "type": "string"
        },
        {
          "internalType": "string",
          "name": "ufirstname",
          "type": "string"
        },
        {
          "internalType": "string",
          "name": "ulastname",
          "type": "string"
        },
        {
          "internalType": "address",
          "name": "uaddress",
          "type": "address"
        }
      ],
      "payable": true,
      "stateMutability": "payable",
      "type": "function"
    },
    {
      "constant": true,
      "inputs": [],
      "name": "getCountusers",
      "outputs": [
        {
          "internalType": "uint256",
          "name": "",
          "type": "uint256"
        }
      ],
      "payable": false,
      "stateMutability": "view",
      "type": "function"
    },
    {
      "constant": true,
      "inputs": [
        {
          "internalType": "uint256",
          "name": "_index",
          "type": "uint256"
        }
      ],
      "name": "getAllUserInfo",
      "outputs": [
        {
          "internalType": "string",
          "name": "userservice",
          "type": "string"
        },
        {
          "internalType": "string",
          "name": "ufirstname",
          "type": "string"
        },
        {
          "internalType": "string",
          "name": "ulastname",
          "type": "string"
        },
        {
          "internalType": "address",
          "name": "uaddress",
          "type": "address"
        }
      ],
      "payable": false,
      "stateMutability": "view",
      "type": "function"
    },
    {
      "constant": false,
      "inputs": [
        {
          "internalType": "address",
          "name": "_address",
          "type": "address"
        },
        {
          "internalType": "string",
          "name": "_fileId",
          "type": "string"
        },
        {
          "internalType": "string",
          "name": "_fileHash",
          "type": "string"
        },
        {
          "internalType": "uint256",
          "name": "_fileSize",
          "type": "uint256"
        },
        {
          "internalType": "string",
          "name": "_fileType",
          "type": "string"
        },
        {
          "internalType": "string",
          "name": "_fileName",
          "type": "string"
        }
      ],
      "name": "uploadFile",
      "outputs": [
        {
          "internalType": "string",
          "name": "",
          "type": "string"
        },
        {
          "internalType": "string",
          "name": "",
          "type": "string"
        },
        {
          "internalType": "uint256",
          "name": "",
          "type": "uint256"
        },
        {
          "internalType": "string",
          "name": "",
          "type": "string"
        },
        {
          "internalType": "string",
          "name": "",
          "type": "string"
        },
        {
          "internalType": "uint256",
          "name": "",
          "type": "uint256"
        }
      ],
      "payable": false,
      "stateMutability": "nonpayable",
      "type": "function"
    },
    {
      "constant": true,
      "inputs": [
        {
          "internalType": "address",
          "name": "_address",
          "type": "address"
        }
      ],
      "name": "getCount",
      "outputs": [
        {
          "internalType": "uint256",
          "name": "",
          "type": "uint256"
        }
      ],
      "payable": false,
      "stateMutability": "view",
      "type": "function"
    },
    {
      "constant": true,
      "inputs": [
        {
          "internalType": "uint256",
          "name": "_index",
          "type": "uint256"
        },
        {
          "internalType": "address",
          "name": "_address",
          "type": "address"
        }
      ],
      "name": "getFilesofUser",
      "outputs": [
        {
          "internalType": "string",
          "name": "",
          "type": "string"
        },
        {
          "internalType": "string",
          "name": "",
          "type": "string"
        },
        {
          "internalType": "uint256",
          "name": "",
          "type": "uint256"
        },
        {
          "internalType": "string",
          "name": "",
          "type": "string"
        },
        {
          "internalType": "string",
          "name": "",
          "type": "string"
        },
        {
          "internalType": "uint256",
          "name": "",
          "type": "uint256"
        }
      ],
      "payable": false,
      "stateMutability": "view",
      "type": "function"
    },
    {
      "constant": false,
      "inputs": [
        {
          "internalType": "string",
          "name": "_fileId",
          "type": "string"
        },
        {
          "internalType": "address",
          "name": "_address",
          "type": "address"
        }
      ],
      "name": "removeHash",
      "outputs": [],
      "payable": false,
      "stateMutability": "nonpayable",
      "type": "function"
    },
    {
      "constant": false,
      "inputs": [
        {
          "internalType": "address",
          "name": "_to",
          "type": "address"
        },
        {
          "internalType": "string",
          "name": "_fileId",
          "type": "string"
        },
        {
          "internalType": "string",
          "name": "_fileHash",
          "type": "string"
        },
        {
          "internalType": "uint256",
          "name": "_fileSize",
          "type": "uint256"
        },
        {
          "internalType": "string",
          "name": "_fileType",
          "type": "string"
        },
        {
          "internalType": "string",
          "name": "_fileName",
          "type": "string"
        }
      ],
      "name": "uploadShareFile",
      "outputs": [
        {
          "internalType": "string",
          "name": "",
          "type": "string"
        },
        {
          "internalType": "string",
          "name": "",
          "type": "string"
        },
        {
          "internalType": "uint256",
          "name": "",
          "type": "uint256"
        },
        {
          "internalType": "string",
          "name": "",
          "type": "string"
        },
        {
          "internalType": "string",
          "name": "",
          "type": "string"
        },
        {
          "internalType": "uint256",
          "name": "",
          "type": "uint256"
        }
      ],
      "payable": false,
      "stateMutability": "nonpayable",
      "type": "function"
    },
    {
      "constant": true,
      "inputs": [
        {
          "internalType": "address",
          "name": "_address",
          "type": "address"
        }
      ],
      "name": "getShareCount",
      "outputs": [
        {
          "internalType": "uint256",
          "name": "",
          "type": "uint256"
        }
      ],
      "payable": false,
      "stateMutability": "view",
      "type": "function"
    },
    {
      "constant": true,
      "inputs": [
        {
          "internalType": "uint256",
          "name": "_index",
          "type": "uint256"
        },
        {
          "internalType": "address",
          "name": "_address",
          "type": "address"
        }
      ],
      "name": "getShareFilesofUser",
      "outputs": [
        {
          "internalType": "string",
          "name": "",
          "type": "string"
        },
        {
          "internalType": "string",
          "name": "",
          "type": "string"
        },
        {
          "internalType": "uint256",
          "name": "",
          "type": "uint256"
        },
        {
          "internalType": "string",
          "name": "",
          "type": "string"
        },
        {
          "internalType": "string",
          "name": "",
          "type": "string"
        },
        {
          "internalType": "uint256",
          "name": "",
          "type": "uint256"
        }
      ],
      "payable": false,
      "stateMutability": "view",
      "type": "function"
    },
    {
      "constant": false,
      "inputs": [
        {
          "internalType": "string",
          "name": "_fileId",
          "type": "string"
        },
        {
          "internalType": "address",
          "name": "_address",
          "type": "address"
        }
      ],
      "name": "removeShareHash",
      "outputs": [],
      "payable": false,
      "stateMutability": "nonpayable",
      "type": "function"
    }
  ],
  "bytecode": "0x60806040526040518060400160405280600781526020017f446f633265746800000000000000000000000000000000000000000000000000815250600090805190602001906200005192919062000066565b503480156200005f57600080fd5b5062000115565b828054600181600116156101000203166002900490600052602060002090601f016020900481019282601f10620000a957805160ff1916838001178555620000da565b82800160010185558215620000da579182015b82811115620000d9578251825591602001919060010190620000bc565b5b509050620000e99190620000ed565b5090565b6200011291905b808211156200010e576000816000905550600101620000f4565b5090565b90565b614c8880620001256000396000f3fe6080604052600436106100e85760003560e01c80637178e5fb1161008a578063a6f3437011610059578063a6f343701461108e578063aefbbfca146112b4578063b48ff0f114611736578063e82240f814611ac3576100e8565b80637178e5fb14610c80578063729d846014610e3f5780638fd2b02014610ea4578063a2bdedf414610ecf576100e8565b806326c6a263116100c657806326c6a2631461048b5780632b09808b146105735780634f0cd27b146109f557806354a02f9e14610a5a576100e8565b806306fdde03146100ed5780630b6eab0f1461017d578063259ddefc14610265575b600080fd5b3480156100f957600080fd5b50610102611ce9565b6040518080602001828103825283818151815260200191508051906020019080838360005b83811015610142578082015181840152602081019050610127565b50505050905090810190601f16801561016f5780820380516001836020036101000a031916815260200191505b509250505060405180910390f35b34801561018957600080fd5b50610263600480360360408110156101a057600080fd5b81019080803590602001906401000000008111156101bd57600080fd5b8201836020820111156101cf57600080fd5b803590602001918460018302840111640100000000831117156101f157600080fd5b91908080601f016020809104026020016040519081016040528093929190818152602001838380828437600081840152601f19601f820116905080830192505050505050509192919290803573ffffffffffffffffffffffffffffffffffffffff169060200190929190505050611d87565b005b34801561027157600080fd5b506102be6004803603604081101561028857600080fd5b81019080803573ffffffffffffffffffffffffffffffffffffffff16906020019092919080359060200190929190505050611fa9565b604051808060200180602001878152602001806020018060200186815260200185810385528b818151815260200191508051906020019080838360005b838110156103165780820151818401526020810190506102fb565b50505050905090810190601f1680156103435780820380516001836020036101000a031916815260200191505b5085810384528a818151815260200191508051906020019080838360005b8381101561037c578082015181840152602081019050610361565b50505050905090810190601f1680156103a95780820380516001836020036101000a031916815260200191505b50858103835288818151815260200191508051906020019080838360005b838110156103e25780820151818401526020810190506103c7565b50505050905090810190601f16801561040f5780820380516001836020036101000a031916815260200191505b50858103825287818151815260200191508051906020019080838360005b8381101561044857808201518184015260208101905061042d565b50505050905090810190601f1680156104755780820380516001836020036101000a031916815260200191505b509a505050505050505050505060405180910390f35b34801561049757600080fd5b50610571600480360360408110156104ae57600080fd5b81019080803590602001906401000000008111156104cb57600080fd5b8201836020820111156104dd57600080fd5b803590602001918460018302840111640100000000831117156104ff57600080fd5b91908080601f016020809104026020016040519081016040528093929190818152602001838380828437600081840152601f19601f820116905080830192505050505050509192919290803573ffffffffffffffffffffffffffffffffffffffff16906020019092919050505061225f565b005b34801561057f57600080fd5b50610828600480360360c081101561059657600080fd5b81019080803573ffffffffffffffffffffffffffffffffffffffff169060200190929190803590602001906401000000008111156105d357600080fd5b8201836020820111156105e557600080fd5b8035906020019184600183028401116401000000008311171561060757600080fd5b91908080601f016020809104026020016040519081016040528093929190818152602001838380828437600081840152601f19601f8201169050808301925050505050505091929192908035906020019064010000000081111561066a57600080fd5b82018360208201111561067c57600080fd5b8035906020019184600183028401116401000000008311171561069e57600080fd5b91908080601f016020809104026020016040519081016040528093929190818152602001838380828437600081840152601f19601f820116905080830192505050505050509192919290803590602001909291908035906020019064010000000081111561070b57600080fd5b82018360208201111561071d57600080fd5b8035906020019184600183028401116401000000008311171561073f57600080fd5b91908080601f016020809104026020016040519081016040528093929190818152602001838380828437600081840152601f19601f820116905080830192505050505050509192919290803590602001906401000000008111156107a257600080fd5b8201836020820111156107b457600080fd5b803590602001918460018302840111640100000000831117156107d657600080fd5b91908080601f016020809104026020016040519081016040528093929190818152602001838380828437600081840152601f19601f820116905080830192505050505050509192919290505050612481565b604051808060200180602001878152602001806020018060200186815260200185810385528b818151815260200191508051906020019080838360005b83811015610880578082015181840152602081019050610865565b50505050905090810190601f1680156108ad5780820380516001836020036101000a031916815260200191505b5085810384528a818151815260200191508051906020019080838360005b838110156108e65780820151818401526020810190506108cb565b50505050905090810190601f1680156109135780820380516001836020036101000a031916815260200191505b50858103835288818151815260200191508051906020019080838360005b8381101561094c578082015181840152602081019050610931565b50505050905090810190601f1680156109795780820380516001836020036101000a031916815260200191505b50858103825287818151815260200191508051906020019080838360005b838110156109b2578082015181840152602081019050610997565b50505050905090810190601f1680156109df5780820380516001836020036101000a031916815260200191505b509a505050505050505050505060405180910390f35b348015610a0157600080fd5b50610a4460048036036020811015610a1857600080fd5b81019080803573ffffffffffffffffffffffffffffffffffffffff169060200190929190505050612e2e565b6040518082815260200191505060405180910390f35b348015610a6657600080fd5b50610ab360048036036040811015610a7d57600080fd5b81019080803573ffffffffffffffffffffffffffffffffffffffff16906020019092919080359060200190929190505050612e7a565b604051808060200180602001878152602001806020018060200186815260200185810385528b818151815260200191508051906020019080838360005b83811015610b0b578082015181840152602081019050610af0565b50505050905090810190601f168015610b385780820380516001836020036101000a031916815260200191505b5085810384528a818151815260200191508051906020019080838360005b83811015610b71578082015181840152602081019050610b56565b50505050905090810190601f168015610b9e5780820380516001836020036101000a031916815260200191505b50858103835288818151815260200191508051906020019080838360005b83811015610bd7578082015181840152602081019050610bbc565b50505050905090810190601f168015610c045780820380516001836020036101000a031916815260200191505b50858103825287818151815260200191508051906020019080838360005b83811015610c3d578082015181840152602081019050610c22565b50505050905090810190601f168015610c6a5780820380516001836020036101000a031916815260200191505b509a505050505050505050505060405180910390f35b348015610c8c57600080fd5b50610cb960048036036020811015610ca357600080fd5b8101908080359060200190929190505050613130565b604051808060200180602001806020018573ffffffffffffffffffffffffffffffffffffffff1673ffffffffffffffffffffffffffffffffffffffff168152602001848103845288818151815260200191508051906020019080838360005b83811015610d33578082015181840152602081019050610d18565b50505050905090810190601f168015610d605780820380516001836020036101000a031916815260200191505b50848103835287818151815260200191508051906020019080838360005b83811015610d99578082015181840152602081019050610d7e565b50505050905090810190601f168015610dc65780820380516001836020036101000a031916815260200191505b50848103825286818151815260200191508051906020019080838360005b83811015610dff578082015181840152602081019050610de4565b50505050905090810190601f168015610e2c5780820380516001836020036101000a031916815260200191505b5097505050505050505060405180910390f35b348015610e4b57600080fd5b50610e8e60048036036020811015610e6257600080fd5b81019080803573ffffffffffffffffffffffffffffffffffffffff1690602001909291905050506133d4565b6040518082815260200191505060405180910390f35b348015610eb057600080fd5b50610eb9613420565b6040518082815260200191505060405180910390f35b348015610edb57600080fd5b50610f0860048036036020811015610ef257600080fd5b810190808035906020019092919050505061342d565b604051808060200180602001806020018573ffffffffffffffffffffffffffffffffffffffff1673ffffffffffffffffffffffffffffffffffffffff168152602001848103845288818151815260200191508051906020019080838360005b83811015610f82578082015181840152602081019050610f67565b50505050905090810190601f168015610faf5780820380516001836020036101000a031916815260200191505b50848103835287818151815260200191508051906020019080838360005b83811015610fe8578082015181840152602081019050610fcd565b50505050905090810190601f1680156110155780820380516001836020036101000a031916815260200191505b50848103825286818151815260200191508051906020019080838360005b8381101561104e578082015181840152602081019050611033565b50505050905090810190601f16801561107b5780820380516001836020036101000a031916815260200191505b5097505050505050505060405180910390f35b34801561109a57600080fd5b506110e7600480360360408110156110b157600080fd5b8101908080359060200190929190803573ffffffffffffffffffffffffffffffffffffffff169060200190929190505050613652565b604051808060200180602001878152602001806020018060200186815260200185810385528b818151815260200191508051906020019080838360005b8381101561113f578082015181840152602081019050611124565b50505050905090810190601f16801561116c5780820380516001836020036101000a031916815260200191505b5085810384528a818151815260200191508051906020019080838360005b838110156111a557808201518184015260208101905061118a565b50505050905090810190601f1680156111d25780820380516001836020036101000a031916815260200191505b50858103835288818151815260200191508051906020019080838360005b8381101561120b5780820151818401526020810190506111f0565b50505050905090810190601f1680156112385780820380516001836020036101000a031916815260200191505b50858103825287818151815260200191508051906020019080838360005b83811015611271578082015181840152602081019050611256565b50505050905090810190601f16801561129e5780820380516001836020036101000a031916815260200191505b509a505050505050505050505060405180910390f35b3480156112c057600080fd5b50611569600480360360c08110156112d757600080fd5b81019080803573ffffffffffffffffffffffffffffffffffffffff1690602001909291908035906020019064010000000081111561131457600080fd5b82018360208201111561132657600080fd5b8035906020019184600183028401116401000000008311171561134857600080fd5b91908080601f016020809104026020016040519081016040528093929190818152602001838380828437600081840152601f19601f820116905080830192505050505050509192919290803590602001906401000000008111156113ab57600080fd5b8201836020820111156113bd57600080fd5b803590602001918460018302840111640100000000831117156113df57600080fd5b91908080601f016020809104026020016040519081016040528093929190818152602001838380828437600081840152601f19601f820116905080830192505050505050509192919290803590602001909291908035906020019064010000000081111561144c57600080fd5b82018360208201111561145e57600080fd5b8035906020019184600183028401116401000000008311171561148057600080fd5b91908080601f016020809104026020016040519081016040528093929190818152602001838380828437600081840152601f19601f820116905080830192505050505050509192919290803590602001906401000000008111156114e357600080fd5b8201836020820111156114f557600080fd5b8035906020019184600183028401116401000000008311171561151757600080fd5b91908080601f016020809104026020016040519081016040528093929190818152602001838380828437600081840152601f19601f8201169050808301925050505050505091929192905050506139b3565b604051808060200180602001878152602001806020018060200186815260200185810385528b818151815260200191508051906020019080838360005b838110156115c15780820151818401526020810190506115a6565b50505050905090810190601f1680156115ee5780820380516001836020036101000a031916815260200191505b5085810384528a818151815260200191508051906020019080838360005b8381101561162757808201518184015260208101905061160c565b50505050905090810190601f1680156116545780820380516001836020036101000a031916815260200191505b50858103835288818151815260200191508051906020019080838360005b8381101561168d578082015181840152602081019050611672565b50505050905090810190601f1680156116ba5780820380516001836020036101000a031916815260200191505b50858103825287818151815260200191508051906020019080838360005b838110156116f35780820151818401526020810190506116d8565b50505050905090810190601f1680156117205780820380516001836020036101000a031916815260200191505b509a505050505050505050505060405180910390f35b61193d6004803603608081101561174c57600080fd5b810190808035906020019064010000000081111561176957600080fd5b82018360208201111561177b57600080fd5b8035906020019184600183028401116401000000008311171561179d57600080fd5b91908080601f016020809104026020016040519081016040528093929190818152602001838380828437600081840152601f19601f8201169050808301925050505050505091929192908035906020019064010000000081111561180057600080fd5b82018360208201111561181257600080fd5b8035906020019184600183028401116401000000008311171561183457600080fd5b91908080601f016020809104026020016040519081016040528093929190818152602001838380828437600081840152601f19601f8201169050808301925050505050505091929192908035906020019064010000000081111561189757600080fd5b8201836020820111156118a957600080fd5b803590602001918460018302840111640100000000831117156118cb57600080fd5b91908080601f016020809104026020016040519081016040528093929190818152602001838380828437600081840152601f19601f820116905080830192505050505050509192919290803573ffffffffffffffffffffffffffffffffffffffff169060200190929190505050614360565b604051808060200180602001806020018573ffffffffffffffffffffffffffffffffffffffff1673ffffffffffffffffffffffffffffffffffffffff168152602001848103845288818151815260200191508051906020019080838360005b838110156119b757808201518184015260208101905061199c565b50505050905090810190601f1680156119e45780820380516001836020036101000a031916815260200191505b50848103835287818151815260200191508051906020019080838360005b83811015611a1d578082015181840152602081019050611a02565b50505050905090810190601f168015611a4a5780820380516001836020036101000a031916815260200191505b50848103825286818151815260200191508051906020019080838360005b83811015611a83578082015181840152602081019050611a68565b50505050905090810190601f168015611ab05780820380516001836020036101000a031916815260200191505b5097505050505050505060405180910390f35b348015611acf57600080fd5b50611b1c60048036036040811015611ae657600080fd5b8101908080359060200190929190803573ffffffffffffffffffffffffffffffffffffffff169060200190929190505050614791565b604051808060200180602001878152602001806020018060200186815260200185810385528b818151815260200191508051906020019080838360005b83811015611b74578082015181840152602081019050611b59565b50505050905090810190601f168015611ba15780820380516001836020036101000a031916815260200191505b5085810384528a818151815260200191508051906020019080838360005b83811015611bda578082015181840152602081019050611bbf565b50505050905090810190601f168015611c075780820380516001836020036101000a031916815260200191505b50858103835288818151815260200191508051906020019080838360005b83811015611c40578082015181840152602081019050611c25565b50505050905090810190601f168015611c6d5780820380516001836020036101000a031916815260200191505b50858103825287818151815260200191508051906020019080838360005b83811015611ca6578082015181840152602081019050611c8b565b50505050905090810190601f168015611cd35780820380516001836020036101000a031916815260200191505b509a505050505050505050505060405180910390f35b60008054600181600116156101000203166002900480601f016020809104026020016040519081016040528092919081815260200182805460018160011615610100020316600290048015611d7f5780601f10611d5457610100808354040283529160200191611d7f565b820191906000526020600020905b815481529060010190602001808311611d6257829003601f168201915b505050505081565b6000600160008373ffffffffffffffffffffffffffffffffffffffff1673ffffffffffffffffffffffffffffffffffffffff168152602001908152602001600020905060008090505b8180549050811015611fa357836040516020018082805190602001908083835b60208310611e135780518252602082019150602081019050602083039250611df0565b6001836020036101000a03801982511681845116808217855250505050505090500191505060405160208183030381529060405280519060200120828281548110611e5a57fe5b90600052602060002090600602016000016040516020018082805460018160011615610100020316600290048015611ec95780601f10611ea7576101008083540402835291820191611ec9565b820191906000526020600020905b815481529060010190602001808311611eb5575b5050915050604051602081830303815290604052805190602001201415611f9657600160008473ffffffffffffffffffffffffffffffffffffffff1673ffffffffffffffffffffffffffffffffffffffff1681526020019081526020016000208181548110611f3457fe5b906000526020600020906006020160008082016000611f539190614af2565b600182016000611f639190614af2565b6002820160009055600382016000611f7b9190614af2565b600482016000611f8b9190614af2565b600582016000905550505b8080600101915050611dd0565b50505050565b60026020528160005260406000208181548110611fc257fe5b906000526020600020906006020160009150915050806000018054600181600116156101000203166002900480601f01602080910402602001604051908101604052809291908181526020018280546001816001161561010002031660029004801561206f5780601f106120445761010080835404028352916020019161206f565b820191906000526020600020905b81548152906001019060200180831161205257829003601f168201915b505050505090806001018054600181600116156101000203166002900480601f01602080910402602001604051908101604052809291908181526020018280546001816001161561010002031660029004801561210d5780601f106120e25761010080835404028352916020019161210d565b820191906000526020600020905b8154815290600101906020018083116120f057829003601f168201915b505050505090806002015490806003018054600181600116156101000203166002900480601f0160208091040260200160405190810160405280929190818152602001828054600181600116156101000203166002900480156121b15780601f10612186576101008083540402835291602001916121b1565b820191906000526020600020905b81548152906001019060200180831161219457829003601f168201915b505050505090806004018054600181600116156101000203166002900480601f01602080910402602001604051908101604052809291908181526020018280546001816001161561010002031660029004801561224f5780601f106122245761010080835404028352916020019161224f565b820191906000526020600020905b81548152906001019060200180831161223257829003601f168201915b5050505050908060050154905086565b6000600260008373ffffffffffffffffffffffffffffffffffffffff1673ffffffffffffffffffffffffffffffffffffffff168152602001908152602001600020905060008090505b818054905081101561247b57836040516020018082805190602001908083835b602083106122eb57805182526020820191506020810190506020830392506122c8565b6001836020036101000a0380198251168184511680821785525050505050509050019150506040516020818303038152906040528051906020012082828154811061233257fe5b906000526020600020906006020160000160405160200180828054600181600116156101000203166002900480156123a15780601f1061237f5761010080835404028352918201916123a1565b820191906000526020600020905b81548152906001019060200180831161238d575b505091505060405160208183030381529060405280519060200120141561246e57600260008473ffffffffffffffffffffffffffffffffffffffff1673ffffffffffffffffffffffffffffffffffffffff168152602001908152602001600020818154811061240c57fe5b90600052602060002090600602016000808201600061242b9190614af2565b60018201600061243b9190614af2565b60028201600090556003820160006124539190614af2565b6004820160006124639190614af2565b600582016000905550505b80806001019150506122a8565b50505050565b60608060006060806000808a5111612501576040517f08c379a00000000000000000000000000000000000000000000000000000000081526004018080602001828103825260118152602001807f496e76616c69642046696c65204861736800000000000000000000000000000081525060200191505060405180910390fd5b60008b5111612578576040517f08c379a000000000000000000000000000000000000000000000000000000000815260040180806020018281038252600f8152602001807f496e76616c69642046696c65204944000000000000000000000000000000000081525060200191505060405180910390fd5b60008851116125ef576040517f08c379a00000000000000000000000000000000000000000000000000000000081526004018080602001828103825260118152602001807f496e76616c69642046696c65205479706500000000000000000000000000000081525060200191505060405180910390fd5b6000875111612666576040517f08c379a00000000000000000000000000000000000000000000000000000000081526004018080602001828103825260148152602001807f496e76616c69642053657276696365204e616d6500000000000000000000000081525060200191505060405180910390fd5b600073ffffffffffffffffffffffffffffffffffffffff168c73ffffffffffffffffffffffffffffffffffffffff161415612709576040517f08c379a000000000000000000000000000000000000000000000000000000000815260040180806020018281038252600f8152602001807f496e76616c69642061646472657373000000000000000000000000000000000081525060200191505060405180910390fd5b6000891161277f576040517f08c379a00000000000000000000000000000000000000000000000000000000081526004018080602001828103825260118152602001807f496e76616c69642046696c652053697a6500000000000000000000000000000081525060200191505060405180910390fd5b600160008d73ffffffffffffffffffffffffffffffffffffffff1673ffffffffffffffffffffffffffffffffffffffff1681526020019081526020016000206040518060c001604052808d81526020018c81526020018b81526020018a815260200189815260200142815250908060018154018082558091505090600182039060005260206000209060060201600090919290919091506000820151816000019080519060200190612832929190614b3a565b50602082015181600101908051906020019061284f929190614b3a565b50604082015181600201556060820151816003019080519060200190612876929190614b3a565b506080820151816004019080519060200190612893929190614b3a565b5060a082015181600501555050507f6c1f9a68defcb9c01c4d23ec8500356148eb1397f05f30b04bf432fdc596bda28b8b8b8b8b42604051808060200180602001878152602001806020018060200186815260200185810385528b818151815260200191508051906020019080838360005b83811015612920578082015181840152602081019050612905565b50505050905090810190601f16801561294d5780820380516001836020036101000a031916815260200191505b5085810384528a818151815260200191508051906020019080838360005b8381101561298657808201518184015260208101905061296b565b50505050905090810190601f1680156129b35780820380516001836020036101000a031916815260200191505b50858103835288818151815260200191508051906020019080838360005b838110156129ec5780820151818401526020810190506129d1565b50505050905090810190601f168015612a195780820380516001836020036101000a031916815260200191505b50858103825287818151815260200191508051906020019080838360005b83811015612a52578082015181840152602081019050612a37565b50505050905090810190601f168015612a7f5780820380516001836020036101000a031916815260200191505b509a505050505050505050505060405180910390a16000600160008e73ffffffffffffffffffffffffffffffffffffffff1673ffffffffffffffffffffffffffffffffffffffff168152602001908152602001600020805490509050612ae3614bba565b600160008f73ffffffffffffffffffffffffffffffffffffffff1673ffffffffffffffffffffffffffffffffffffffff1681526020019081526020016000206001830381548110612b3057fe5b90600052602060002090600602016040518060c0016040529081600082018054600181600116156101000203166002900480601f016020809104026020016040519081016040528092919081815260200182805460018160011615610100020316600290048015612be25780601f10612bb757610100808354040283529160200191612be2565b820191906000526020600020905b815481529060010190602001808311612bc557829003601f168201915b50505050508152602001600182018054600181600116156101000203166002900480601f016020809104026020016040519081016040528092919081815260200182805460018160011615610100020316600290048015612c845780601f10612c5957610100808354040283529160200191612c84565b820191906000526020600020905b815481529060010190602001808311612c6757829003601f168201915b5050505050815260200160028201548152602001600382018054600181600116156101000203166002900480601f016020809104026020016040519081016040528092919081815260200182805460018160011615610100020316600290048015612d305780601f10612d0557610100808354040283529160200191612d30565b820191906000526020600020905b815481529060010190602001808311612d1357829003601f168201915b50505050508152602001600482018054600181600116156101000203166002900480601f016020809104026020016040519081016040528092919081815260200182805460018160011615610100020316600290048015612dd25780601f10612da757610100808354040283529160200191612dd2565b820191906000526020600020905b815481529060010190602001808311612db557829003601f168201915b505050505081526020016005820154815250509050806000015181602001518260400151836060015184608001518560a00151859550849450829250819150975097509750975097509750505096509650965096509650969050565b6000600160008373ffffffffffffffffffffffffffffffffffffffff1673ffffffffffffffffffffffffffffffffffffffff168152602001908152602001600020805490509050919050565b60016020528160005260406000208181548110612e9357fe5b906000526020600020906006020160009150915050806000018054600181600116156101000203166002900480601f016020809104026020016040519081016040528092919081815260200182805460018160011615610100020316600290048015612f405780601f10612f1557610100808354040283529160200191612f40565b820191906000526020600020905b815481529060010190602001808311612f2357829003601f168201915b505050505090806001018054600181600116156101000203166002900480601f016020809104026020016040519081016040528092919081815260200182805460018160011615610100020316600290048015612fde5780601f10612fb357610100808354040283529160200191612fde565b820191906000526020600020905b815481529060010190602001808311612fc157829003601f168201915b505050505090806002015490806003018054600181600116156101000203166002900480601f0160208091040260200160405190810160405280929190818152602001828054600181600116156101000203166002900480156130825780601f1061305757610100808354040283529160200191613082565b820191906000526020600020905b81548152906001019060200180831161306557829003601f168201915b505050505090806004018054600181600116156101000203166002900480601f0160208091040260200160405190810160405280929190818152602001828054600181600116156101000203166002900480156131205780601f106130f557610100808354040283529160200191613120565b820191906000526020600020905b81548152906001019060200180831161310357829003601f168201915b5050505050908060050154905086565b606080606060008085101561314457600080fd5b61314c614bf0565b6003868154811061315957fe5b9060005260206000209060040201604051806080016040529081600082018054600181600116156101000203166002900480601f01602080910402602001604051908101604052809291908181526020018280546001816001161561010002031660029004801561320b5780601f106131e05761010080835404028352916020019161320b565b820191906000526020600020905b8154815290600101906020018083116131ee57829003601f168201915b50505050508152602001600182018054600181600116156101000203166002900480601f0160208091040260200160405190810160405280929190818152602001828054600181600116156101000203166002900480156132ad5780601f10613282576101008083540402835291602001916132ad565b820191906000526020600020905b81548152906001019060200180831161329057829003601f168201915b50505050508152602001600282018054600181600116156101000203166002900480601f01602080910402602001604051908101604052809291908181526020018280546001816001161561010002031660029004801561334f5780601f106133245761010080835404028352916020019161334f565b820191906000526020600020905b81548152906001019060200180831161333257829003601f168201915b505050505081526020016003820160009054906101000a900473ffffffffffffffffffffffffffffffffffffffff1673ffffffffffffffffffffffffffffffffffffffff1673ffffffffffffffffffffffffffffffffffffffff1681525050905080600001519450806020015193508060400151925080606001519150509193509193565b6000600260008373ffffffffffffffffffffffffffffffffffffffff1673ffffffffffffffffffffffffffffffffffffffff168152602001908152602001600020805490509050919050565b6000600380549050905090565b6003818154811061343a57fe5b9060005260206000209060040201600091509050806000018054600181600116156101000203166002900480601f0160208091040260200160405190810160405280929190818152602001828054600181600116156101000203166002900480156134e65780601f106134bb576101008083540402835291602001916134e6565b820191906000526020600020905b8154815290600101906020018083116134c957829003601f168201915b505050505090806001018054600181600116156101000203166002900480601f0160208091040260200160405190810160405280929190818152602001828054600181600116156101000203166002900480156135845780601f1061355957610100808354040283529160200191613584565b820191906000526020600020905b81548152906001019060200180831161356757829003601f168201915b505050505090806002018054600181600116156101000203166002900480601f0160208091040260200160405190810160405280929190818152602001828054600181600116156101000203166002900480156136225780601f106135f757610100808354040283529160200191613622565b820191906000526020600020905b81548152906001019060200180831161360557829003601f168201915b5050505050908060030160009054906101000a900473ffffffffffffffffffffffffffffffffffffffff16905084565b606080600060608060008088101561366957600080fd5b613671614bba565b600260008973ffffffffffffffffffffffffffffffffffffffff1673ffffffffffffffffffffffffffffffffffffffff16815260200190815260200160002089815481106136bb57fe5b90600052602060002090600602016040518060c0016040529081600082018054600181600116156101000203166002900480601f01602080910402602001604051908101604052809291908181526020018280546001816001161561010002031660029004801561376d5780601f106137425761010080835404028352916020019161376d565b820191906000526020600020905b81548152906001019060200180831161375057829003601f168201915b50505050508152602001600182018054600181600116156101000203166002900480601f01602080910402602001604051908101604052809291908181526020018280546001816001161561010002031660029004801561380f5780601f106137e45761010080835404028352916020019161380f565b820191906000526020600020905b8154815290600101906020018083116137f257829003601f168201915b5050505050815260200160028201548152602001600382018054600181600116156101000203166002900480601f0160208091040260200160405190810160405280929190818152602001828054600181600116156101000203166002900480156138bb5780601f10613890576101008083540402835291602001916138bb565b820191906000526020600020905b81548152906001019060200180831161389e57829003601f168201915b50505050508152602001600482018054600181600116156101000203166002900480601f01602080910402602001604051908101604052809291908181526020018280546001816001161561010002031660029004801561395d5780601f106139325761010080835404028352916020019161395d565b820191906000526020600020905b81548152906001019060200180831161394057829003601f168201915b505050505081526020016005820154815250509050806000015181602001518260400151836060015184608001518560a00151859550849450829250819150965096509650965096509650509295509295509295565b60608060006060806000808a5111613a33576040517f08c379a00000000000000000000000000000000000000000000000000000000081526004018080602001828103825260118152602001807f496e76616c69642046696c65204861736800000000000000000000000000000081525060200191505060405180910390fd5b60008b5111613aaa576040517f08c379a000000000000000000000000000000000000000000000000000000000815260040180806020018281038252600f8152602001807f496e76616c69642046696c65204944000000000000000000000000000000000081525060200191505060405180910390fd5b6000885111613b21576040517f08c379a00000000000000000000000000000000000000000000000000000000081526004018080602001828103825260118152602001807f496e76616c69642046696c65205479706500000000000000000000000000000081525060200191505060405180910390fd5b6000875111613b98576040517f08c379a00000000000000000000000000000000000000000000000000000000081526004018080602001828103825260148152602001807f496e76616c69642053657276696365204e616d6500000000000000000000000081525060200191505060405180910390fd5b600073ffffffffffffffffffffffffffffffffffffffff168c73ffffffffffffffffffffffffffffffffffffffff161415613c3b576040517f08c379a00000000000000000000000000000000000000000000000000000000081526004018080602001828103825260188152602001807f496e76616c69642072656365697665722061646472657373000000000000000081525060200191505060405180910390fd5b60008911613cb1576040517f08c379a00000000000000000000000000000000000000000000000000000000081526004018080602001828103825260118152602001807f496e76616c69642046696c652053697a6500000000000000000000000000000081525060200191505060405180910390fd5b600260008d73ffffffffffffffffffffffffffffffffffffffff1673ffffffffffffffffffffffffffffffffffffffff1681526020019081526020016000206040518060c001604052808d81526020018c81526020018b81526020018a815260200189815260200142815250908060018154018082558091505090600182039060005260206000209060060201600090919290919091506000820151816000019080519060200190613d64929190614b3a565b506020820151816001019080519060200190613d81929190614b3a565b50604082015181600201556060820151816003019080519060200190613da8929190614b3a565b506080820151816004019080519060200190613dc5929190614b3a565b5060a082015181600501555050507fab1ca4b4cb31dc367f42d2745e7b10bdb6a3cd4adec76e94e4d15fc4974900568b8b8b8b8b42604051808060200180602001878152602001806020018060200186815260200185810385528b818151815260200191508051906020019080838360005b83811015613e52578082015181840152602081019050613e37565b50505050905090810190601f168015613e7f5780820380516001836020036101000a031916815260200191505b5085810384528a818151815260200191508051906020019080838360005b83811015613eb8578082015181840152602081019050613e9d565b50505050905090810190601f168015613ee55780820380516001836020036101000a031916815260200191505b50858103835288818151815260200191508051906020019080838360005b83811015613f1e578082015181840152602081019050613f03565b50505050905090810190601f168015613f4b5780820380516001836020036101000a031916815260200191505b50858103825287818151815260200191508051906020019080838360005b83811015613f84578082015181840152602081019050613f69565b50505050905090810190601f168015613fb15780820380516001836020036101000a031916815260200191505b509a505050505050505050505060405180910390a16000600260008e73ffffffffffffffffffffffffffffffffffffffff1673ffffffffffffffffffffffffffffffffffffffff168152602001908152602001600020805490509050614015614bba565b600260008f73ffffffffffffffffffffffffffffffffffffffff1673ffffffffffffffffffffffffffffffffffffffff168152602001908152602001600020600183038154811061406257fe5b90600052602060002090600602016040518060c0016040529081600082018054600181600116156101000203166002900480601f0160208091040260200160405190810160405280929190818152602001828054600181600116156101000203166002900480156141145780601f106140e957610100808354040283529160200191614114565b820191906000526020600020905b8154815290600101906020018083116140f757829003601f168201915b50505050508152602001600182018054600181600116156101000203166002900480601f0160208091040260200160405190810160405280929190818152602001828054600181600116156101000203166002900480156141b65780601f1061418b576101008083540402835291602001916141b6565b820191906000526020600020905b81548152906001019060200180831161419957829003601f168201915b5050505050815260200160028201548152602001600382018054600181600116156101000203166002900480601f0160208091040260200160405190810160405280929190818152602001828054600181600116156101000203166002900480156142625780601f1061423757610100808354040283529160200191614262565b820191906000526020600020905b81548152906001019060200180831161424557829003601f168201915b50505050508152602001600482018054600181600116156101000203166002900480601f0160208091040260200160405190810160405280929190818152602001828054600181600116156101000203166002900480156143045780601f106142d957610100808354040283529160200191614304565b820191906000526020600020905b8154815290600101906020018083116142e757829003601f168201915b505050505081526020016005820154815250509050806000015181602001518260400151836060015184608001518560a00151859550849450829250819150975097509750975097509750505096509650965096509650969050565b60608060606000808851116143dd576040517f08c379a00000000000000000000000000000000000000000000000000000000081526004018080602001828103825260148152602001807f496e76616c69642053657276696365204e616d6500000000000000000000000081525060200191505060405180910390fd5b6000875111614454576040517f08c379a00000000000000000000000000000000000000000000000000000000081526004018080602001828103825260128152602001807f496e76616c6964204669727374204e616d65000000000000000000000000000081525060200191505060405180910390fd5b60008651116144cb576040517f08c379a00000000000000000000000000000000000000000000000000000000081526004018080602001828103825260118152602001807f496e76616c6964204c617374204e616d6500000000000000000000000000000081525060200191505060405180910390fd5b600360405180608001604052808a81526020018981526020018881526020018773ffffffffffffffffffffffffffffffffffffffff1681525090806001815401808255809150509060018203906000526020600020906004020160009091929091909150600082015181600001908051906020019061454b929190614b3a565b506020820151816001019080519060200190614568929190614b3a565b506040820151816002019080519060200190614585929190614b3a565b5060608201518160030160006101000a81548173ffffffffffffffffffffffffffffffffffffffff021916908373ffffffffffffffffffffffffffffffffffffffff1602179055505050508793508692508591508490507f41a65d6cb7688ab168696b1f4181ebba2c0fc872e2e644063051ca6b9ef1091888888888604051808060200180602001806020018573ffffffffffffffffffffffffffffffffffffffff1673ffffffffffffffffffffffffffffffffffffffff168152602001848103845288818151815260200191508051906020019080838360005b8381101561467b578082015181840152602081019050614660565b50505050905090810190601f1680156146a85780820380516001836020036101000a031916815260200191505b50848103835287818151815260200191508051906020019080838360005b838110156146e15780820151818401526020810190506146c6565b50505050905090810190601f16801561470e5780820380516001836020036101000a031916815260200191505b50848103825286818151815260200191508051906020019080838360005b8381101561474757808201518184015260208101905061472c565b50505050905090810190601f1680156147745780820380516001836020036101000a031916815260200191505b5097505050505050505060405180910390a1945094509450949050565b60608060006060806000808810156147a857600080fd5b6147b0614bba565b600160008973ffffffffffffffffffffffffffffffffffffffff1673ffffffffffffffffffffffffffffffffffffffff16815260200190815260200160002089815481106147fa57fe5b90600052602060002090600602016040518060c0016040529081600082018054600181600116156101000203166002900480601f0160208091040260200160405190810160405280929190818152602001828054600181600116156101000203166002900480156148ac5780601f10614881576101008083540402835291602001916148ac565b820191906000526020600020905b81548152906001019060200180831161488f57829003601f168201915b50505050508152602001600182018054600181600116156101000203166002900480601f01602080910402602001604051908101604052809291908181526020018280546001816001161561010002031660029004801561494e5780601f106149235761010080835404028352916020019161494e565b820191906000526020600020905b81548152906001019060200180831161493157829003601f168201915b5050505050815260200160028201548152602001600382018054600181600116156101000203166002900480601f0160208091040260200160405190810160405280929190818152602001828054600181600116156101000203166002900480156149fa5780601f106149cf576101008083540402835291602001916149fa565b820191906000526020600020905b8154815290600101906020018083116149dd57829003601f168201915b50505050508152602001600482018054600181600116156101000203166002900480601f016020809104026020016040519081016040528092919081815260200182805460018160011615610100020316600290048015614a9c5780601f10614a7157610100808354040283529160200191614a9c565b820191906000526020600020905b815481529060010190602001808311614a7f57829003601f168201915b505050505081526020016005820154815250509050806000015181602001518260400151836060015184608001518560a00151859550849450829250819150965096509650965096509650509295509295509295565b50805460018160011615610100020316600290046000825580601f10614b185750614b37565b601f016020900490600052602060002090810190614b369190614c2e565b5b50565b828054600181600116156101000203166002900490600052602060002090601f016020900481019282601f10614b7b57805160ff1916838001178555614ba9565b82800160010185558215614ba9579182015b82811115614ba8578251825591602001919060010190614b8d565b5b509050614bb69190614c2e565b5090565b6040518060c001604052806060815260200160608152602001600081526020016060815260200160608152602001600081525090565b6040518060800160405280606081526020016060815260200160608152602001600073ffffffffffffffffffffffffffffffffffffffff1681525090565b614c5091905b80821115614c4c576000816000905550600101614c34565b5090565b9056fea265627a7a72315820d33bc0449d8a2c919440807b5e45b99eb24128eae2774b2e42ab7f4c9aaa328964736f6c63430005110032",
  "source": "pragma solidity ^0.5.3;\n\ncontract Doc2eth{\n    \n    string public name = 'Doc2eth';\n    \n    //File structure attributes\n    struct File {\n        string fileId;\n        string fileHash;\n        uint fileSize;\n        string fileType;\n        string fileName;\n        uint uploadTime;\n    }\n\n    struct User{\n      string service;\n      string firstname;\n      string lastname;\n      address userwallet;\n\n    }\n\n\n    //get all the current user files hashes that have been uploaded by the current user\n    mapping(address => File[]) public users;\n    // get all shared files hashes that have been shared to the current user\n    mapping(address => File[]) public shares;\n\n    \n    // all users \n    User[] public allUsers;\n      //envent on file upload action\n\n     event FileUploaded(\n        string fileId,\n        string fileHash,\n        uint fileSize,\n        string fileType,\n        string fileName,\n        uint uploadTime\n  );\n      //event on file sharing action\n       event FileShareUploaded(\n        string fileId,\n        string fileHash,\n        uint fileSize,\n        string fileType,\n        string fileName,\n        uint uploadTime\n  );\n        event UserAdded(\n        string service,\n        string firstname,\n        string lastname,\n        address userwallet\n  );\n  \n  constructor() public {\n  }\n  //add new user info\n  function addUser(string memory _service,string memory _firstname,string memory _lastname,address _userwallet) public payable returns(string memory userservice,string memory ufirstname,string memory ulastname,address uaddress) {\n    require(bytes(_service).length > 0,\"Invalid Service Name\");\n    require(bytes(_firstname).length > 0,\"Invalid First Name\");\n    require(bytes(_lastname).length > 0,\"Invalid Last Name\");\n          \n    allUsers.push(User(_service,_firstname,_lastname,_userwallet));\n    userservice=_service;\n    ufirstname=_firstname;\n    ulastname=_lastname;\n    uaddress=_userwallet;\n\n    emit UserAdded(_service,_firstname,_lastname,_userwallet);\n    \n  }\n\n   function getCountusers() public view returns(uint){\n      \n    return allUsers.length;\n  }\n  //get all user info by index\n  function getAllUserInfo(uint _index) public view returns\n  (string memory userservice,string memory ufirstname,string memory ulastname,address uaddress) {\n      \n\n      require(_index>=0);\n      User memory tmp = allUsers[_index];\n      userservice=tmp.service;\n      ufirstname=tmp.firstname;\n      ulastname=tmp.lastname;\n      uaddress=tmp.userwallet;\n        \n  }\n \n\n   // function of uplading a file  \n  function uploadFile(address _address,string memory _fileId,string memory _fileHash, uint _fileSize, string memory _fileType, string memory _fileName) public returns(string memory,string memory,uint, string memory,string memory,uint) {\n\n    require(bytes(_fileHash).length > 0,\"Invalid File Hash\");\n    require(bytes(_fileId).length > 0,\"Invalid File ID\");\n    require(bytes(_fileType).length > 0,\"Invalid File Type\");\n    require(bytes(_fileName).length > 0,\"Invalid Service Name\");\n    require(_address != address(0),\"Invalid address\");\n    require(_fileSize>0,\"Invalid File Size\");\n    \n    users[_address].push(File(_fileId,_fileHash, _fileSize, _fileType, _fileName, now));\n\n\n    emit FileUploaded(_fileId,_fileHash, _fileSize, _fileType, _fileName,now);\n\n\n    uint length = users[_address].length;\n\n    File memory file = users[_address][length-1];\n      \n    return (file.fileId,file.fileHash,file.fileSize,file.fileType,file.fileName,file.uploadTime);\n  }\n  \n  function getCount(address _address) public view returns(uint){\n      \n    return users[_address].length;\n  }\n  //return files of current user\n\n  function getFilesofUser(uint _index, address _address)\n  public view returns(string memory,string memory,uint, string memory,string memory,uint) {\n      \n      \n      require(_index>=0);\n      \n      File memory file = users[_address][_index];\n      \n      return (file.fileId,file.fileHash,file.fileSize,file.fileType,file.fileName,file.uploadTime);\n    \n  }\n    //remove file hash from the blockchain\n    function removeHash(string memory _fileId, address _address) public {\n      \n         File[] storage f = users[_address];\n  \n         for (uint i = 0; i < f.length; i++) {\n             if (keccak256(abi.encodePacked(f[i].fileId)) == keccak256(abi.encodePacked(_fileId))) {\n              \n               delete users[_address][i];\n                 \n             }\n             \n         }\n  }\n  //share file\n  function uploadShareFile(address _to,string memory _fileId,string memory _fileHash, uint _fileSize, string memory _fileType, string memory _fileName) public returns(string memory,string memory,uint, string memory,string memory,uint) {\n\n    require(bytes(_fileHash).length > 0,\"Invalid File Hash\");\n    require(bytes(_fileId).length > 0,\"Invalid File ID\");\n    require(bytes(_fileType).length > 0,\"Invalid File Type\");\n    require(bytes(_fileName).length > 0,\"Invalid Service Name\");\n    require(_to!=address(0),\"Invalid receiver address\");\n    require(_fileSize>0,\"Invalid File Size\");\n    \n    shares[_to].push(File(_fileId,_fileHash, _fileSize, _fileType, _fileName, now));\n\n\n    emit FileShareUploaded(_fileId,_fileHash, _fileSize, _fileType, _fileName,now);\n\n\n    uint length = shares[_to].length;\n\n    File memory file = shares[_to][length-1];\n      \n    return (file.fileId,file.fileHash,file.fileSize,file.fileType,file.fileName,file.uploadTime);\n  }\n\n  //get the number of shared files\n\n  function getShareCount(address _address) public view returns(uint){\n      \n    return shares[_address].length;\n  }\n  \n  function getShareFilesofUser(uint _index,address _address) public view returns(string memory,string memory,uint, string memory,string memory,uint) {\n      \n      \n      require(_index>=0);\n      \n      File memory file = shares[_address][_index];\n      \n      return (file.fileId,file.fileHash,file.fileSize,file.fileType,file.fileName,file.uploadTime);\n    \n  }\n    // remove hash of a shred files for current user in the blockchain\n  function removeShareHash(string memory _fileId,address _address) public {\n      \n         File[] storage f = shares[_address];\n  \n         for (uint i = 0; i < f.length; i++) {\n             if (keccak256(abi.encodePacked(f[i].fileId)) == keccak256(abi.encodePacked(_fileId))) {\n              \n               delete shares[_address][i];\n                 \n             }\n             \n         }\n  }\n\n    \n}",
  "sourcePath": "D:/WorkSpaces/Pfe/ETBSSI/contracts/Doc2eth.sol",
  "compiler": {
    "name": "solc",
    "version": "0.5.17+commit.d19bba13.Emscripten.clang"
  },
  "schemaVersion": "3.3.4",
  "updatedAt": "2021-06-07T20:38:15.795Z",
  "networkType": "ethereum",
  "devdoc": {
    "methods": {}
  },
  "userdoc": {
    "methods": {}
  }
}