{
  "contractName": "Doc2eth",
  "abi": [
    {
      "inputs": [],
      "payable": false,
      "stateMutability": "nonpayable",
      "type": "constructor"
    },
    {
      "anonymous": false,
      "inputs": [
        {
          "indexed": false,
          "internalType": "string",
          "name": "fileId",
          "type": "string"
        },
        {
          "indexed": false,
          "internalType": "string",
          "name": "fileHash",
          "type": "string"
        },
        {
          "indexed": false,
          "internalType": "uint256",
          "name": "fileSize",
          "type": "uint256"
        },
        {
          "indexed": false,
          "internalType": "string",
          "name": "fileType",
          "type": "string"
        },
        {
          "indexed": false,
          "internalType": "string",
          "name": "fileName",
          "type": "string"
        }
      ],
      "name": "FileShareUploaded",
      "type": "event"
    },
    {
      "anonymous": false,
      "inputs": [
        {
          "indexed": false,
          "internalType": "string",
          "name": "fileId",
          "type": "string"
        },
        {
          "indexed": false,
          "internalType": "string",
          "name": "fileHash",
          "type": "string"
        },
        {
          "indexed": false,
          "internalType": "uint256",
          "name": "fileSize",
          "type": "uint256"
        },
        {
          "indexed": false,
          "internalType": "string",
          "name": "fileType",
          "type": "string"
        },
        {
          "indexed": false,
          "internalType": "string",
          "name": "fileName",
          "type": "string"
        }
      ],
      "name": "FileUploaded",
      "type": "event"
    },
    {
      "anonymous": false,
      "inputs": [
        {
          "indexed": false,
          "internalType": "string",
          "name": "service",
          "type": "string"
        },
        {
          "indexed": false,
          "internalType": "string",
          "name": "firstname",
          "type": "string"
        },
        {
          "indexed": false,
          "internalType": "string",
          "name": "lastname",
          "type": "string"
        },
        {
          "indexed": false,
          "internalType": "address",
          "name": "userwallet",
          "type": "address"
        }
      ],
      "name": "UserAdded",
      "type": "event"
    },
    {
      "constant": true,
      "inputs": [
        {
          "internalType": "uint256",
          "name": "",
          "type": "uint256"
        }
      ],
      "name": "allUsers",
      "outputs": [
        {
          "internalType": "string",
          "name": "service",
          "type": "string"
        },
        {
          "internalType": "string",
          "name": "firstname",
          "type": "string"
        },
        {
          "internalType": "string",
          "name": "lastname",
          "type": "string"
        },
        {
          "internalType": "address",
          "name": "userwallet",
          "type": "address"
        }
      ],
      "payable": false,
      "stateMutability": "view",
      "type": "function"
    },
    {
      "constant": true,
      "inputs": [],
      "name": "name",
      "outputs": [
        {
          "internalType": "string",
          "name": "",
          "type": "string"
        }
      ],
      "payable": false,
      "stateMutability": "view",
      "type": "function"
    },
    {
      "constant": true,
      "inputs": [
        {
          "internalType": "address",
          "name": "",
          "type": "address"
        },
        {
          "internalType": "uint256",
          "name": "",
          "type": "uint256"
        }
      ],
      "name": "shares",
      "outputs": [
        {
          "internalType": "string",
          "name": "fileId",
          "type": "string"
        },
        {
          "internalType": "string",
          "name": "fileHash",
          "type": "string"
        },
        {
          "internalType": "uint256",
          "name": "fileSize",
          "type": "uint256"
        },
        {
          "internalType": "string",
          "name": "fileType",
          "type": "string"
        },
        {
          "internalType": "string",
          "name": "fileName",
          "type": "string"
        },
        {
          "internalType": "string",
          "name": "key",
          "type": "string"
        }
      ],
      "payable": false,
      "stateMutability": "view",
      "type": "function"
    },
    {
      "constant": true,
      "inputs": [
        {
          "internalType": "address",
          "name": "",
          "type": "address"
        },
        {
          "internalType": "uint256",
          "name": "",
          "type": "uint256"
        }
      ],
      "name": "users",
      "outputs": [
        {
          "internalType": "string",
          "name": "fileId",
          "type": "string"
        },
        {
          "internalType": "string",
          "name": "fileHash",
          "type": "string"
        },
        {
          "internalType": "uint256",
          "name": "fileSize",
          "type": "uint256"
        },
        {
          "internalType": "string",
          "name": "fileType",
          "type": "string"
        },
        {
          "internalType": "string",
          "name": "fileName",
          "type": "string"
        },
        {
          "internalType": "string",
          "name": "key",
          "type": "string"
        }
      ],
      "payable": false,
      "stateMutability": "view",
      "type": "function"
    },
    {
      "constant": false,
      "inputs": [
        {
          "internalType": "string",
          "name": "_service",
          "type": "string"
        },
        {
          "internalType": "string",
          "name": "_firstname",
          "type": "string"
        },
        {
          "internalType": "string",
          "name": "_lastname",
          "type": "string"
        },
        {
          "internalType": "address",
          "name": "_userwallet",
          "type": "address"
        }
      ],
      "name": "addUser",
      "outputs": [
        {
          "internalType": "string",
          "name": "userservice",
          "type": "string"
        },
        {
          "internalType": "string",
          "name": "ufirstname",
          "type": "string"
        },
        {
          "internalType": "string",
          "name": "ulastname",
          "type": "string"
        },
        {
          "internalType": "address",
          "name": "uaddress",
          "type": "address"
        }
      ],
      "payable": true,
      "stateMutability": "payable",
      "type": "function"
    },
    {
      "constant": true,
      "inputs": [],
      "name": "getCountusers",
      "outputs": [
        {
          "internalType": "uint256",
          "name": "",
          "type": "uint256"
        }
      ],
      "payable": false,
      "stateMutability": "view",
      "type": "function"
    },
    {
      "constant": true,
      "inputs": [
        {
          "internalType": "uint256",
          "name": "_index",
          "type": "uint256"
        }
      ],
      "name": "getAllUserInfo",
      "outputs": [
        {
          "internalType": "string",
          "name": "userservice",
          "type": "string"
        },
        {
          "internalType": "string",
          "name": "ufirstname",
          "type": "string"
        },
        {
          "internalType": "string",
          "name": "ulastname",
          "type": "string"
        },
        {
          "internalType": "address",
          "name": "uaddress",
          "type": "address"
        }
      ],
      "payable": false,
      "stateMutability": "view",
      "type": "function"
    },
    {
      "constant": false,
      "inputs": [
        {
          "internalType": "address",
          "name": "_address",
          "type": "address"
        },
        {
          "internalType": "string",
          "name": "_fileId",
          "type": "string"
        },
        {
          "internalType": "string",
          "name": "_fileHash",
          "type": "string"
        },
        {
          "internalType": "uint256",
          "name": "_fileSize",
          "type": "uint256"
        },
        {
          "internalType": "string",
          "name": "_fileType",
          "type": "string"
        },
        {
          "internalType": "string",
          "name": "_fileName",
          "type": "string"
        },
        {
          "internalType": "string",
          "name": "_key",
          "type": "string"
        }
      ],
      "name": "uploadFile",
      "outputs": [
        {
          "internalType": "string",
          "name": "",
          "type": "string"
        },
        {
          "internalType": "string",
          "name": "",
          "type": "string"
        },
        {
          "internalType": "uint256",
          "name": "",
          "type": "uint256"
        },
        {
          "internalType": "string",
          "name": "",
          "type": "string"
        },
        {
          "internalType": "string",
          "name": "",
          "type": "string"
        }
      ],
      "payable": false,
      "stateMutability": "nonpayable",
      "type": "function"
    },
    {
      "constant": true,
      "inputs": [
        {
          "internalType": "address",
          "name": "_address",
          "type": "address"
        }
      ],
      "name": "getCount",
      "outputs": [
        {
          "internalType": "uint256",
          "name": "",
          "type": "uint256"
        }
      ],
      "payable": false,
      "stateMutability": "view",
      "type": "function"
    },
    {
      "constant": true,
      "inputs": [
        {
          "internalType": "uint256",
          "name": "_index",
          "type": "uint256"
        },
        {
          "internalType": "address",
          "name": "_address",
          "type": "address"
        }
      ],
      "name": "getFilesofUser",
      "outputs": [
        {
          "internalType": "string",
          "name": "",
          "type": "string"
        },
        {
          "internalType": "string",
          "name": "",
          "type": "string"
        },
        {
          "internalType": "uint256",
          "name": "",
          "type": "uint256"
        },
        {
          "internalType": "string",
          "name": "",
          "type": "string"
        },
        {
          "internalType": "string",
          "name": "",
          "type": "string"
        }
      ],
      "payable": false,
      "stateMutability": "view",
      "type": "function"
    },
    {
      "constant": true,
      "inputs": [
        {
          "internalType": "uint256",
          "name": "_index",
          "type": "uint256"
        },
        {
          "internalType": "address",
          "name": "_address",
          "type": "address"
        }
      ],
      "name": "getFilekey",
      "outputs": [
        {
          "internalType": "string",
          "name": "",
          "type": "string"
        }
      ],
      "payable": false,
      "stateMutability": "view",
      "type": "function"
    },
    {
      "constant": false,
      "inputs": [
        {
          "internalType": "string",
          "name": "_fileId",
          "type": "string"
        },
        {
          "internalType": "address",
          "name": "_address",
          "type": "address"
        }
      ],
      "name": "removeHash",
      "outputs": [],
      "payable": false,
      "stateMutability": "nonpayable",
      "type": "function"
    },
    {
      "constant": false,
      "inputs": [
        {
          "internalType": "address",
          "name": "_to",
          "type": "address"
        },
        {
          "internalType": "string",
          "name": "_fileId",
          "type": "string"
        },
        {
          "internalType": "string",
          "name": "_fileHash",
          "type": "string"
        },
        {
          "internalType": "uint256",
          "name": "_fileSize",
          "type": "uint256"
        },
        {
          "internalType": "string",
          "name": "_fileType",
          "type": "string"
        },
        {
          "internalType": "string",
          "name": "_fileName",
          "type": "string"
        },
        {
          "internalType": "string",
          "name": "_key",
          "type": "string"
        }
      ],
      "name": "uploadShareFile",
      "outputs": [
        {
          "internalType": "string",
          "name": "",
          "type": "string"
        },
        {
          "internalType": "string",
          "name": "",
          "type": "string"
        },
        {
          "internalType": "uint256",
          "name": "",
          "type": "uint256"
        },
        {
          "internalType": "string",
          "name": "",
          "type": "string"
        },
        {
          "internalType": "string",
          "name": "",
          "type": "string"
        }
      ],
      "payable": false,
      "stateMutability": "nonpayable",
      "type": "function"
    },
    {
      "constant": true,
      "inputs": [
        {
          "internalType": "address",
          "name": "_address",
          "type": "address"
        }
      ],
      "name": "getShareCount",
      "outputs": [
        {
          "internalType": "uint256",
          "name": "",
          "type": "uint256"
        }
      ],
      "payable": false,
      "stateMutability": "view",
      "type": "function"
    },
    {
      "constant": true,
      "inputs": [
        {
          "internalType": "uint256",
          "name": "_index",
          "type": "uint256"
        },
        {
          "internalType": "address",
          "name": "_address",
          "type": "address"
        }
      ],
      "name": "getShareFilesofUser",
      "outputs": [
        {
          "internalType": "string",
          "name": "",
          "type": "string"
        },
        {
          "internalType": "string",
          "name": "",
          "type": "string"
        },
        {
          "internalType": "uint256",
          "name": "",
          "type": "uint256"
        },
        {
          "internalType": "string",
          "name": "",
          "type": "string"
        },
        {
          "internalType": "string",
          "name": "",
          "type": "string"
        }
      ],
      "payable": false,
      "stateMutability": "view",
      "type": "function"
    },
    {
      "constant": false,
      "inputs": [
        {
          "internalType": "string",
          "name": "_fileId",
          "type": "string"
        },
        {
          "internalType": "address",
          "name": "_address",
          "type": "address"
        }
      ],
      "name": "removeShareHash",
      "outputs": [],
      "payable": false,
      "stateMutability": "nonpayable",
      "type": "function"
    }
  ],
  "bytecode": "0x60806040526040518060400160405280600781526020017f446f633265746800000000000000000000000000000000000000000000000000815250600090805190602001906200005192919062000066565b503480156200005f57600080fd5b5062000115565b828054600181600116156101000203166002900490600052602060002090601f016020900481019282601f10620000a957805160ff1916838001178555620000da565b82800160010185558215620000da579182015b82811115620000d9578251825591602001919060010190620000bc565b5b509050620000e99190620000ed565b5090565b6200011291905b808211156200010e576000816000905550600101620000f4565b5090565b90565b61578680620001256000396000f3fe6080604052600436106100f35760003560e01c806368cd21331161008a578063a2bdedf411610059578063a2bdedf41461161a578063a6f34370146117d9578063b48ff0f1146119f8578063e82240f814611d85576100f3565b806368cd213314610eb95780637178e5fb146113cb578063729d84601461158a5780638fd2b020146115ef576100f3565b806332ef223e116100c657806332ef223e146105e35780634b029c94146106b75780634f0cd27b14610bc957806354a02f9e14610c2e576100f3565b806306fdde03146100f85780630b6eab0f14610188578063259ddefc1461027057806326c6a263146104fb575b600080fd5b34801561010457600080fd5b5061010d611fa4565b6040518080602001828103825283818151815260200191508051906020019080838360005b8381101561014d578082015181840152602081019050610132565b50505050905090810190601f16801561017a5780820380516001836020036101000a031916815260200191505b509250505060405180910390f35b34801561019457600080fd5b5061026e600480360360408110156101ab57600080fd5b81019080803590602001906401000000008111156101c857600080fd5b8201836020820111156101da57600080fd5b803590602001918460018302840111640100000000831117156101fc57600080fd5b91908080601f016020809104026020016040519081016040528093929190818152602001838380828437600081840152601f19601f820116905080830192505050505050509192919290803573ffffffffffffffffffffffffffffffffffffffff169060200190929190505050612042565b005b34801561027c57600080fd5b506102c96004803603604081101561029357600080fd5b81019080803573ffffffffffffffffffffffffffffffffffffffff1690602001909291908035906020019092919050505061226c565b60405180806020018060200187815260200180602001806020018060200186810386528c818151815260200191508051906020019080838360005b8381101561031f578082015181840152602081019050610304565b50505050905090810190601f16801561034c5780820380516001836020036101000a031916815260200191505b5086810385528b818151815260200191508051906020019080838360005b8381101561038557808201518184015260208101905061036a565b50505050905090810190601f1680156103b25780820380516001836020036101000a031916815260200191505b50868103845289818151815260200191508051906020019080838360005b838110156103eb5780820151818401526020810190506103d0565b50505050905090810190601f1680156104185780820380516001836020036101000a031916815260200191505b50868103835288818151815260200191508051906020019080838360005b83811015610451578082015181840152602081019050610436565b50505050905090810190601f16801561047e5780820380516001836020036101000a031916815260200191505b50868103825287818151815260200191508051906020019080838360005b838110156104b757808201518184015260208101905061049c565b50505050905090810190601f1680156104e45780820380516001836020036101000a031916815260200191505b509b50505050505050505050505060405180910390f35b34801561050757600080fd5b506105e16004803603604081101561051e57600080fd5b810190808035906020019064010000000081111561053b57600080fd5b82018360208201111561054d57600080fd5b8035906020019184600183028401116401000000008311171561056f57600080fd5b91908080601f016020809104026020016040519081016040528093929190818152602001838380828437600081840152601f19601f820116905080830192505050505050509192919290803573ffffffffffffffffffffffffffffffffffffffff1690602001909291905050506125ba565b005b3480156105ef57600080fd5b5061063c6004803603604081101561060657600080fd5b8101908080359060200190929190803573ffffffffffffffffffffffffffffffffffffffff1690602001909291905050506127e4565b6040518080602001828103825283818151815260200191508051906020019080838360005b8381101561067c578082015181840152602081019050610661565b50505050905090810190601f1680156106a95780820380516001836020036101000a031916815260200191505b509250505060405180910390f35b3480156106c357600080fd5b50610a03600480360360e08110156106da57600080fd5b81019080803573ffffffffffffffffffffffffffffffffffffffff1690602001909291908035906020019064010000000081111561071757600080fd5b82018360208201111561072957600080fd5b8035906020019184600183028401116401000000008311171561074b57600080fd5b91908080601f016020809104026020016040519081016040528093929190818152602001838380828437600081840152601f19601f820116905080830192505050505050509192919290803590602001906401000000008111156107ae57600080fd5b8201836020820111156107c057600080fd5b803590602001918460018302840111640100000000831117156107e257600080fd5b91908080601f016020809104026020016040519081016040528093929190818152602001838380828437600081840152601f19601f820116905080830192505050505050509192919290803590602001909291908035906020019064010000000081111561084f57600080fd5b82018360208201111561086157600080fd5b8035906020019184600183028401116401000000008311171561088357600080fd5b91908080601f016020809104026020016040519081016040528093929190818152602001838380828437600081840152601f19601f820116905080830192505050505050509192919290803590602001906401000000008111156108e657600080fd5b8201836020820111156108f857600080fd5b8035906020019184600183028401116401000000008311171561091a57600080fd5b91908080601f016020809104026020016040519081016040528093929190818152602001838380828437600081840152601f19601f8201169050808301925050505050505091929192908035906020019064010000000081111561097d57600080fd5b82018360208201111561098f57600080fd5b803590602001918460018302840111640100000000831117156109b157600080fd5b91908080601f016020809104026020016040519081016040528093929190818152602001838380828437600081840152601f19601f820116905080830192505050505050509192919290505050612ba3565b604051808060200180602001868152602001806020018060200185810385528a818151815260200191508051906020019080838360005b83811015610a55578082015181840152602081019050610a3a565b50505050905090810190601f168015610a825780820380516001836020036101000a031916815260200191505b50858103845289818151815260200191508051906020019080838360005b83811015610abb578082015181840152602081019050610aa0565b50505050905090810190601f168015610ae85780820380516001836020036101000a031916815260200191505b50858103835287818151815260200191508051906020019080838360005b83811015610b21578082015181840152602081019050610b06565b50505050905090810190601f168015610b4e5780820380516001836020036101000a031916815260200191505b50858103825286818151815260200191508051906020019080838360005b83811015610b87578082015181840152602081019050610b6c565b50505050905090810190601f168015610bb45780820380516001836020036101000a031916815260200191505b50995050505050505050505060405180910390f35b348015610bd557600080fd5b50610c1860048036036020811015610bec57600080fd5b81019080803573ffffffffffffffffffffffffffffffffffffffff169060200190929190505050613662565b6040518082815260200191505060405180910390f35b348015610c3a57600080fd5b50610c8760048036036040811015610c5157600080fd5b81019080803573ffffffffffffffffffffffffffffffffffffffff169060200190929190803590602001909291905050506136ae565b60405180806020018060200187815260200180602001806020018060200186810386528c818151815260200191508051906020019080838360005b83811015610cdd578082015181840152602081019050610cc2565b50505050905090810190601f168015610d0a5780820380516001836020036101000a031916815260200191505b5086810385528b818151815260200191508051906020019080838360005b83811015610d43578082015181840152602081019050610d28565b50505050905090810190601f168015610d705780820380516001836020036101000a031916815260200191505b50868103845289818151815260200191508051906020019080838360005b83811015610da9578082015181840152602081019050610d8e565b50505050905090810190601f168015610dd65780820380516001836020036101000a031916815260200191505b50868103835288818151815260200191508051906020019080838360005b83811015610e0f578082015181840152602081019050610df4565b50505050905090810190601f168015610e3c5780820380516001836020036101000a031916815260200191505b50868103825287818151815260200191508051906020019080838360005b83811015610e75578082015181840152602081019050610e5a565b50505050905090810190601f168015610ea25780820380516001836020036101000a031916815260200191505b509b50505050505050505050505060405180910390f35b348015610ec557600080fd5b50611205600480360360e0811015610edc57600080fd5b81019080803573ffffffffffffffffffffffffffffffffffffffff16906020019092919080359060200190640100000000811115610f1957600080fd5b820183602082011115610f2b57600080fd5b80359060200191846001830284011164010000000083111715610f4d57600080fd5b91908080601f016020809104026020016040519081016040528093929190818152602001838380828437600081840152601f19601f82011690508083019250505050505050919291929080359060200190640100000000811115610fb057600080fd5b820183602082011115610fc257600080fd5b80359060200191846001830284011164010000000083111715610fe457600080fd5b91908080601f016020809104026020016040519081016040528093929190818152602001838380828437600081840152601f19601f820116905080830192505050505050509192919290803590602001909291908035906020019064010000000081111561105157600080fd5b82018360208201111561106357600080fd5b8035906020019184600183028401116401000000008311171561108557600080fd5b91908080601f016020809104026020016040519081016040528093929190818152602001838380828437600081840152601f19601f820116905080830192505050505050509192919290803590602001906401000000008111156110e857600080fd5b8201836020820111156110fa57600080fd5b8035906020019184600183028401116401000000008311171561111c57600080fd5b91908080601f016020809104026020016040519081016040528093929190818152602001838380828437600081840152601f19601f8201169050808301925050505050505091929192908035906020019064010000000081111561117f57600080fd5b82018360208201111561119157600080fd5b803590602001918460018302840111640100000000831117156111b357600080fd5b91908080601f016020809104026020016040519081016040528093929190818152602001838380828437600081840152601f19601f8201169050808301925050505050505091929192905050506139fc565b604051808060200180602001868152602001806020018060200185810385528a818151815260200191508051906020019080838360005b8381101561125757808201518184015260208101905061123c565b50505050905090810190601f1680156112845780820380516001836020036101000a031916815260200191505b50858103845289818151815260200191508051906020019080838360005b838110156112bd5780820151818401526020810190506112a2565b50505050905090810190601f1680156112ea5780820380516001836020036101000a031916815260200191505b50858103835287818151815260200191508051906020019080838360005b83811015611323578082015181840152602081019050611308565b50505050905090810190601f1680156113505780820380516001836020036101000a031916815260200191505b50858103825286818151815260200191508051906020019080838360005b8381101561138957808201518184015260208101905061136e565b50505050905090810190601f1680156113b65780820380516001836020036101000a031916815260200191505b50995050505050505050505060405180910390f35b3480156113d757600080fd5b50611404600480360360208110156113ee57600080fd5b81019080803590602001909291905050506144bb565b604051808060200180602001806020018573ffffffffffffffffffffffffffffffffffffffff1673ffffffffffffffffffffffffffffffffffffffff168152602001848103845288818151815260200191508051906020019080838360005b8381101561147e578082015181840152602081019050611463565b50505050905090810190601f1680156114ab5780820380516001836020036101000a031916815260200191505b50848103835287818151815260200191508051906020019080838360005b838110156114e45780820151818401526020810190506114c9565b50505050905090810190601f1680156115115780820380516001836020036101000a031916815260200191505b50848103825286818151815260200191508051906020019080838360005b8381101561154a57808201518184015260208101905061152f565b50505050905090810190601f1680156115775780820380516001836020036101000a031916815260200191505b5097505050505050505060405180910390f35b34801561159657600080fd5b506115d9600480360360208110156115ad57600080fd5b81019080803573ffffffffffffffffffffffffffffffffffffffff16906020019092919050505061475f565b6040518082815260200191505060405180910390f35b3480156115fb57600080fd5b506116046147ab565b6040518082815260200191505060405180910390f35b34801561162657600080fd5b506116536004803603602081101561163d57600080fd5b81019080803590602001909291905050506147b8565b604051808060200180602001806020018573ffffffffffffffffffffffffffffffffffffffff1673ffffffffffffffffffffffffffffffffffffffff168152602001848103845288818151815260200191508051906020019080838360005b838110156116cd5780820151818401526020810190506116b2565b50505050905090810190601f1680156116fa5780820380516001836020036101000a031916815260200191505b50848103835287818151815260200191508051906020019080838360005b83811015611733578082015181840152602081019050611718565b50505050905090810190601f1680156117605780820380516001836020036101000a031916815260200191505b50848103825286818151815260200191508051906020019080838360005b8381101561179957808201518184015260208101905061177e565b50505050905090810190601f1680156117c65780820380516001836020036101000a031916815260200191505b5097505050505050505060405180910390f35b3480156117e557600080fd5b50611832600480360360408110156117fc57600080fd5b8101908080359060200190929190803573ffffffffffffffffffffffffffffffffffffffff1690602001909291905050506149dd565b604051808060200180602001868152602001806020018060200185810385528a818151815260200191508051906020019080838360005b83811015611884578082015181840152602081019050611869565b50505050905090810190601f1680156118b15780820380516001836020036101000a031916815260200191505b50858103845289818151815260200191508051906020019080838360005b838110156118ea5780820151818401526020810190506118cf565b50505050905090810190601f1680156119175780820380516001836020036101000a031916815260200191505b50858103835287818151815260200191508051906020019080838360005b83811015611950578082015181840152602081019050611935565b50505050905090810190601f16801561197d5780820380516001836020036101000a031916815260200191505b50858103825286818151815260200191508051906020019080838360005b838110156119b657808201518184015260208101905061199b565b50505050905090810190601f1680156119e35780820380516001836020036101000a031916815260200191505b50995050505050505050505060405180910390f35b611bff60048036036080811015611a0e57600080fd5b8101908080359060200190640100000000811115611a2b57600080fd5b820183602082011115611a3d57600080fd5b80359060200191846001830284011164010000000083111715611a5f57600080fd5b91908080601f016020809104026020016040519081016040528093929190818152602001838380828437600081840152601f19601f82011690508083019250505050505050919291929080359060200190640100000000811115611ac257600080fd5b820183602082011115611ad457600080fd5b80359060200191846001830284011164010000000083111715611af657600080fd5b91908080601f016020809104026020016040519081016040528093929190818152602001838380828437600081840152601f19601f82011690508083019250505050505050919291929080359060200190640100000000811115611b5957600080fd5b820183602082011115611b6b57600080fd5b80359060200191846001830284011164010000000083111715611b8d57600080fd5b91908080601f016020809104026020016040519081016040528093929190818152602001838380828437600081840152601f19601f820116905080830192505050505050509192919290803573ffffffffffffffffffffffffffffffffffffffff169060200190929190505050614dce565b604051808060200180602001806020018573ffffffffffffffffffffffffffffffffffffffff1673ffffffffffffffffffffffffffffffffffffffff168152602001848103845288818151815260200191508051906020019080838360005b83811015611c79578082015181840152602081019050611c5e565b50505050905090810190601f168015611ca65780820380516001836020036101000a031916815260200191505b50848103835287818151815260200191508051906020019080838360005b83811015611cdf578082015181840152602081019050611cc4565b50505050905090810190601f168015611d0c5780820380516001836020036101000a031916815260200191505b50848103825286818151815260200191508051906020019080838360005b83811015611d45578082015181840152602081019050611d2a565b50505050905090810190601f168015611d725780820380516001836020036101000a031916815260200191505b5097505050505050505060405180910390f35b348015611d9157600080fd5b50611dde60048036036040811015611da857600080fd5b8101908080359060200190929190803573ffffffffffffffffffffffffffffffffffffffff1690602001909291905050506151ff565b604051808060200180602001868152602001806020018060200185810385528a818151815260200191508051906020019080838360005b83811015611e30578082015181840152602081019050611e15565b50505050905090810190601f168015611e5d5780820380516001836020036101000a031916815260200191505b50858103845289818151815260200191508051906020019080838360005b83811015611e96578082015181840152602081019050611e7b565b50505050905090810190601f168015611ec35780820380516001836020036101000a031916815260200191505b50858103835287818151815260200191508051906020019080838360005b83811015611efc578082015181840152602081019050611ee1565b50505050905090810190601f168015611f295780820380516001836020036101000a031916815260200191505b50858103825286818151815260200191508051906020019080838360005b83811015611f62578082015181840152602081019050611f47565b50505050905090810190601f168015611f8f5780820380516001836020036101000a031916815260200191505b50995050505050505050505060405180910390f35b60008054600181600116156101000203166002900480601f01602080910402602001604051908101604052809291908181526020018280546001816001161561010002031660029004801561203a5780601f1061200f5761010080835404028352916020019161203a565b820191906000526020600020905b81548152906001019060200180831161201d57829003601f168201915b505050505081565b6000600160008373ffffffffffffffffffffffffffffffffffffffff1673ffffffffffffffffffffffffffffffffffffffff168152602001908152602001600020905060008090505b818054905081101561226657836040516020018082805190602001908083835b602083106120ce57805182526020820191506020810190506020830392506120ab565b6001836020036101000a0380198251168184511680821785525050505050509050019150506040516020818303038152906040528051906020012082828154811061211557fe5b906000526020600020906006020160000160405160200180828054600181600116156101000203166002900480156121845780601f10612162576101008083540402835291820191612184565b820191906000526020600020905b815481529060010190602001808311612170575b505091505060405160208183030381529060405280519060200120141561225957600160008473ffffffffffffffffffffffffffffffffffffffff1673ffffffffffffffffffffffffffffffffffffffff16815260200190815260200160002081815481106121ef57fe5b90600052602060002090600602016000808201600061220e91906155f0565b60018201600061221e91906155f0565b600282016000905560038201600061223691906155f0565b60048201600061224691906155f0565b60058201600061225691906155f0565b50505b808060010191505061208b565b50505050565b6002602052816000526040600020818154811061228557fe5b906000526020600020906006020160009150915050806000018054600181600116156101000203166002900480601f0160208091040260200160405190810160405280929190818152602001828054600181600116156101000203166002900480156123325780601f1061230757610100808354040283529160200191612332565b820191906000526020600020905b81548152906001019060200180831161231557829003601f168201915b505050505090806001018054600181600116156101000203166002900480601f0160208091040260200160405190810160405280929190818152602001828054600181600116156101000203166002900480156123d05780601f106123a5576101008083540402835291602001916123d0565b820191906000526020600020905b8154815290600101906020018083116123b357829003601f168201915b505050505090806002015490806003018054600181600116156101000203166002900480601f0160208091040260200160405190810160405280929190818152602001828054600181600116156101000203166002900480156124745780601f1061244957610100808354040283529160200191612474565b820191906000526020600020905b81548152906001019060200180831161245757829003601f168201915b505050505090806004018054600181600116156101000203166002900480601f0160208091040260200160405190810160405280929190818152602001828054600181600116156101000203166002900480156125125780601f106124e757610100808354040283529160200191612512565b820191906000526020600020905b8154815290600101906020018083116124f557829003601f168201915b505050505090806005018054600181600116156101000203166002900480601f0160208091040260200160405190810160405280929190818152602001828054600181600116156101000203166002900480156125b05780601f10612585576101008083540402835291602001916125b0565b820191906000526020600020905b81548152906001019060200180831161259357829003601f168201915b5050505050905086565b6000600260008373ffffffffffffffffffffffffffffffffffffffff1673ffffffffffffffffffffffffffffffffffffffff168152602001908152602001600020905060008090505b81805490508110156127de57836040516020018082805190602001908083835b602083106126465780518252602082019150602081019050602083039250612623565b6001836020036101000a0380198251168184511680821785525050505050509050019150506040516020818303038152906040528051906020012082828154811061268d57fe5b906000526020600020906006020160000160405160200180828054600181600116156101000203166002900480156126fc5780601f106126da5761010080835404028352918201916126fc565b820191906000526020600020905b8154815290600101906020018083116126e8575b50509150506040516020818303038152906040528051906020012014156127d157600260008473ffffffffffffffffffffffffffffffffffffffff1673ffffffffffffffffffffffffffffffffffffffff168152602001908152602001600020818154811061276757fe5b90600052602060002090600602016000808201600061278691906155f0565b60018201600061279691906155f0565b60028201600090556003820160006127ae91906155f0565b6004820160006127be91906155f0565b6005820160006127ce91906155f0565b50505b8080600101915050612603565b50505050565b606060008310156127f457600080fd5b6127fc615638565b600160008473ffffffffffffffffffffffffffffffffffffffff1673ffffffffffffffffffffffffffffffffffffffff168152602001908152602001600020848154811061284657fe5b90600052602060002090600602016040518060c0016040529081600082018054600181600116156101000203166002900480601f0160208091040260200160405190810160405280929190818152602001828054600181600116156101000203166002900480156128f85780601f106128cd576101008083540402835291602001916128f8565b820191906000526020600020905b8154815290600101906020018083116128db57829003601f168201915b50505050508152602001600182018054600181600116156101000203166002900480601f01602080910402602001604051908101604052809291908181526020018280546001816001161561010002031660029004801561299a5780601f1061296f5761010080835404028352916020019161299a565b820191906000526020600020905b81548152906001019060200180831161297d57829003601f168201915b5050505050815260200160028201548152602001600382018054600181600116156101000203166002900480601f016020809104026020016040519081016040528092919081815260200182805460018160011615610100020316600290048015612a465780601f10612a1b57610100808354040283529160200191612a46565b820191906000526020600020905b815481529060010190602001808311612a2957829003601f168201915b50505050508152602001600482018054600181600116156101000203166002900480601f016020809104026020016040519081016040528092919081815260200182805460018160011615610100020316600290048015612ae85780601f10612abd57610100808354040283529160200191612ae8565b820191906000526020600020905b815481529060010190602001808311612acb57829003601f168201915b50505050508152602001600582018054600181600116156101000203166002900480601f016020809104026020016040519081016040528092919081815260200182805460018160011615610100020316600290048015612b8a5780601f10612b5f57610100808354040283529160200191612b8a565b820191906000526020600020905b815481529060010190602001808311612b6d57829003601f168201915b50505050508152505090508060a0015191505092915050565b606080600060608060008a5111612c22576040517f08c379a00000000000000000000000000000000000000000000000000000000081526004018080602001828103825260118152602001807f496e76616c69642046696c65204861736800000000000000000000000000000081525060200191505060405180910390fd5b60008b5111612c99576040517f08c379a000000000000000000000000000000000000000000000000000000000815260040180806020018281038252600f8152602001807f496e76616c69642046696c65204944000000000000000000000000000000000081525060200191505060405180910390fd5b6000885111612d10576040517f08c379a00000000000000000000000000000000000000000000000000000000081526004018080602001828103825260118152602001807f496e76616c69642046696c65205479706500000000000000000000000000000081525060200191505060405180910390fd5b6000875111612d87576040517f08c379a00000000000000000000000000000000000000000000000000000000081526004018080602001828103825260148152602001807f496e76616c69642053657276696365204e616d6500000000000000000000000081525060200191505060405180910390fd5b600073ffffffffffffffffffffffffffffffffffffffff168c73ffffffffffffffffffffffffffffffffffffffff161415612e2a576040517f08c379a00000000000000000000000000000000000000000000000000000000081526004018080602001828103825260188152602001807f496e76616c69642072656365697665722061646472657373000000000000000081525060200191505060405180910390fd5b60008911612ea0576040517f08c379a00000000000000000000000000000000000000000000000000000000081526004018080602001828103825260118152602001807f496e76616c69642046696c652053697a6500000000000000000000000000000081525060200191505060405180910390fd5b6000865111612f17576040517f08c379a00000000000000000000000000000000000000000000000000000000081526004018080602001828103825260108152602001807f496e76616c6964206b65792073697a650000000000000000000000000000000081525060200191505060405180910390fd5b600260008d73ffffffffffffffffffffffffffffffffffffffff1673ffffffffffffffffffffffffffffffffffffffff1681526020019081526020016000206040518060c001604052808d81526020018c81526020018b81526020018a815260200189815260200188815250908060018154018082558091505090600182039060005260206000209060060201600090919290919091506000820151816000019080519060200190612fca92919061566e565b506020820151816001019080519060200190612fe792919061566e565b5060408201518160020155606082015181600301908051906020019061300e92919061566e565b50608082015181600401908051906020019061302b92919061566e565b5060a082015181600501908051906020019061304892919061566e565b505050507fdcf19138bd66f143093fd047c06fc111cf1d25a3ef10b9f3c6062581853e2a288b8b8b8b8b604051808060200180602001868152602001806020018060200185810385528a818151815260200191508051906020019080838360005b838110156130c45780820151818401526020810190506130a9565b50505050905090810190601f1680156130f15780820380516001836020036101000a031916815260200191505b50858103845289818151815260200191508051906020019080838360005b8381101561312a57808201518184015260208101905061310f565b50505050905090810190601f1680156131575780820380516001836020036101000a031916815260200191505b50858103835287818151815260200191508051906020019080838360005b83811015613190578082015181840152602081019050613175565b50505050905090810190601f1680156131bd5780820380516001836020036101000a031916815260200191505b50858103825286818151815260200191508051906020019080838360005b838110156131f65780820151818401526020810190506131db565b50505050905090810190601f1680156132235780820380516001836020036101000a031916815260200191505b50995050505050505050505060405180910390a16000600260008e73ffffffffffffffffffffffffffffffffffffffff1673ffffffffffffffffffffffffffffffffffffffff168152602001908152602001600020805490509050613286615638565b600260008f73ffffffffffffffffffffffffffffffffffffffff1673ffffffffffffffffffffffffffffffffffffffff16815260200190815260200160002060018303815481106132d357fe5b90600052602060002090600602016040518060c0016040529081600082018054600181600116156101000203166002900480601f0160208091040260200160405190810160405280929190818152602001828054600181600116156101000203166002900480156133855780601f1061335a57610100808354040283529160200191613385565b820191906000526020600020905b81548152906001019060200180831161336857829003601f168201915b50505050508152602001600182018054600181600116156101000203166002900480601f0160208091040260200160405190810160405280929190818152602001828054600181600116156101000203166002900480156134275780601f106133fc57610100808354040283529160200191613427565b820191906000526020600020905b81548152906001019060200180831161340a57829003601f168201915b5050505050815260200160028201548152602001600382018054600181600116156101000203166002900480601f0160208091040260200160405190810160405280929190818152602001828054600181600116156101000203166002900480156134d35780601f106134a8576101008083540402835291602001916134d3565b820191906000526020600020905b8154815290600101906020018083116134b657829003601f168201915b50505050508152602001600482018054600181600116156101000203166002900480601f0160208091040260200160405190810160405280929190818152602001828054600181600116156101000203166002900480156135755780601f1061354a57610100808354040283529160200191613575565b820191906000526020600020905b81548152906001019060200180831161355857829003601f168201915b50505050508152602001600582018054600181600116156101000203166002900480601f0160208091040260200160405190810160405280929190818152602001828054600181600116156101000203166002900480156136175780601f106135ec57610100808354040283529160200191613617565b820191906000526020600020905b8154815290600101906020018083116135fa57829003601f168201915b50505050508152505090508060000151816020015182604001518360600151846080015184945083935081915080905096509650965096509650505097509750975097509792505050565b6000600160008373ffffffffffffffffffffffffffffffffffffffff1673ffffffffffffffffffffffffffffffffffffffff168152602001908152602001600020805490509050919050565b600160205281600052604060002081815481106136c757fe5b906000526020600020906006020160009150915050806000018054600181600116156101000203166002900480601f0160208091040260200160405190810160405280929190818152602001828054600181600116156101000203166002900480156137745780601f1061374957610100808354040283529160200191613774565b820191906000526020600020905b81548152906001019060200180831161375757829003601f168201915b505050505090806001018054600181600116156101000203166002900480601f0160208091040260200160405190810160405280929190818152602001828054600181600116156101000203166002900480156138125780601f106137e757610100808354040283529160200191613812565b820191906000526020600020905b8154815290600101906020018083116137f557829003601f168201915b505050505090806002015490806003018054600181600116156101000203166002900480601f0160208091040260200160405190810160405280929190818152602001828054600181600116156101000203166002900480156138b65780601f1061388b576101008083540402835291602001916138b6565b820191906000526020600020905b81548152906001019060200180831161389957829003601f168201915b505050505090806004018054600181600116156101000203166002900480601f0160208091040260200160405190810160405280929190818152602001828054600181600116156101000203166002900480156139545780601f1061392957610100808354040283529160200191613954565b820191906000526020600020905b81548152906001019060200180831161393757829003601f168201915b505050505090806005018054600181600116156101000203166002900480601f0160208091040260200160405190810160405280929190818152602001828054600181600116156101000203166002900480156139f25780601f106139c7576101008083540402835291602001916139f2565b820191906000526020600020905b8154815290600101906020018083116139d557829003601f168201915b5050505050905086565b606080600060608060008a5111613a7b576040517f08c379a00000000000000000000000000000000000000000000000000000000081526004018080602001828103825260118152602001807f496e76616c69642046696c65204861736800000000000000000000000000000081525060200191505060405180910390fd5b60008b5111613af2576040517f08c379a000000000000000000000000000000000000000000000000000000000815260040180806020018281038252600f8152602001807f496e76616c69642046696c65204944000000000000000000000000000000000081525060200191505060405180910390fd5b6000885111613b69576040517f08c379a00000000000000000000000000000000000000000000000000000000081526004018080602001828103825260118152602001807f496e76616c69642046696c65205479706500000000000000000000000000000081525060200191505060405180910390fd5b6000875111613be0576040517f08c379a00000000000000000000000000000000000000000000000000000000081526004018080602001828103825260148152602001807f496e76616c69642053657276696365204e616d6500000000000000000000000081525060200191505060405180910390fd5b600073ffffffffffffffffffffffffffffffffffffffff168c73ffffffffffffffffffffffffffffffffffffffff161415613c83576040517f08c379a000000000000000000000000000000000000000000000000000000000815260040180806020018281038252600f8152602001807f496e76616c69642061646472657373000000000000000000000000000000000081525060200191505060405180910390fd5b60008911613cf9576040517f08c379a00000000000000000000000000000000000000000000000000000000081526004018080602001828103825260118152602001807f496e76616c69642046696c652053697a6500000000000000000000000000000081525060200191505060405180910390fd5b6000865111613d70576040517f08c379a00000000000000000000000000000000000000000000000000000000081526004018080602001828103825260108152602001807f496e76616c6964206b65792073697a650000000000000000000000000000000081525060200191505060405180910390fd5b600160008d73ffffffffffffffffffffffffffffffffffffffff1673ffffffffffffffffffffffffffffffffffffffff1681526020019081526020016000206040518060c001604052808d81526020018c81526020018b81526020018a815260200189815260200188815250908060018154018082558091505090600182039060005260206000209060060201600090919290919091506000820151816000019080519060200190613e2392919061566e565b506020820151816001019080519060200190613e4092919061566e565b50604082015181600201556060820151816003019080519060200190613e6792919061566e565b506080820151816004019080519060200190613e8492919061566e565b5060a0820151816005019080519060200190613ea192919061566e565b505050507fd5a0ff32a687d2589866b85f64fb1bae6d547a1adcc2eaf6f3721dfcfebb5b328b8b8b8b8b604051808060200180602001868152602001806020018060200185810385528a818151815260200191508051906020019080838360005b83811015613f1d578082015181840152602081019050613f02565b50505050905090810190601f168015613f4a5780820380516001836020036101000a031916815260200191505b50858103845289818151815260200191508051906020019080838360005b83811015613f83578082015181840152602081019050613f68565b50505050905090810190601f168015613fb05780820380516001836020036101000a031916815260200191505b50858103835287818151815260200191508051906020019080838360005b83811015613fe9578082015181840152602081019050613fce565b50505050905090810190601f1680156140165780820380516001836020036101000a031916815260200191505b50858103825286818151815260200191508051906020019080838360005b8381101561404f578082015181840152602081019050614034565b50505050905090810190601f16801561407c5780820380516001836020036101000a031916815260200191505b50995050505050505050505060405180910390a16000600160008e73ffffffffffffffffffffffffffffffffffffffff1673ffffffffffffffffffffffffffffffffffffffff1681526020019081526020016000208054905090506140df615638565b600160008f73ffffffffffffffffffffffffffffffffffffffff1673ffffffffffffffffffffffffffffffffffffffff168152602001908152602001600020600183038154811061412c57fe5b90600052602060002090600602016040518060c0016040529081600082018054600181600116156101000203166002900480601f0160208091040260200160405190810160405280929190818152602001828054600181600116156101000203166002900480156141de5780601f106141b3576101008083540402835291602001916141de565b820191906000526020600020905b8154815290600101906020018083116141c157829003601f168201915b50505050508152602001600182018054600181600116156101000203166002900480601f0160208091040260200160405190810160405280929190818152602001828054600181600116156101000203166002900480156142805780601f1061425557610100808354040283529160200191614280565b820191906000526020600020905b81548152906001019060200180831161426357829003601f168201915b5050505050815260200160028201548152602001600382018054600181600116156101000203166002900480601f01602080910402602001604051908101604052809291908181526020018280546001816001161561010002031660029004801561432c5780601f106143015761010080835404028352916020019161432c565b820191906000526020600020905b81548152906001019060200180831161430f57829003601f168201915b50505050508152602001600482018054600181600116156101000203166002900480601f0160208091040260200160405190810160405280929190818152602001828054600181600116156101000203166002900480156143ce5780601f106143a3576101008083540402835291602001916143ce565b820191906000526020600020905b8154815290600101906020018083116143b157829003601f168201915b50505050508152602001600582018054600181600116156101000203166002900480601f0160208091040260200160405190810160405280929190818152602001828054600181600116156101000203166002900480156144705780601f1061444557610100808354040283529160200191614470565b820191906000526020600020905b81548152906001019060200180831161445357829003601f168201915b50505050508152505090508060000151816020015182604001518360600151846080015184945083935081915080905096509650965096509650505097509750975097509792505050565b60608060606000808510156144cf57600080fd5b6144d76156ee565b600386815481106144e457fe5b9060005260206000209060040201604051806080016040529081600082018054600181600116156101000203166002900480601f0160208091040260200160405190810160405280929190818152602001828054600181600116156101000203166002900480156145965780601f1061456b57610100808354040283529160200191614596565b820191906000526020600020905b81548152906001019060200180831161457957829003601f168201915b50505050508152602001600182018054600181600116156101000203166002900480601f0160208091040260200160405190810160405280929190818152602001828054600181600116156101000203166002900480156146385780601f1061460d57610100808354040283529160200191614638565b820191906000526020600020905b81548152906001019060200180831161461b57829003601f168201915b50505050508152602001600282018054600181600116156101000203166002900480601f0160208091040260200160405190810160405280929190818152602001828054600181600116156101000203166002900480156146da5780601f106146af576101008083540402835291602001916146da565b820191906000526020600020905b8154815290600101906020018083116146bd57829003601f168201915b505050505081526020016003820160009054906101000a900473ffffffffffffffffffffffffffffffffffffffff1673ffffffffffffffffffffffffffffffffffffffff1673ffffffffffffffffffffffffffffffffffffffff1681525050905080600001519450806020015193508060400151925080606001519150509193509193565b6000600260008373ffffffffffffffffffffffffffffffffffffffff1673ffffffffffffffffffffffffffffffffffffffff168152602001908152602001600020805490509050919050565b6000600380549050905090565b600381815481106147c557fe5b9060005260206000209060040201600091509050806000018054600181600116156101000203166002900480601f0160208091040260200160405190810160405280929190818152602001828054600181600116156101000203166002900480156148715780601f1061484657610100808354040283529160200191614871565b820191906000526020600020905b81548152906001019060200180831161485457829003601f168201915b505050505090806001018054600181600116156101000203166002900480601f01602080910402602001604051908101604052809291908181526020018280546001816001161561010002031660029004801561490f5780601f106148e45761010080835404028352916020019161490f565b820191906000526020600020905b8154815290600101906020018083116148f257829003601f168201915b505050505090806002018054600181600116156101000203166002900480601f0160208091040260200160405190810160405280929190818152602001828054600181600116156101000203166002900480156149ad5780601f10614982576101008083540402835291602001916149ad565b820191906000526020600020905b81548152906001019060200180831161499057829003601f168201915b5050505050908060030160009054906101000a900473ffffffffffffffffffffffffffffffffffffffff16905084565b606080600060608060008710156149f357600080fd5b6149fb615638565b600260008873ffffffffffffffffffffffffffffffffffffffff1673ffffffffffffffffffffffffffffffffffffffff1681526020019081526020016000208881548110614a4557fe5b90600052602060002090600602016040518060c0016040529081600082018054600181600116156101000203166002900480601f016020809104026020016040519081016040528092919081815260200182805460018160011615610100020316600290048015614af75780601f10614acc57610100808354040283529160200191614af7565b820191906000526020600020905b815481529060010190602001808311614ada57829003601f168201915b50505050508152602001600182018054600181600116156101000203166002900480601f016020809104026020016040519081016040528092919081815260200182805460018160011615610100020316600290048015614b995780601f10614b6e57610100808354040283529160200191614b99565b820191906000526020600020905b815481529060010190602001808311614b7c57829003601f168201915b5050505050815260200160028201548152602001600382018054600181600116156101000203166002900480601f016020809104026020016040519081016040528092919081815260200182805460018160011615610100020316600290048015614c455780601f10614c1a57610100808354040283529160200191614c45565b820191906000526020600020905b815481529060010190602001808311614c2857829003601f168201915b50505050508152602001600482018054600181600116156101000203166002900480601f016020809104026020016040519081016040528092919081815260200182805460018160011615610100020316600290048015614ce75780601f10614cbc57610100808354040283529160200191614ce7565b820191906000526020600020905b815481529060010190602001808311614cca57829003601f168201915b50505050508152602001600582018054600181600116156101000203166002900480601f016020809104026020016040519081016040528092919081815260200182805460018160011615610100020316600290048015614d895780601f10614d5e57610100808354040283529160200191614d89565b820191906000526020600020905b815481529060010190602001808311614d6c57829003601f168201915b50505050508152505090508060000151816020015182604001518360600151846080015184945083935081915080905095509550955095509550509295509295909350565b6060806060600080885111614e4b576040517f08c379a00000000000000000000000000000000000000000000000000000000081526004018080602001828103825260148152602001807f496e76616c69642053657276696365204e616d6500000000000000000000000081525060200191505060405180910390fd5b6000875111614ec2576040517f08c379a00000000000000000000000000000000000000000000000000000000081526004018080602001828103825260128152602001807f496e76616c6964204669727374204e616d65000000000000000000000000000081525060200191505060405180910390fd5b6000865111614f39576040517f08c379a00000000000000000000000000000000000000000000000000000000081526004018080602001828103825260118152602001807f496e76616c6964204c617374204e616d6500000000000000000000000000000081525060200191505060405180910390fd5b600360405180608001604052808a81526020018981526020018881526020018773ffffffffffffffffffffffffffffffffffffffff16815250908060018154018082558091505090600182039060005260206000209060040201600090919290919091506000820151816000019080519060200190614fb992919061566e565b506020820151816001019080519060200190614fd692919061566e565b506040820151816002019080519060200190614ff392919061566e565b5060608201518160030160006101000a81548173ffffffffffffffffffffffffffffffffffffffff021916908373ffffffffffffffffffffffffffffffffffffffff1602179055505050508793508692508591508490507f41a65d6cb7688ab168696b1f4181ebba2c0fc872e2e644063051ca6b9ef1091888888888604051808060200180602001806020018573ffffffffffffffffffffffffffffffffffffffff1673ffffffffffffffffffffffffffffffffffffffff168152602001848103845288818151815260200191508051906020019080838360005b838110156150e95780820151818401526020810190506150ce565b50505050905090810190601f1680156151165780820380516001836020036101000a031916815260200191505b50848103835287818151815260200191508051906020019080838360005b8381101561514f578082015181840152602081019050615134565b50505050905090810190601f16801561517c5780820380516001836020036101000a031916815260200191505b50848103825286818151815260200191508051906020019080838360005b838110156151b557808201518184015260208101905061519a565b50505050905090810190601f1680156151e25780820380516001836020036101000a031916815260200191505b5097505050505050505060405180910390a1945094509450949050565b6060806000606080600087101561521557600080fd5b61521d615638565b600160008873ffffffffffffffffffffffffffffffffffffffff1673ffffffffffffffffffffffffffffffffffffffff168152602001908152602001600020888154811061526757fe5b90600052602060002090600602016040518060c0016040529081600082018054600181600116156101000203166002900480601f0160208091040260200160405190810160405280929190818152602001828054600181600116156101000203166002900480156153195780601f106152ee57610100808354040283529160200191615319565b820191906000526020600020905b8154815290600101906020018083116152fc57829003601f168201915b50505050508152602001600182018054600181600116156101000203166002900480601f0160208091040260200160405190810160405280929190818152602001828054600181600116156101000203166002900480156153bb5780601f10615390576101008083540402835291602001916153bb565b820191906000526020600020905b81548152906001019060200180831161539e57829003601f168201915b5050505050815260200160028201548152602001600382018054600181600116156101000203166002900480601f0160208091040260200160405190810160405280929190818152602001828054600181600116156101000203166002900480156154675780601f1061543c57610100808354040283529160200191615467565b820191906000526020600020905b81548152906001019060200180831161544a57829003601f168201915b50505050508152602001600482018054600181600116156101000203166002900480601f0160208091040260200160405190810160405280929190818152602001828054600181600116156101000203166002900480156155095780601f106154de57610100808354040283529160200191615509565b820191906000526020600020905b8154815290600101906020018083116154ec57829003601f168201915b50505050508152602001600582018054600181600116156101000203166002900480601f0160208091040260200160405190810160405280929190818152602001828054600181600116156101000203166002900480156155ab5780601f10615580576101008083540402835291602001916155ab565b820191906000526020600020905b81548152906001019060200180831161558e57829003601f168201915b50505050508152505090508060000151816020015182604001518360600151846080015184945083935081915080905095509550955095509550509295509295909350565b50805460018160011615610100020316600290046000825580601f106156165750615635565b601f016020900490600052602060002090810190615634919061572c565b5b50565b6040518060c001604052806060815260200160608152602001600081526020016060815260200160608152602001606081525090565b828054600181600116156101000203166002900490600052602060002090601f016020900481019282601f106156af57805160ff19168380011785556156dd565b828001600101855582156156dd579182015b828111156156dc5782518255916020019190600101906156c1565b5b5090506156ea919061572c565b5090565b6040518060800160405280606081526020016060815260200160608152602001600073ffffffffffffffffffffffffffffffffffffffff1681525090565b61574e91905b8082111561574a576000816000905550600101615732565b5090565b9056fea265627a7a72315820b4bce4b991f3801f7eb0e4c906f3faa681063d84a5dba7dcbf7e159884e04f0264736f6c63430005110032",
  "source": "pragma solidity ^0.5.3;\n\ncontract Doc2eth{\n    \n    string public name = 'Doc2eth';\n\n    //File structure attributes\n    struct File {\n        string fileId;\n        string fileHash;\n        uint fileSize;\n        string fileType;\n        string fileName;\n        string key;\n        \n        \n        \n    }\n\n    struct User{\n      string service;\n      string firstname;\n      string lastname;\n      address userwallet;\n\n    }\n\n\n    //get all the current user files hashes that have been uploaded by the current user\n    mapping(address => File[]) public users;\n    // get all shared files hashes that have been shared to the current user\n    mapping(address => File[]) public shares;\n\n\n    // all users \n    User[] public allUsers;\n      //envent on file upload action\n\n     event FileUploaded(\n        string fileId,\n        string fileHash,\n        uint fileSize,\n        string fileType,\n        string fileName\n        \n  );\n      //event on file sharing action\n       event FileShareUploaded(\n        string fileId,\n        string fileHash,\n        uint fileSize,\n        string fileType,\n        string fileName\n        \n  );\n        event UserAdded(\n        string service,\n        string firstname,\n        string lastname,\n        address userwallet\n  );\n  \n  constructor() public {\n  }\n  //add new user info\n  function addUser(string memory _service,string memory _firstname,string memory _lastname,address _userwallet) public payable returns(string memory userservice,string memory ufirstname,string memory ulastname,address uaddress) {\n    require(bytes(_service).length > 0,\"Invalid Service Name\");\n    require(bytes(_firstname).length > 0,\"Invalid First Name\");\n    require(bytes(_lastname).length > 0,\"Invalid Last Name\");\n          \n    allUsers.push(User(_service,_firstname,_lastname,_userwallet));\n    userservice=_service;\n    ufirstname=_firstname;\n    ulastname=_lastname;\n    uaddress=_userwallet;\n\n    emit UserAdded(_service,_firstname,_lastname,_userwallet);\n    \n  }\n\n   function getCountusers() public view returns(uint){\n      \n    return allUsers.length;\n  }\n  //get all user info by index\n  function getAllUserInfo(uint _index) public view returns\n  (string memory userservice,string memory ufirstname,string memory ulastname,address uaddress) {\n      \n\n      require(_index>=0);\n      User memory tmp = allUsers[_index];\n      userservice=tmp.service;\n      ufirstname=tmp.firstname;\n      ulastname=tmp.lastname;\n      uaddress=tmp.userwallet;\n        \n  }\n \n\n   // function of uplading a file  \n  function uploadFile(address _address,string memory _fileId,string memory _fileHash, uint _fileSize, string memory _fileType, string memory _fileName,string memory _key) public returns(string memory,string memory,uint, string memory,string memory) {\n\n    require(bytes(_fileHash).length > 0,\"Invalid File Hash\");\n    require(bytes(_fileId).length > 0,\"Invalid File ID\");\n    require(bytes(_fileType).length > 0,\"Invalid File Type\");\n    require(bytes(_fileName).length > 0,\"Invalid Service Name\");\n    require(_address != address(0),\"Invalid address\");\n    require(_fileSize>0,\"Invalid File Size\");\n    require(bytes(_key).length > 0,\"Invalid key size\");\n    //require(bytes(_iv).length > 0,\"Invalid key size\");\n    \n    users[_address].push(File(_fileId,_fileHash, _fileSize, _fileType, _fileName,_key));\n    \n\n    emit FileUploaded(_fileId,_fileHash, _fileSize, _fileType, _fileName);\n\n\n    uint length = users[_address].length;\n\n    File memory file = users[_address][length-1];\n      \n    return (file.fileId,file.fileHash,file.fileSize,file.fileType,file.fileName);\n  }\n  \n  function getCount(address _address) public view returns(uint){\n      \n    return users[_address].length;\n  }\n  //return files of current user\n\n  function getFilesofUser(uint _index, address _address)\n  public view returns(string memory,string memory,uint, string memory,string memory) {\n      \n      \n      require(_index>=0);\n      \n      File memory file = users[_address][_index];\n      \n      return (file.fileId,file.fileHash,file.fileSize,file.fileType,file.fileName);\n    \n  }\n  function getFilekey(uint _index, address _address)\n  public view returns(string memory) {\n      \n      \n      require(_index>=0);\n      \n      File memory file = users[_address][_index];\n      \n      return file.key;\n    \n  }\n\n\n\n    //remove file hash from the blockchain\n    function removeHash(string memory _fileId, address _address) public {\n      \n         File[] storage f = users[_address];\n  \n         for (uint i = 0; i < f.length; i++) {\n             if (keccak256(abi.encodePacked(f[i].fileId)) == keccak256(abi.encodePacked(_fileId))) {\n              \n               delete users[_address][i];\n                 \n             }\n             \n         }\n  }\n  //share file\n  function uploadShareFile(address _to,string memory _fileId,string memory _fileHash, uint _fileSize, string memory _fileType, string memory _fileName,string memory _key) public returns(string memory,string memory,uint, string memory,string memory) {\n\n    require(bytes(_fileHash).length > 0,\"Invalid File Hash\");\n    require(bytes(_fileId).length > 0,\"Invalid File ID\");\n    require(bytes(_fileType).length > 0,\"Invalid File Type\");\n    require(bytes(_fileName).length > 0,\"Invalid Service Name\");\n    require(_to!=address(0),\"Invalid receiver address\");\n    require(_fileSize>0,\"Invalid File Size\");\n    require(bytes(_key).length > 0,\"Invalid key size\");\n    //require(bytes(_iv).length > 0,\"Invalid key size\");\n    \n    shares[_to].push(File(_fileId,_fileHash, _fileSize, _fileType, _fileName,_key));\n\n\n    emit FileShareUploaded(_fileId,_fileHash, _fileSize, _fileType, _fileName);\n\n\n    uint length = shares[_to].length;\n\n    File memory file = shares[_to][length-1];\n      \n    return (file.fileId,file.fileHash,file.fileSize,file.fileType,file.fileName);\n  }\n\n  //get the number of shared files\n\n  function getShareCount(address _address) public view returns(uint){\n      \n    return shares[_address].length;\n  }\n  \n  function getShareFilesofUser(uint _index,address _address) public view returns(string memory,string memory,uint, string memory,string memory) {\n      \n      \n      require(_index>=0);\n      \n      File memory file = shares[_address][_index];\n      \n      return (file.fileId,file.fileHash,file.fileSize,file.fileType,file.fileName);\n    \n  }\n    // remove hash of a shred files for current user in the blockchain\n  function removeShareHash(string memory _fileId,address _address) public {\n      \n         File[] storage f = shares[_address];\n  \n         for (uint i = 0; i < f.length; i++) {\n             if (keccak256(abi.encodePacked(f[i].fileId)) == keccak256(abi.encodePacked(_fileId))) {\n              \n               delete shares[_address][i];\n                 \n             }\n             \n         }\n  }\n\n    \n}",
  "sourcePath": "D:/WorkSpaces/Pfe/ETBSSI/contracts/Doc2eth.sol",
  "compiler": {
    "name": "solc",
    "version": "0.5.17+commit.d19bba13.Emscripten.clang"
  },
  "schemaVersion": "3.3.4",
  "updatedAt": "2021-06-11T13:53:49.150Z",
  "networkType": "ethereum",
  "devdoc": {
    "methods": {}
  },
  "userdoc": {
    "methods": {}
  }
}