{
  "contractName": "Doc2eth",
  "abi": [
    {
      "inputs": [],
      "payable": false,
      "stateMutability": "nonpayable",
      "type": "constructor"
    },
    {
      "anonymous": false,
      "inputs": [
        {
          "indexed": false,
          "internalType": "string",
          "name": "fileId",
          "type": "string"
        },
        {
          "indexed": false,
          "internalType": "string",
          "name": "fileHash",
          "type": "string"
        },
        {
          "indexed": false,
          "internalType": "uint256",
          "name": "fileSize",
          "type": "uint256"
        },
        {
          "indexed": false,
          "internalType": "string",
          "name": "fileType",
          "type": "string"
        },
        {
          "indexed": false,
          "internalType": "string",
          "name": "fileName",
          "type": "string"
        }
      ],
      "name": "FileShareUploaded",
      "type": "event"
    },
    {
      "anonymous": false,
      "inputs": [
        {
          "indexed": false,
          "internalType": "string",
          "name": "fileId",
          "type": "string"
        },
        {
          "indexed": false,
          "internalType": "string",
          "name": "fileHash",
          "type": "string"
        },
        {
          "indexed": false,
          "internalType": "uint256",
          "name": "fileSize",
          "type": "uint256"
        },
        {
          "indexed": false,
          "internalType": "string",
          "name": "fileType",
          "type": "string"
        },
        {
          "indexed": false,
          "internalType": "string",
          "name": "fileName",
          "type": "string"
        }
      ],
      "name": "FileUploaded",
      "type": "event"
    },
    {
      "anonymous": false,
      "inputs": [
        {
          "indexed": false,
          "internalType": "string",
          "name": "service",
          "type": "string"
        },
        {
          "indexed": false,
          "internalType": "string",
          "name": "firstname",
          "type": "string"
        },
        {
          "indexed": false,
          "internalType": "string",
          "name": "lastname",
          "type": "string"
        },
        {
          "indexed": false,
          "internalType": "address",
          "name": "userwallet",
          "type": "address"
        }
      ],
      "name": "UserAdded",
      "type": "event"
    },
    {
      "constant": true,
      "inputs": [
        {
          "internalType": "uint256",
          "name": "",
          "type": "uint256"
        }
      ],
      "name": "allUsers",
      "outputs": [
        {
          "internalType": "string",
          "name": "service",
          "type": "string"
        },
        {
          "internalType": "string",
          "name": "firstname",
          "type": "string"
        },
        {
          "internalType": "string",
          "name": "lastname",
          "type": "string"
        },
        {
          "internalType": "address",
          "name": "userwallet",
          "type": "address"
        }
      ],
      "payable": false,
      "stateMutability": "view",
      "type": "function"
    },
    {
      "constant": true,
      "inputs": [],
      "name": "name",
      "outputs": [
        {
          "internalType": "string",
          "name": "",
          "type": "string"
        }
      ],
      "payable": false,
      "stateMutability": "view",
      "type": "function"
    },
    {
      "constant": true,
      "inputs": [
        {
          "internalType": "address",
          "name": "",
          "type": "address"
        },
        {
          "internalType": "uint256",
          "name": "",
          "type": "uint256"
        }
      ],
      "name": "shares",
      "outputs": [
        {
          "internalType": "string",
          "name": "fileId",
          "type": "string"
        },
        {
          "internalType": "string",
          "name": "fileHash",
          "type": "string"
        },
        {
          "internalType": "uint256",
          "name": "fileSize",
          "type": "uint256"
        },
        {
          "internalType": "string",
          "name": "fileType",
          "type": "string"
        },
        {
          "internalType": "string",
          "name": "fileName",
          "type": "string"
        },
        {
          "internalType": "string",
          "name": "key",
          "type": "string"
        }
      ],
      "payable": false,
      "stateMutability": "view",
      "type": "function"
    },
    {
      "constant": true,
      "inputs": [
        {
          "internalType": "address",
          "name": "",
          "type": "address"
        },
        {
          "internalType": "uint256",
          "name": "",
          "type": "uint256"
        }
      ],
      "name": "users",
      "outputs": [
        {
          "internalType": "string",
          "name": "fileId",
          "type": "string"
        },
        {
          "internalType": "string",
          "name": "fileHash",
          "type": "string"
        },
        {
          "internalType": "uint256",
          "name": "fileSize",
          "type": "uint256"
        },
        {
          "internalType": "string",
          "name": "fileType",
          "type": "string"
        },
        {
          "internalType": "string",
          "name": "fileName",
          "type": "string"
        },
        {
          "internalType": "string",
          "name": "key",
          "type": "string"
        }
      ],
      "payable": false,
      "stateMutability": "view",
      "type": "function"
    },
    {
      "constant": false,
      "inputs": [
        {
          "internalType": "string",
          "name": "_service",
          "type": "string"
        },
        {
          "internalType": "string",
          "name": "_firstname",
          "type": "string"
        },
        {
          "internalType": "string",
          "name": "_lastname",
          "type": "string"
        },
        {
          "internalType": "address",
          "name": "_userwallet",
          "type": "address"
        }
      ],
      "name": "addUser",
      "outputs": [
        {
          "internalType": "string",
          "name": "userservice",
          "type": "string"
        },
        {
          "internalType": "string",
          "name": "ufirstname",
          "type": "string"
        },
        {
          "internalType": "string",
          "name": "ulastname",
          "type": "string"
        },
        {
          "internalType": "address",
          "name": "uaddress",
          "type": "address"
        }
      ],
      "payable": true,
      "stateMutability": "payable",
      "type": "function"
    },
    {
      "constant": true,
      "inputs": [],
      "name": "getCountusers",
      "outputs": [
        {
          "internalType": "uint256",
          "name": "",
          "type": "uint256"
        }
      ],
      "payable": false,
      "stateMutability": "view",
      "type": "function"
    },
    {
      "constant": true,
      "inputs": [
        {
          "internalType": "uint256",
          "name": "_index",
          "type": "uint256"
        }
      ],
      "name": "getAllUserInfo",
      "outputs": [
        {
          "internalType": "string",
          "name": "userservice",
          "type": "string"
        },
        {
          "internalType": "string",
          "name": "ufirstname",
          "type": "string"
        },
        {
          "internalType": "string",
          "name": "ulastname",
          "type": "string"
        },
        {
          "internalType": "address",
          "name": "uaddress",
          "type": "address"
        }
      ],
      "payable": false,
      "stateMutability": "view",
      "type": "function"
    },
    {
      "constant": false,
      "inputs": [
        {
          "internalType": "address",
          "name": "_address",
          "type": "address"
        },
        {
          "internalType": "string",
          "name": "_fileId",
          "type": "string"
        },
        {
          "internalType": "string",
          "name": "_fileHash",
          "type": "string"
        },
        {
          "internalType": "uint256",
          "name": "_fileSize",
          "type": "uint256"
        },
        {
          "internalType": "string",
          "name": "_fileType",
          "type": "string"
        },
        {
          "internalType": "string",
          "name": "_fileName",
          "type": "string"
        },
        {
          "internalType": "string",
          "name": "_key",
          "type": "string"
        }
      ],
      "name": "uploadFile",
      "outputs": [
        {
          "internalType": "string",
          "name": "",
          "type": "string"
        },
        {
          "internalType": "string",
          "name": "",
          "type": "string"
        },
        {
          "internalType": "uint256",
          "name": "",
          "type": "uint256"
        },
        {
          "internalType": "string",
          "name": "",
          "type": "string"
        },
        {
          "internalType": "string",
          "name": "",
          "type": "string"
        }
      ],
      "payable": false,
      "stateMutability": "nonpayable",
      "type": "function"
    },
    {
      "constant": true,
      "inputs": [
        {
          "internalType": "address",
          "name": "_address",
          "type": "address"
        }
      ],
      "name": "getCount",
      "outputs": [
        {
          "internalType": "uint256",
          "name": "",
          "type": "uint256"
        }
      ],
      "payable": false,
      "stateMutability": "view",
      "type": "function"
    },
    {
      "constant": true,
      "inputs": [
        {
          "internalType": "uint256",
          "name": "_index",
          "type": "uint256"
        },
        {
          "internalType": "address",
          "name": "_address",
          "type": "address"
        }
      ],
      "name": "getFilesofUser",
      "outputs": [
        {
          "internalType": "string",
          "name": "",
          "type": "string"
        },
        {
          "internalType": "string",
          "name": "",
          "type": "string"
        },
        {
          "internalType": "uint256",
          "name": "",
          "type": "uint256"
        },
        {
          "internalType": "string",
          "name": "",
          "type": "string"
        },
        {
          "internalType": "string",
          "name": "",
          "type": "string"
        }
      ],
      "payable": false,
      "stateMutability": "view",
      "type": "function"
    },
    {
      "constant": true,
      "inputs": [
        {
          "internalType": "uint256",
          "name": "_index",
          "type": "uint256"
        },
        {
          "internalType": "address",
          "name": "_address",
          "type": "address"
        }
      ],
      "name": "getFilekey",
      "outputs": [
        {
          "internalType": "string",
          "name": "",
          "type": "string"
        }
      ],
      "payable": false,
      "stateMutability": "view",
      "type": "function"
    },
    {
      "constant": true,
      "inputs": [
        {
          "internalType": "uint256",
          "name": "_index",
          "type": "uint256"
        },
        {
          "internalType": "address",
          "name": "_address",
          "type": "address"
        }
      ],
      "name": "getSharekey",
      "outputs": [
        {
          "internalType": "string",
          "name": "",
          "type": "string"
        }
      ],
      "payable": false,
      "stateMutability": "view",
      "type": "function"
    },
    {
      "constant": false,
      "inputs": [
        {
          "internalType": "string",
          "name": "_fileId",
          "type": "string"
        },
        {
          "internalType": "address",
          "name": "_address",
          "type": "address"
        }
      ],
      "name": "removeHash",
      "outputs": [],
      "payable": false,
      "stateMutability": "nonpayable",
      "type": "function"
    },
    {
      "constant": false,
      "inputs": [
        {
          "internalType": "address",
          "name": "_to",
          "type": "address"
        },
        {
          "internalType": "string",
          "name": "_fileId",
          "type": "string"
        },
        {
          "internalType": "string",
          "name": "_fileHash",
          "type": "string"
        },
        {
          "internalType": "uint256",
          "name": "_fileSize",
          "type": "uint256"
        },
        {
          "internalType": "string",
          "name": "_fileType",
          "type": "string"
        },
        {
          "internalType": "string",
          "name": "_fileName",
          "type": "string"
        },
        {
          "internalType": "string",
          "name": "_key",
          "type": "string"
        }
      ],
      "name": "uploadShareFile",
      "outputs": [
        {
          "internalType": "string",
          "name": "",
          "type": "string"
        },
        {
          "internalType": "string",
          "name": "",
          "type": "string"
        },
        {
          "internalType": "uint256",
          "name": "",
          "type": "uint256"
        },
        {
          "internalType": "string",
          "name": "",
          "type": "string"
        },
        {
          "internalType": "string",
          "name": "",
          "type": "string"
        }
      ],
      "payable": false,
      "stateMutability": "nonpayable",
      "type": "function"
    },
    {
      "constant": true,
      "inputs": [
        {
          "internalType": "address",
          "name": "_address",
          "type": "address"
        }
      ],
      "name": "getShareCount",
      "outputs": [
        {
          "internalType": "uint256",
          "name": "",
          "type": "uint256"
        }
      ],
      "payable": false,
      "stateMutability": "view",
      "type": "function"
    },
    {
      "constant": true,
      "inputs": [
        {
          "internalType": "uint256",
          "name": "_index",
          "type": "uint256"
        },
        {
          "internalType": "address",
          "name": "_address",
          "type": "address"
        }
      ],
      "name": "getShareFilesofUser",
      "outputs": [
        {
          "internalType": "string",
          "name": "",
          "type": "string"
        },
        {
          "internalType": "string",
          "name": "",
          "type": "string"
        },
        {
          "internalType": "uint256",
          "name": "",
          "type": "uint256"
        },
        {
          "internalType": "string",
          "name": "",
          "type": "string"
        },
        {
          "internalType": "string",
          "name": "",
          "type": "string"
        }
      ],
      "payable": false,
      "stateMutability": "view",
      "type": "function"
    },
    {
      "constant": false,
      "inputs": [
        {
          "internalType": "string",
          "name": "_fileId",
          "type": "string"
        },
        {
          "internalType": "address",
          "name": "_address",
          "type": "address"
        }
      ],
      "name": "removeShareHash",
      "outputs": [],
      "payable": false,
      "stateMutability": "nonpayable",
      "type": "function"
    }
  ],
  "bytecode": "0x60806040526040518060400160405280600781526020017f446f633265746800000000000000000000000000000000000000000000000000815250600090805190602001906200005192919062000066565b503480156200005f57600080fd5b5062000115565b828054600181600116156101000203166002900490600052602060002090601f016020900481019282601f10620000a957805160ff1916838001178555620000da565b82800160010185558215620000da579182015b82811115620000d9578251825591602001919060010190620000bc565b5b509050620000e99190620000ed565b5090565b6200011291905b808211156200010e576000816000905550600101620000f4565b5090565b90565b615c2480620001256000396000f3fe6080604052600436106100fe5760003560e01c806368cd2133116100955780638fd2b020116100645780638fd2b020146116ce578063a2bdedf4146116f9578063a6f34370146118b8578063b48ff0f114611ad7578063e82240f814611e64576100fe565b806368cd213314610ec45780637178e5fb146113d6578063729d84601461159557806386b8b5ad146115fa576100fe565b806332ef223e116100d157806332ef223e146105ee5780634b029c94146106c25780634f0cd27b14610bd457806354a02f9e14610c39576100fe565b806306fdde03146101035780630b6eab0f14610193578063259ddefc1461027b57806326c6a26314610506575b600080fd5b34801561010f57600080fd5b50610118612083565b6040518080602001828103825283818151815260200191508051906020019080838360005b8381101561015857808201518184015260208101905061013d565b50505050905090810190601f1680156101855780820380516001836020036101000a031916815260200191505b509250505060405180910390f35b34801561019f57600080fd5b50610279600480360360408110156101b657600080fd5b81019080803590602001906401000000008111156101d357600080fd5b8201836020820111156101e557600080fd5b8035906020019184600183028401116401000000008311171561020757600080fd5b91908080601f016020809104026020016040519081016040528093929190818152602001838380828437600081840152601f19601f820116905080830192505050505050509192919290803573ffffffffffffffffffffffffffffffffffffffff169060200190929190505050612121565b005b34801561028757600080fd5b506102d46004803603604081101561029e57600080fd5b81019080803573ffffffffffffffffffffffffffffffffffffffff1690602001909291908035906020019092919050505061234b565b60405180806020018060200187815260200180602001806020018060200186810386528c818151815260200191508051906020019080838360005b8381101561032a57808201518184015260208101905061030f565b50505050905090810190601f1680156103575780820380516001836020036101000a031916815260200191505b5086810385528b818151815260200191508051906020019080838360005b83811015610390578082015181840152602081019050610375565b50505050905090810190601f1680156103bd5780820380516001836020036101000a031916815260200191505b50868103845289818151815260200191508051906020019080838360005b838110156103f65780820151818401526020810190506103db565b50505050905090810190601f1680156104235780820380516001836020036101000a031916815260200191505b50868103835288818151815260200191508051906020019080838360005b8381101561045c578082015181840152602081019050610441565b50505050905090810190601f1680156104895780820380516001836020036101000a031916815260200191505b50868103825287818151815260200191508051906020019080838360005b838110156104c25780820151818401526020810190506104a7565b50505050905090810190601f1680156104ef5780820380516001836020036101000a031916815260200191505b509b50505050505050505050505060405180910390f35b34801561051257600080fd5b506105ec6004803603604081101561052957600080fd5b810190808035906020019064010000000081111561054657600080fd5b82018360208201111561055857600080fd5b8035906020019184600183028401116401000000008311171561057a57600080fd5b91908080601f016020809104026020016040519081016040528093929190818152602001838380828437600081840152601f19601f820116905080830192505050505050509192919290803573ffffffffffffffffffffffffffffffffffffffff169060200190929190505050612699565b005b3480156105fa57600080fd5b506106476004803603604081101561061157600080fd5b8101908080359060200190929190803573ffffffffffffffffffffffffffffffffffffffff1690602001909291905050506128c3565b6040518080602001828103825283818151815260200191508051906020019080838360005b8381101561068757808201518184015260208101905061066c565b50505050905090810190601f1680156106b45780820380516001836020036101000a031916815260200191505b509250505060405180910390f35b3480156106ce57600080fd5b50610a0e600480360360e08110156106e557600080fd5b81019080803573ffffffffffffffffffffffffffffffffffffffff1690602001909291908035906020019064010000000081111561072257600080fd5b82018360208201111561073457600080fd5b8035906020019184600183028401116401000000008311171561075657600080fd5b91908080601f016020809104026020016040519081016040528093929190818152602001838380828437600081840152601f19601f820116905080830192505050505050509192919290803590602001906401000000008111156107b957600080fd5b8201836020820111156107cb57600080fd5b803590602001918460018302840111640100000000831117156107ed57600080fd5b91908080601f016020809104026020016040519081016040528093929190818152602001838380828437600081840152601f19601f820116905080830192505050505050509192919290803590602001909291908035906020019064010000000081111561085a57600080fd5b82018360208201111561086c57600080fd5b8035906020019184600183028401116401000000008311171561088e57600080fd5b91908080601f016020809104026020016040519081016040528093929190818152602001838380828437600081840152601f19601f820116905080830192505050505050509192919290803590602001906401000000008111156108f157600080fd5b82018360208201111561090357600080fd5b8035906020019184600183028401116401000000008311171561092557600080fd5b91908080601f016020809104026020016040519081016040528093929190818152602001838380828437600081840152601f19601f8201169050808301925050505050505091929192908035906020019064010000000081111561098857600080fd5b82018360208201111561099a57600080fd5b803590602001918460018302840111640100000000831117156109bc57600080fd5b91908080601f016020809104026020016040519081016040528093929190818152602001838380828437600081840152601f19601f820116905080830192505050505050509192919290505050612c82565b604051808060200180602001868152602001806020018060200185810385528a818151815260200191508051906020019080838360005b83811015610a60578082015181840152602081019050610a45565b50505050905090810190601f168015610a8d5780820380516001836020036101000a031916815260200191505b50858103845289818151815260200191508051906020019080838360005b83811015610ac6578082015181840152602081019050610aab565b50505050905090810190601f168015610af35780820380516001836020036101000a031916815260200191505b50858103835287818151815260200191508051906020019080838360005b83811015610b2c578082015181840152602081019050610b11565b50505050905090810190601f168015610b595780820380516001836020036101000a031916815260200191505b50858103825286818151815260200191508051906020019080838360005b83811015610b92578082015181840152602081019050610b77565b50505050905090810190601f168015610bbf5780820380516001836020036101000a031916815260200191505b50995050505050505050505060405180910390f35b348015610be057600080fd5b50610c2360048036036020811015610bf757600080fd5b81019080803573ffffffffffffffffffffffffffffffffffffffff169060200190929190505050613741565b6040518082815260200191505060405180910390f35b348015610c4557600080fd5b50610c9260048036036040811015610c5c57600080fd5b81019080803573ffffffffffffffffffffffffffffffffffffffff1690602001909291908035906020019092919050505061378d565b60405180806020018060200187815260200180602001806020018060200186810386528c818151815260200191508051906020019080838360005b83811015610ce8578082015181840152602081019050610ccd565b50505050905090810190601f168015610d155780820380516001836020036101000a031916815260200191505b5086810385528b818151815260200191508051906020019080838360005b83811015610d4e578082015181840152602081019050610d33565b50505050905090810190601f168015610d7b5780820380516001836020036101000a031916815260200191505b50868103845289818151815260200191508051906020019080838360005b83811015610db4578082015181840152602081019050610d99565b50505050905090810190601f168015610de15780820380516001836020036101000a031916815260200191505b50868103835288818151815260200191508051906020019080838360005b83811015610e1a578082015181840152602081019050610dff565b50505050905090810190601f168015610e475780820380516001836020036101000a031916815260200191505b50868103825287818151815260200191508051906020019080838360005b83811015610e80578082015181840152602081019050610e65565b50505050905090810190601f168015610ead5780820380516001836020036101000a031916815260200191505b509b50505050505050505050505060405180910390f35b348015610ed057600080fd5b50611210600480360360e0811015610ee757600080fd5b81019080803573ffffffffffffffffffffffffffffffffffffffff16906020019092919080359060200190640100000000811115610f2457600080fd5b820183602082011115610f3657600080fd5b80359060200191846001830284011164010000000083111715610f5857600080fd5b91908080601f016020809104026020016040519081016040528093929190818152602001838380828437600081840152601f19601f82011690508083019250505050505050919291929080359060200190640100000000811115610fbb57600080fd5b820183602082011115610fcd57600080fd5b80359060200191846001830284011164010000000083111715610fef57600080fd5b91908080601f016020809104026020016040519081016040528093929190818152602001838380828437600081840152601f19601f820116905080830192505050505050509192919290803590602001909291908035906020019064010000000081111561105c57600080fd5b82018360208201111561106e57600080fd5b8035906020019184600183028401116401000000008311171561109057600080fd5b91908080601f016020809104026020016040519081016040528093929190818152602001838380828437600081840152601f19601f820116905080830192505050505050509192919290803590602001906401000000008111156110f357600080fd5b82018360208201111561110557600080fd5b8035906020019184600183028401116401000000008311171561112757600080fd5b91908080601f016020809104026020016040519081016040528093929190818152602001838380828437600081840152601f19601f8201169050808301925050505050505091929192908035906020019064010000000081111561118a57600080fd5b82018360208201111561119c57600080fd5b803590602001918460018302840111640100000000831117156111be57600080fd5b91908080601f016020809104026020016040519081016040528093929190818152602001838380828437600081840152601f19601f820116905080830192505050505050509192919290505050613adb565b604051808060200180602001868152602001806020018060200185810385528a818151815260200191508051906020019080838360005b83811015611262578082015181840152602081019050611247565b50505050905090810190601f16801561128f5780820380516001836020036101000a031916815260200191505b50858103845289818151815260200191508051906020019080838360005b838110156112c85780820151818401526020810190506112ad565b50505050905090810190601f1680156112f55780820380516001836020036101000a031916815260200191505b50858103835287818151815260200191508051906020019080838360005b8381101561132e578082015181840152602081019050611313565b50505050905090810190601f16801561135b5780820380516001836020036101000a031916815260200191505b50858103825286818151815260200191508051906020019080838360005b83811015611394578082015181840152602081019050611379565b50505050905090810190601f1680156113c15780820380516001836020036101000a031916815260200191505b50995050505050505050505060405180910390f35b3480156113e257600080fd5b5061140f600480360360208110156113f957600080fd5b810190808035906020019092919050505061459a565b604051808060200180602001806020018573ffffffffffffffffffffffffffffffffffffffff1673ffffffffffffffffffffffffffffffffffffffff168152602001848103845288818151815260200191508051906020019080838360005b8381101561148957808201518184015260208101905061146e565b50505050905090810190601f1680156114b65780820380516001836020036101000a031916815260200191505b50848103835287818151815260200191508051906020019080838360005b838110156114ef5780820151818401526020810190506114d4565b50505050905090810190601f16801561151c5780820380516001836020036101000a031916815260200191505b50848103825286818151815260200191508051906020019080838360005b8381101561155557808201518184015260208101905061153a565b50505050905090810190601f1680156115825780820380516001836020036101000a031916815260200191505b5097505050505050505060405180910390f35b3480156115a157600080fd5b506115e4600480360360208110156115b857600080fd5b81019080803573ffffffffffffffffffffffffffffffffffffffff16906020019092919050505061483e565b6040518082815260200191505060405180910390f35b34801561160657600080fd5b506116536004803603604081101561161d57600080fd5b8101908080359060200190929190803573ffffffffffffffffffffffffffffffffffffffff16906020019092919050505061488a565b6040518080602001828103825283818151815260200191508051906020019080838360005b83811015611693578082015181840152602081019050611678565b50505050905090810190601f1680156116c05780820380516001836020036101000a031916815260200191505b509250505060405180910390f35b3480156116da57600080fd5b506116e3614c49565b6040518082815260200191505060405180910390f35b34801561170557600080fd5b506117326004803603602081101561171c57600080fd5b8101908080359060200190929190505050614c56565b604051808060200180602001806020018573ffffffffffffffffffffffffffffffffffffffff1673ffffffffffffffffffffffffffffffffffffffff168152602001848103845288818151815260200191508051906020019080838360005b838110156117ac578082015181840152602081019050611791565b50505050905090810190601f1680156117d95780820380516001836020036101000a031916815260200191505b50848103835287818151815260200191508051906020019080838360005b838110156118125780820151818401526020810190506117f7565b50505050905090810190601f16801561183f5780820380516001836020036101000a031916815260200191505b50848103825286818151815260200191508051906020019080838360005b8381101561187857808201518184015260208101905061185d565b50505050905090810190601f1680156118a55780820380516001836020036101000a031916815260200191505b5097505050505050505060405180910390f35b3480156118c457600080fd5b50611911600480360360408110156118db57600080fd5b8101908080359060200190929190803573ffffffffffffffffffffffffffffffffffffffff169060200190929190505050614e7b565b604051808060200180602001868152602001806020018060200185810385528a818151815260200191508051906020019080838360005b83811015611963578082015181840152602081019050611948565b50505050905090810190601f1680156119905780820380516001836020036101000a031916815260200191505b50858103845289818151815260200191508051906020019080838360005b838110156119c95780820151818401526020810190506119ae565b50505050905090810190601f1680156119f65780820380516001836020036101000a031916815260200191505b50858103835287818151815260200191508051906020019080838360005b83811015611a2f578082015181840152602081019050611a14565b50505050905090810190601f168015611a5c5780820380516001836020036101000a031916815260200191505b50858103825286818151815260200191508051906020019080838360005b83811015611a95578082015181840152602081019050611a7a565b50505050905090810190601f168015611ac25780820380516001836020036101000a031916815260200191505b50995050505050505050505060405180910390f35b611cde60048036036080811015611aed57600080fd5b8101908080359060200190640100000000811115611b0a57600080fd5b820183602082011115611b1c57600080fd5b80359060200191846001830284011164010000000083111715611b3e57600080fd5b91908080601f016020809104026020016040519081016040528093929190818152602001838380828437600081840152601f19601f82011690508083019250505050505050919291929080359060200190640100000000811115611ba157600080fd5b820183602082011115611bb357600080fd5b80359060200191846001830284011164010000000083111715611bd557600080fd5b91908080601f016020809104026020016040519081016040528093929190818152602001838380828437600081840152601f19601f82011690508083019250505050505050919291929080359060200190640100000000811115611c3857600080fd5b820183602082011115611c4a57600080fd5b80359060200191846001830284011164010000000083111715611c6c57600080fd5b91908080601f016020809104026020016040519081016040528093929190818152602001838380828437600081840152601f19601f820116905080830192505050505050509192919290803573ffffffffffffffffffffffffffffffffffffffff16906020019092919050505061526c565b604051808060200180602001806020018573ffffffffffffffffffffffffffffffffffffffff1673ffffffffffffffffffffffffffffffffffffffff168152602001848103845288818151815260200191508051906020019080838360005b83811015611d58578082015181840152602081019050611d3d565b50505050905090810190601f168015611d855780820380516001836020036101000a031916815260200191505b50848103835287818151815260200191508051906020019080838360005b83811015611dbe578082015181840152602081019050611da3565b50505050905090810190601f168015611deb5780820380516001836020036101000a031916815260200191505b50848103825286818151815260200191508051906020019080838360005b83811015611e24578082015181840152602081019050611e09565b50505050905090810190601f168015611e515780820380516001836020036101000a031916815260200191505b5097505050505050505060405180910390f35b348015611e7057600080fd5b50611ebd60048036036040811015611e8757600080fd5b8101908080359060200190929190803573ffffffffffffffffffffffffffffffffffffffff16906020019092919050505061569d565b604051808060200180602001868152602001806020018060200185810385528a818151815260200191508051906020019080838360005b83811015611f0f578082015181840152602081019050611ef4565b50505050905090810190601f168015611f3c5780820380516001836020036101000a031916815260200191505b50858103845289818151815260200191508051906020019080838360005b83811015611f75578082015181840152602081019050611f5a565b50505050905090810190601f168015611fa25780820380516001836020036101000a031916815260200191505b50858103835287818151815260200191508051906020019080838360005b83811015611fdb578082015181840152602081019050611fc0565b50505050905090810190601f1680156120085780820380516001836020036101000a031916815260200191505b50858103825286818151815260200191508051906020019080838360005b83811015612041578082015181840152602081019050612026565b50505050905090810190601f16801561206e5780820380516001836020036101000a031916815260200191505b50995050505050505050505060405180910390f35b60008054600181600116156101000203166002900480601f0160208091040260200160405190810160405280929190818152602001828054600181600116156101000203166002900480156121195780601f106120ee57610100808354040283529160200191612119565b820191906000526020600020905b8154815290600101906020018083116120fc57829003601f168201915b505050505081565b6000600160008373ffffffffffffffffffffffffffffffffffffffff1673ffffffffffffffffffffffffffffffffffffffff168152602001908152602001600020905060008090505b818054905081101561234557836040516020018082805190602001908083835b602083106121ad578051825260208201915060208101905060208303925061218a565b6001836020036101000a038019825116818451168082178552505050505050905001915050604051602081830303815290604052805190602001208282815481106121f457fe5b906000526020600020906006020160000160405160200180828054600181600116156101000203166002900480156122635780601f10612241576101008083540402835291820191612263565b820191906000526020600020905b81548152906001019060200180831161224f575b505091505060405160208183030381529060405280519060200120141561233857600160008473ffffffffffffffffffffffffffffffffffffffff1673ffffffffffffffffffffffffffffffffffffffff16815260200190815260200160002081815481106122ce57fe5b9060005260206000209060060201600080820160006122ed9190615a8e565b6001820160006122fd9190615a8e565b60028201600090556003820160006123159190615a8e565b6004820160006123259190615a8e565b6005820160006123359190615a8e565b50505b808060010191505061216a565b50505050565b6002602052816000526040600020818154811061236457fe5b906000526020600020906006020160009150915050806000018054600181600116156101000203166002900480601f0160208091040260200160405190810160405280929190818152602001828054600181600116156101000203166002900480156124115780601f106123e657610100808354040283529160200191612411565b820191906000526020600020905b8154815290600101906020018083116123f457829003601f168201915b505050505090806001018054600181600116156101000203166002900480601f0160208091040260200160405190810160405280929190818152602001828054600181600116156101000203166002900480156124af5780601f10612484576101008083540402835291602001916124af565b820191906000526020600020905b81548152906001019060200180831161249257829003601f168201915b505050505090806002015490806003018054600181600116156101000203166002900480601f0160208091040260200160405190810160405280929190818152602001828054600181600116156101000203166002900480156125535780601f1061252857610100808354040283529160200191612553565b820191906000526020600020905b81548152906001019060200180831161253657829003601f168201915b505050505090806004018054600181600116156101000203166002900480601f0160208091040260200160405190810160405280929190818152602001828054600181600116156101000203166002900480156125f15780601f106125c6576101008083540402835291602001916125f1565b820191906000526020600020905b8154815290600101906020018083116125d457829003601f168201915b505050505090806005018054600181600116156101000203166002900480601f01602080910402602001604051908101604052809291908181526020018280546001816001161561010002031660029004801561268f5780601f106126645761010080835404028352916020019161268f565b820191906000526020600020905b81548152906001019060200180831161267257829003601f168201915b5050505050905086565b6000600260008373ffffffffffffffffffffffffffffffffffffffff1673ffffffffffffffffffffffffffffffffffffffff168152602001908152602001600020905060008090505b81805490508110156128bd57836040516020018082805190602001908083835b602083106127255780518252602082019150602081019050602083039250612702565b6001836020036101000a0380198251168184511680821785525050505050509050019150506040516020818303038152906040528051906020012082828154811061276c57fe5b906000526020600020906006020160000160405160200180828054600181600116156101000203166002900480156127db5780601f106127b95761010080835404028352918201916127db565b820191906000526020600020905b8154815290600101906020018083116127c7575b50509150506040516020818303038152906040528051906020012014156128b057600260008473ffffffffffffffffffffffffffffffffffffffff1673ffffffffffffffffffffffffffffffffffffffff168152602001908152602001600020818154811061284657fe5b9060005260206000209060060201600080820160006128659190615a8e565b6001820160006128759190615a8e565b600282016000905560038201600061288d9190615a8e565b60048201600061289d9190615a8e565b6005820160006128ad9190615a8e565b50505b80806001019150506126e2565b50505050565b606060008310156128d357600080fd5b6128db615ad6565b600160008473ffffffffffffffffffffffffffffffffffffffff1673ffffffffffffffffffffffffffffffffffffffff168152602001908152602001600020848154811061292557fe5b90600052602060002090600602016040518060c0016040529081600082018054600181600116156101000203166002900480601f0160208091040260200160405190810160405280929190818152602001828054600181600116156101000203166002900480156129d75780601f106129ac576101008083540402835291602001916129d7565b820191906000526020600020905b8154815290600101906020018083116129ba57829003601f168201915b50505050508152602001600182018054600181600116156101000203166002900480601f016020809104026020016040519081016040528092919081815260200182805460018160011615610100020316600290048015612a795780601f10612a4e57610100808354040283529160200191612a79565b820191906000526020600020905b815481529060010190602001808311612a5c57829003601f168201915b5050505050815260200160028201548152602001600382018054600181600116156101000203166002900480601f016020809104026020016040519081016040528092919081815260200182805460018160011615610100020316600290048015612b255780601f10612afa57610100808354040283529160200191612b25565b820191906000526020600020905b815481529060010190602001808311612b0857829003601f168201915b50505050508152602001600482018054600181600116156101000203166002900480601f016020809104026020016040519081016040528092919081815260200182805460018160011615610100020316600290048015612bc75780601f10612b9c57610100808354040283529160200191612bc7565b820191906000526020600020905b815481529060010190602001808311612baa57829003601f168201915b50505050508152602001600582018054600181600116156101000203166002900480601f016020809104026020016040519081016040528092919081815260200182805460018160011615610100020316600290048015612c695780601f10612c3e57610100808354040283529160200191612c69565b820191906000526020600020905b815481529060010190602001808311612c4c57829003601f168201915b50505050508152505090508060a0015191505092915050565b606080600060608060008a5111612d01576040517f08c379a00000000000000000000000000000000000000000000000000000000081526004018080602001828103825260118152602001807f496e76616c69642046696c65204861736800000000000000000000000000000081525060200191505060405180910390fd5b60008b5111612d78576040517f08c379a000000000000000000000000000000000000000000000000000000000815260040180806020018281038252600f8152602001807f496e76616c69642046696c65204944000000000000000000000000000000000081525060200191505060405180910390fd5b6000885111612def576040517f08c379a00000000000000000000000000000000000000000000000000000000081526004018080602001828103825260118152602001807f496e76616c69642046696c65205479706500000000000000000000000000000081525060200191505060405180910390fd5b6000875111612e66576040517f08c379a00000000000000000000000000000000000000000000000000000000081526004018080602001828103825260148152602001807f496e76616c69642053657276696365204e616d6500000000000000000000000081525060200191505060405180910390fd5b600073ffffffffffffffffffffffffffffffffffffffff168c73ffffffffffffffffffffffffffffffffffffffff161415612f09576040517f08c379a00000000000000000000000000000000000000000000000000000000081526004018080602001828103825260188152602001807f496e76616c69642072656365697665722061646472657373000000000000000081525060200191505060405180910390fd5b60008911612f7f576040517f08c379a00000000000000000000000000000000000000000000000000000000081526004018080602001828103825260118152602001807f496e76616c69642046696c652053697a6500000000000000000000000000000081525060200191505060405180910390fd5b6000865111612ff6576040517f08c379a00000000000000000000000000000000000000000000000000000000081526004018080602001828103825260108152602001807f496e76616c6964206b65792073697a650000000000000000000000000000000081525060200191505060405180910390fd5b600260008d73ffffffffffffffffffffffffffffffffffffffff1673ffffffffffffffffffffffffffffffffffffffff1681526020019081526020016000206040518060c001604052808d81526020018c81526020018b81526020018a8152602001898152602001888152509080600181540180825580915050906001820390600052602060002090600602016000909192909190915060008201518160000190805190602001906130a9929190615b0c565b5060208201518160010190805190602001906130c6929190615b0c565b506040820151816002015560608201518160030190805190602001906130ed929190615b0c565b50608082015181600401908051906020019061310a929190615b0c565b5060a0820151816005019080519060200190613127929190615b0c565b505050507fdcf19138bd66f143093fd047c06fc111cf1d25a3ef10b9f3c6062581853e2a288b8b8b8b8b604051808060200180602001868152602001806020018060200185810385528a818151815260200191508051906020019080838360005b838110156131a3578082015181840152602081019050613188565b50505050905090810190601f1680156131d05780820380516001836020036101000a031916815260200191505b50858103845289818151815260200191508051906020019080838360005b838110156132095780820151818401526020810190506131ee565b50505050905090810190601f1680156132365780820380516001836020036101000a031916815260200191505b50858103835287818151815260200191508051906020019080838360005b8381101561326f578082015181840152602081019050613254565b50505050905090810190601f16801561329c5780820380516001836020036101000a031916815260200191505b50858103825286818151815260200191508051906020019080838360005b838110156132d55780820151818401526020810190506132ba565b50505050905090810190601f1680156133025780820380516001836020036101000a031916815260200191505b50995050505050505050505060405180910390a16000600260008e73ffffffffffffffffffffffffffffffffffffffff1673ffffffffffffffffffffffffffffffffffffffff168152602001908152602001600020805490509050613365615ad6565b600260008f73ffffffffffffffffffffffffffffffffffffffff1673ffffffffffffffffffffffffffffffffffffffff16815260200190815260200160002060018303815481106133b257fe5b90600052602060002090600602016040518060c0016040529081600082018054600181600116156101000203166002900480601f0160208091040260200160405190810160405280929190818152602001828054600181600116156101000203166002900480156134645780601f1061343957610100808354040283529160200191613464565b820191906000526020600020905b81548152906001019060200180831161344757829003601f168201915b50505050508152602001600182018054600181600116156101000203166002900480601f0160208091040260200160405190810160405280929190818152602001828054600181600116156101000203166002900480156135065780601f106134db57610100808354040283529160200191613506565b820191906000526020600020905b8154815290600101906020018083116134e957829003601f168201915b5050505050815260200160028201548152602001600382018054600181600116156101000203166002900480601f0160208091040260200160405190810160405280929190818152602001828054600181600116156101000203166002900480156135b25780601f10613587576101008083540402835291602001916135b2565b820191906000526020600020905b81548152906001019060200180831161359557829003601f168201915b50505050508152602001600482018054600181600116156101000203166002900480601f0160208091040260200160405190810160405280929190818152602001828054600181600116156101000203166002900480156136545780601f1061362957610100808354040283529160200191613654565b820191906000526020600020905b81548152906001019060200180831161363757829003601f168201915b50505050508152602001600582018054600181600116156101000203166002900480601f0160208091040260200160405190810160405280929190818152602001828054600181600116156101000203166002900480156136f65780601f106136cb576101008083540402835291602001916136f6565b820191906000526020600020905b8154815290600101906020018083116136d957829003601f168201915b50505050508152505090508060000151816020015182604001518360600151846080015184945083935081915080905096509650965096509650505097509750975097509792505050565b6000600160008373ffffffffffffffffffffffffffffffffffffffff1673ffffffffffffffffffffffffffffffffffffffff168152602001908152602001600020805490509050919050565b600160205281600052604060002081815481106137a657fe5b906000526020600020906006020160009150915050806000018054600181600116156101000203166002900480601f0160208091040260200160405190810160405280929190818152602001828054600181600116156101000203166002900480156138535780601f1061382857610100808354040283529160200191613853565b820191906000526020600020905b81548152906001019060200180831161383657829003601f168201915b505050505090806001018054600181600116156101000203166002900480601f0160208091040260200160405190810160405280929190818152602001828054600181600116156101000203166002900480156138f15780601f106138c6576101008083540402835291602001916138f1565b820191906000526020600020905b8154815290600101906020018083116138d457829003601f168201915b505050505090806002015490806003018054600181600116156101000203166002900480601f0160208091040260200160405190810160405280929190818152602001828054600181600116156101000203166002900480156139955780601f1061396a57610100808354040283529160200191613995565b820191906000526020600020905b81548152906001019060200180831161397857829003601f168201915b505050505090806004018054600181600116156101000203166002900480601f016020809104026020016040519081016040528092919081815260200182805460018160011615610100020316600290048015613a335780601f10613a0857610100808354040283529160200191613a33565b820191906000526020600020905b815481529060010190602001808311613a1657829003601f168201915b505050505090806005018054600181600116156101000203166002900480601f016020809104026020016040519081016040528092919081815260200182805460018160011615610100020316600290048015613ad15780601f10613aa657610100808354040283529160200191613ad1565b820191906000526020600020905b815481529060010190602001808311613ab457829003601f168201915b5050505050905086565b606080600060608060008a5111613b5a576040517f08c379a00000000000000000000000000000000000000000000000000000000081526004018080602001828103825260118152602001807f496e76616c69642046696c65204861736800000000000000000000000000000081525060200191505060405180910390fd5b60008b5111613bd1576040517f08c379a000000000000000000000000000000000000000000000000000000000815260040180806020018281038252600f8152602001807f496e76616c69642046696c65204944000000000000000000000000000000000081525060200191505060405180910390fd5b6000885111613c48576040517f08c379a00000000000000000000000000000000000000000000000000000000081526004018080602001828103825260118152602001807f496e76616c69642046696c65205479706500000000000000000000000000000081525060200191505060405180910390fd5b6000875111613cbf576040517f08c379a00000000000000000000000000000000000000000000000000000000081526004018080602001828103825260148152602001807f496e76616c69642053657276696365204e616d6500000000000000000000000081525060200191505060405180910390fd5b600073ffffffffffffffffffffffffffffffffffffffff168c73ffffffffffffffffffffffffffffffffffffffff161415613d62576040517f08c379a000000000000000000000000000000000000000000000000000000000815260040180806020018281038252600f8152602001807f496e76616c69642061646472657373000000000000000000000000000000000081525060200191505060405180910390fd5b60008911613dd8576040517f08c379a00000000000000000000000000000000000000000000000000000000081526004018080602001828103825260118152602001807f496e76616c69642046696c652053697a6500000000000000000000000000000081525060200191505060405180910390fd5b6000865111613e4f576040517f08c379a00000000000000000000000000000000000000000000000000000000081526004018080602001828103825260108152602001807f496e76616c6964206b65792073697a650000000000000000000000000000000081525060200191505060405180910390fd5b600160008d73ffffffffffffffffffffffffffffffffffffffff1673ffffffffffffffffffffffffffffffffffffffff1681526020019081526020016000206040518060c001604052808d81526020018c81526020018b81526020018a815260200189815260200188815250908060018154018082558091505090600182039060005260206000209060060201600090919290919091506000820151816000019080519060200190613f02929190615b0c565b506020820151816001019080519060200190613f1f929190615b0c565b50604082015181600201556060820151816003019080519060200190613f46929190615b0c565b506080820151816004019080519060200190613f63929190615b0c565b5060a0820151816005019080519060200190613f80929190615b0c565b505050507fd5a0ff32a687d2589866b85f64fb1bae6d547a1adcc2eaf6f3721dfcfebb5b328b8b8b8b8b604051808060200180602001868152602001806020018060200185810385528a818151815260200191508051906020019080838360005b83811015613ffc578082015181840152602081019050613fe1565b50505050905090810190601f1680156140295780820380516001836020036101000a031916815260200191505b50858103845289818151815260200191508051906020019080838360005b83811015614062578082015181840152602081019050614047565b50505050905090810190601f16801561408f5780820380516001836020036101000a031916815260200191505b50858103835287818151815260200191508051906020019080838360005b838110156140c85780820151818401526020810190506140ad565b50505050905090810190601f1680156140f55780820380516001836020036101000a031916815260200191505b50858103825286818151815260200191508051906020019080838360005b8381101561412e578082015181840152602081019050614113565b50505050905090810190601f16801561415b5780820380516001836020036101000a031916815260200191505b50995050505050505050505060405180910390a16000600160008e73ffffffffffffffffffffffffffffffffffffffff1673ffffffffffffffffffffffffffffffffffffffff1681526020019081526020016000208054905090506141be615ad6565b600160008f73ffffffffffffffffffffffffffffffffffffffff1673ffffffffffffffffffffffffffffffffffffffff168152602001908152602001600020600183038154811061420b57fe5b90600052602060002090600602016040518060c0016040529081600082018054600181600116156101000203166002900480601f0160208091040260200160405190810160405280929190818152602001828054600181600116156101000203166002900480156142bd5780601f10614292576101008083540402835291602001916142bd565b820191906000526020600020905b8154815290600101906020018083116142a057829003601f168201915b50505050508152602001600182018054600181600116156101000203166002900480601f01602080910402602001604051908101604052809291908181526020018280546001816001161561010002031660029004801561435f5780601f106143345761010080835404028352916020019161435f565b820191906000526020600020905b81548152906001019060200180831161434257829003601f168201915b5050505050815260200160028201548152602001600382018054600181600116156101000203166002900480601f01602080910402602001604051908101604052809291908181526020018280546001816001161561010002031660029004801561440b5780601f106143e05761010080835404028352916020019161440b565b820191906000526020600020905b8154815290600101906020018083116143ee57829003601f168201915b50505050508152602001600482018054600181600116156101000203166002900480601f0160208091040260200160405190810160405280929190818152602001828054600181600116156101000203166002900480156144ad5780601f10614482576101008083540402835291602001916144ad565b820191906000526020600020905b81548152906001019060200180831161449057829003601f168201915b50505050508152602001600582018054600181600116156101000203166002900480601f01602080910402602001604051908101604052809291908181526020018280546001816001161561010002031660029004801561454f5780601f106145245761010080835404028352916020019161454f565b820191906000526020600020905b81548152906001019060200180831161453257829003601f168201915b50505050508152505090508060000151816020015182604001518360600151846080015184945083935081915080905096509650965096509650505097509750975097509792505050565b60608060606000808510156145ae57600080fd5b6145b6615b8c565b600386815481106145c357fe5b9060005260206000209060040201604051806080016040529081600082018054600181600116156101000203166002900480601f0160208091040260200160405190810160405280929190818152602001828054600181600116156101000203166002900480156146755780601f1061464a57610100808354040283529160200191614675565b820191906000526020600020905b81548152906001019060200180831161465857829003601f168201915b50505050508152602001600182018054600181600116156101000203166002900480601f0160208091040260200160405190810160405280929190818152602001828054600181600116156101000203166002900480156147175780601f106146ec57610100808354040283529160200191614717565b820191906000526020600020905b8154815290600101906020018083116146fa57829003601f168201915b50505050508152602001600282018054600181600116156101000203166002900480601f0160208091040260200160405190810160405280929190818152602001828054600181600116156101000203166002900480156147b95780601f1061478e576101008083540402835291602001916147b9565b820191906000526020600020905b81548152906001019060200180831161479c57829003601f168201915b505050505081526020016003820160009054906101000a900473ffffffffffffffffffffffffffffffffffffffff1673ffffffffffffffffffffffffffffffffffffffff1673ffffffffffffffffffffffffffffffffffffffff1681525050905080600001519450806020015193508060400151925080606001519150509193509193565b6000600260008373ffffffffffffffffffffffffffffffffffffffff1673ffffffffffffffffffffffffffffffffffffffff168152602001908152602001600020805490509050919050565b6060600083101561489a57600080fd5b6148a2615ad6565b600260008473ffffffffffffffffffffffffffffffffffffffff1673ffffffffffffffffffffffffffffffffffffffff16815260200190815260200160002084815481106148ec57fe5b90600052602060002090600602016040518060c0016040529081600082018054600181600116156101000203166002900480601f01602080910402602001604051908101604052809291908181526020018280546001816001161561010002031660029004801561499e5780601f106149735761010080835404028352916020019161499e565b820191906000526020600020905b81548152906001019060200180831161498157829003601f168201915b50505050508152602001600182018054600181600116156101000203166002900480601f016020809104026020016040519081016040528092919081815260200182805460018160011615610100020316600290048015614a405780601f10614a1557610100808354040283529160200191614a40565b820191906000526020600020905b815481529060010190602001808311614a2357829003601f168201915b5050505050815260200160028201548152602001600382018054600181600116156101000203166002900480601f016020809104026020016040519081016040528092919081815260200182805460018160011615610100020316600290048015614aec5780601f10614ac157610100808354040283529160200191614aec565b820191906000526020600020905b815481529060010190602001808311614acf57829003601f168201915b50505050508152602001600482018054600181600116156101000203166002900480601f016020809104026020016040519081016040528092919081815260200182805460018160011615610100020316600290048015614b8e5780601f10614b6357610100808354040283529160200191614b8e565b820191906000526020600020905b815481529060010190602001808311614b7157829003601f168201915b50505050508152602001600582018054600181600116156101000203166002900480601f016020809104026020016040519081016040528092919081815260200182805460018160011615610100020316600290048015614c305780601f10614c0557610100808354040283529160200191614c30565b820191906000526020600020905b815481529060010190602001808311614c1357829003601f168201915b50505050508152505090508060a0015191505092915050565b6000600380549050905090565b60038181548110614c6357fe5b9060005260206000209060040201600091509050806000018054600181600116156101000203166002900480601f016020809104026020016040519081016040528092919081815260200182805460018160011615610100020316600290048015614d0f5780601f10614ce457610100808354040283529160200191614d0f565b820191906000526020600020905b815481529060010190602001808311614cf257829003601f168201915b505050505090806001018054600181600116156101000203166002900480601f016020809104026020016040519081016040528092919081815260200182805460018160011615610100020316600290048015614dad5780601f10614d8257610100808354040283529160200191614dad565b820191906000526020600020905b815481529060010190602001808311614d9057829003601f168201915b505050505090806002018054600181600116156101000203166002900480601f016020809104026020016040519081016040528092919081815260200182805460018160011615610100020316600290048015614e4b5780601f10614e2057610100808354040283529160200191614e4b565b820191906000526020600020905b815481529060010190602001808311614e2e57829003601f168201915b5050505050908060030160009054906101000a900473ffffffffffffffffffffffffffffffffffffffff16905084565b60608060006060806000871015614e9157600080fd5b614e99615ad6565b600260008873ffffffffffffffffffffffffffffffffffffffff1673ffffffffffffffffffffffffffffffffffffffff1681526020019081526020016000208881548110614ee357fe5b90600052602060002090600602016040518060c0016040529081600082018054600181600116156101000203166002900480601f016020809104026020016040519081016040528092919081815260200182805460018160011615610100020316600290048015614f955780601f10614f6a57610100808354040283529160200191614f95565b820191906000526020600020905b815481529060010190602001808311614f7857829003601f168201915b50505050508152602001600182018054600181600116156101000203166002900480601f0160208091040260200160405190810160405280929190818152602001828054600181600116156101000203166002900480156150375780601f1061500c57610100808354040283529160200191615037565b820191906000526020600020905b81548152906001019060200180831161501a57829003601f168201915b5050505050815260200160028201548152602001600382018054600181600116156101000203166002900480601f0160208091040260200160405190810160405280929190818152602001828054600181600116156101000203166002900480156150e35780601f106150b8576101008083540402835291602001916150e3565b820191906000526020600020905b8154815290600101906020018083116150c657829003601f168201915b50505050508152602001600482018054600181600116156101000203166002900480601f0160208091040260200160405190810160405280929190818152602001828054600181600116156101000203166002900480156151855780601f1061515a57610100808354040283529160200191615185565b820191906000526020600020905b81548152906001019060200180831161516857829003601f168201915b50505050508152602001600582018054600181600116156101000203166002900480601f0160208091040260200160405190810160405280929190818152602001828054600181600116156101000203166002900480156152275780601f106151fc57610100808354040283529160200191615227565b820191906000526020600020905b81548152906001019060200180831161520a57829003601f168201915b50505050508152505090508060000151816020015182604001518360600151846080015184945083935081915080905095509550955095509550509295509295909350565b60608060606000808851116152e9576040517f08c379a00000000000000000000000000000000000000000000000000000000081526004018080602001828103825260148152602001807f496e76616c69642053657276696365204e616d6500000000000000000000000081525060200191505060405180910390fd5b6000875111615360576040517f08c379a00000000000000000000000000000000000000000000000000000000081526004018080602001828103825260128152602001807f496e76616c6964204669727374204e616d65000000000000000000000000000081525060200191505060405180910390fd5b60008651116153d7576040517f08c379a00000000000000000000000000000000000000000000000000000000081526004018080602001828103825260118152602001807f496e76616c6964204c617374204e616d6500000000000000000000000000000081525060200191505060405180910390fd5b600360405180608001604052808a81526020018981526020018881526020018773ffffffffffffffffffffffffffffffffffffffff16815250908060018154018082558091505090600182039060005260206000209060040201600090919290919091506000820151816000019080519060200190615457929190615b0c565b506020820151816001019080519060200190615474929190615b0c565b506040820151816002019080519060200190615491929190615b0c565b5060608201518160030160006101000a81548173ffffffffffffffffffffffffffffffffffffffff021916908373ffffffffffffffffffffffffffffffffffffffff1602179055505050508793508692508591508490507f41a65d6cb7688ab168696b1f4181ebba2c0fc872e2e644063051ca6b9ef1091888888888604051808060200180602001806020018573ffffffffffffffffffffffffffffffffffffffff1673ffffffffffffffffffffffffffffffffffffffff168152602001848103845288818151815260200191508051906020019080838360005b8381101561558757808201518184015260208101905061556c565b50505050905090810190601f1680156155b45780820380516001836020036101000a031916815260200191505b50848103835287818151815260200191508051906020019080838360005b838110156155ed5780820151818401526020810190506155d2565b50505050905090810190601f16801561561a5780820380516001836020036101000a031916815260200191505b50848103825286818151815260200191508051906020019080838360005b83811015615653578082015181840152602081019050615638565b50505050905090810190601f1680156156805780820380516001836020036101000a031916815260200191505b5097505050505050505060405180910390a1945094509450949050565b606080600060608060008710156156b357600080fd5b6156bb615ad6565b600160008873ffffffffffffffffffffffffffffffffffffffff1673ffffffffffffffffffffffffffffffffffffffff168152602001908152602001600020888154811061570557fe5b90600052602060002090600602016040518060c0016040529081600082018054600181600116156101000203166002900480601f0160208091040260200160405190810160405280929190818152602001828054600181600116156101000203166002900480156157b75780601f1061578c576101008083540402835291602001916157b7565b820191906000526020600020905b81548152906001019060200180831161579a57829003601f168201915b50505050508152602001600182018054600181600116156101000203166002900480601f0160208091040260200160405190810160405280929190818152602001828054600181600116156101000203166002900480156158595780601f1061582e57610100808354040283529160200191615859565b820191906000526020600020905b81548152906001019060200180831161583c57829003601f168201915b5050505050815260200160028201548152602001600382018054600181600116156101000203166002900480601f0160208091040260200160405190810160405280929190818152602001828054600181600116156101000203166002900480156159055780601f106158da57610100808354040283529160200191615905565b820191906000526020600020905b8154815290600101906020018083116158e857829003601f168201915b50505050508152602001600482018054600181600116156101000203166002900480601f0160208091040260200160405190810160405280929190818152602001828054600181600116156101000203166002900480156159a75780601f1061597c576101008083540402835291602001916159a7565b820191906000526020600020905b81548152906001019060200180831161598a57829003601f168201915b50505050508152602001600582018054600181600116156101000203166002900480601f016020809104026020016040519081016040528092919081815260200182805460018160011615610100020316600290048015615a495780601f10615a1e57610100808354040283529160200191615a49565b820191906000526020600020905b815481529060010190602001808311615a2c57829003601f168201915b50505050508152505090508060000151816020015182604001518360600151846080015184945083935081915080905095509550955095509550509295509295909350565b50805460018160011615610100020316600290046000825580601f10615ab45750615ad3565b601f016020900490600052602060002090810190615ad29190615bca565b5b50565b6040518060c001604052806060815260200160608152602001600081526020016060815260200160608152602001606081525090565b828054600181600116156101000203166002900490600052602060002090601f016020900481019282601f10615b4d57805160ff1916838001178555615b7b565b82800160010185558215615b7b579182015b82811115615b7a578251825591602001919060010190615b5f565b5b509050615b889190615bca565b5090565b6040518060800160405280606081526020016060815260200160608152602001600073ffffffffffffffffffffffffffffffffffffffff1681525090565b615bec91905b80821115615be8576000816000905550600101615bd0565b5090565b9056fea265627a7a72315820f98b20148539d3c257b0f1cbf57e48af9f4860c02855ef296d67998ccb86505c64736f6c63430005110032",
  "source": "pragma solidity ^0.5.3;\n\ncontract Doc2eth{\n    \n    string public name = 'Doc2eth';\n\n    //File structure attributes\n    struct File {\n        string fileId;\n        string fileHash;\n        uint fileSize;\n        string fileType;\n        string fileName;\n        string key;\n        \n        \n        \n    }\n\n    struct User{\n      string service;\n      string firstname;\n      string lastname;\n      address userwallet;\n\n    }\n\n\n    //get all the current user files hashes that have been uploaded by the current user\n    mapping(address => File[]) public users;\n    // get all shared files hashes that have been shared to the current user\n    mapping(address => File[]) public shares;\n\n\n    // all users \n    User[] public allUsers;\n      //envent on file upload action\n\n     event FileUploaded(\n        string fileId,\n        string fileHash,\n        uint fileSize,\n        string fileType,\n        string fileName\n        \n  );\n      //event on file sharing action\n       event FileShareUploaded(\n        string fileId,\n        string fileHash,\n        uint fileSize,\n        string fileType,\n        string fileName\n        \n  );\n        event UserAdded(\n        string service,\n        string firstname,\n        string lastname,\n        address userwallet\n  );\n  \n  constructor() public {\n  }\n  //add new user info\n  function addUser(string memory _service,string memory _firstname,string memory _lastname,address _userwallet) public payable returns(string memory userservice,string memory ufirstname,string memory ulastname,address uaddress) {\n    require(bytes(_service).length > 0,\"Invalid Service Name\");\n    require(bytes(_firstname).length > 0,\"Invalid First Name\");\n    require(bytes(_lastname).length > 0,\"Invalid Last Name\");\n          \n    allUsers.push(User(_service,_firstname,_lastname,_userwallet));\n    userservice=_service;\n    ufirstname=_firstname;\n    ulastname=_lastname;\n    uaddress=_userwallet;\n\n    emit UserAdded(_service,_firstname,_lastname,_userwallet);\n    \n  }\n\n   function getCountusers() public view returns(uint){\n      \n    return allUsers.length;\n  }\n  //get all user info by index\n  function getAllUserInfo(uint _index) public view returns\n  (string memory userservice,string memory ufirstname,string memory ulastname,address uaddress) {\n      \n\n      require(_index>=0);\n      User memory tmp = allUsers[_index];\n      userservice=tmp.service;\n      ufirstname=tmp.firstname;\n      ulastname=tmp.lastname;\n      uaddress=tmp.userwallet;\n        \n  }\n \n\n   // function of uplading a file  \n  function uploadFile(address _address,string memory _fileId,string memory _fileHash, uint _fileSize, string memory _fileType, string memory _fileName,string memory _key) public returns(string memory,string memory,uint, string memory,string memory) {\n\n    require(bytes(_fileHash).length > 0,\"Invalid File Hash\");\n    require(bytes(_fileId).length > 0,\"Invalid File ID\");\n    require(bytes(_fileType).length > 0,\"Invalid File Type\");\n    require(bytes(_fileName).length > 0,\"Invalid Service Name\");\n    require(_address != address(0),\"Invalid address\");\n    require(_fileSize>0,\"Invalid File Size\");\n    require(bytes(_key).length > 0,\"Invalid key size\");\n    //require(bytes(_iv).length > 0,\"Invalid key size\");\n    \n    users[_address].push(File(_fileId,_fileHash, _fileSize, _fileType, _fileName,_key));\n    \n\n    emit FileUploaded(_fileId,_fileHash, _fileSize, _fileType, _fileName);\n\n\n    uint length = users[_address].length;\n\n    File memory file = users[_address][length-1];\n      \n    return (file.fileId,file.fileHash,file.fileSize,file.fileType,file.fileName);\n  }\n  \n  function getCount(address _address) public view returns(uint){\n      \n    return users[_address].length;\n  }\n  //return files of current user\n\n  function getFilesofUser(uint _index, address _address)\n  public view returns(string memory,string memory,uint, string memory,string memory) {\n      \n      \n      require(_index>=0);\n      \n      File memory file = users[_address][_index];\n      \n      return (file.fileId,file.fileHash,file.fileSize,file.fileType,file.fileName);\n    \n  }\n  function getFilekey(uint _index, address _address)\n  public view returns(string memory) {\n      \n      \n      require(_index>=0);\n      \n      File memory file = users[_address][_index];\n      \n      return file.key;\n    \n  }\n  function getSharekey(uint _index, address _address)\n  public view returns(string memory) {\n      \n      \n      require(_index>=0);\n      \n      File memory file = shares[_address][_index];\n      \n      return file.key;\n    \n  }\n\n\n\n    //remove file hash from the blockchain\n    function removeHash(string memory _fileId, address _address) public {\n      \n         File[] storage f = users[_address];\n  \n         for (uint i = 0; i < f.length; i++) {\n             if (keccak256(abi.encodePacked(f[i].fileId)) == keccak256(abi.encodePacked(_fileId))) {\n              \n               delete users[_address][i];\n                 \n             }\n             \n         }\n  }\n  //share file\n  function uploadShareFile(address _to,string memory _fileId,string memory _fileHash, uint _fileSize, string memory _fileType, string memory _fileName,string memory _key) public returns(string memory,string memory,uint, string memory,string memory) {\n\n    require(bytes(_fileHash).length > 0,\"Invalid File Hash\");\n    require(bytes(_fileId).length > 0,\"Invalid File ID\");\n    require(bytes(_fileType).length > 0,\"Invalid File Type\");\n    require(bytes(_fileName).length > 0,\"Invalid Service Name\");\n    require(_to!=address(0),\"Invalid receiver address\");\n    require(_fileSize>0,\"Invalid File Size\");\n    require(bytes(_key).length > 0,\"Invalid key size\");\n    \n    \n    shares[_to].push(File(_fileId,_fileHash, _fileSize, _fileType, _fileName,_key));\n\n\n    emit FileShareUploaded(_fileId,_fileHash, _fileSize, _fileType, _fileName);\n\n\n    uint length = shares[_to].length;\n\n    File memory file = shares[_to][length-1];\n      \n    return (file.fileId,file.fileHash,file.fileSize,file.fileType,file.fileName);\n  }\n\n  //get the number of shared files\n\n  function getShareCount(address _address) public view returns(uint){\n      \n    return shares[_address].length;\n  }\n  \n  function getShareFilesofUser(uint _index,address _address) public view returns(string memory,string memory,uint, string memory,string memory) {\n      \n      \n      require(_index>=0);\n      \n      File memory file = shares[_address][_index];\n      \n      return (file.fileId,file.fileHash,file.fileSize,file.fileType,file.fileName);\n    \n  }\n    // remove hash of a shred files for current user in the blockchain\n  function removeShareHash(string memory _fileId,address _address) public {\n      \n         File[] storage f = shares[_address];\n  \n         for (uint i = 0; i < f.length; i++) {\n             if (keccak256(abi.encodePacked(f[i].fileId)) == keccak256(abi.encodePacked(_fileId))) {\n              \n               delete shares[_address][i];\n                 \n             }\n             \n         }\n  }\n\n    \n}",
  "sourcePath": "D:/WorkSpaces/Pfe/ETBSSI/contracts/Doc2eth.sol",
  "compiler": {
    "name": "solc",
    "version": "0.5.17+commit.d19bba13.Emscripten.clang"
  },
  "schemaVersion": "3.3.4",
  "updatedAt": "2021-06-17T14:43:37.057Z",
  "networkType": "ethereum",
  "devdoc": {
    "methods": {}
  },
  "userdoc": {
    "methods": {}
  }
}