{
  "contractName": "Zap",
  "abi": [
    {
      "constant": true,
      "inputs": [],
      "name": "name",
      "outputs": [
        {
          "name": "",
          "type": "string"
        }
      ],
      "payable": false,
      "stateMutability": "view",
      "type": "function"
    },
    {
      "constant": true,
      "inputs": [
        {
          "name": "",
          "type": "address"
        },
        {
          "name": "",
          "type": "uint256"
        }
      ],
      "name": "shares",
      "outputs": [
        {
          "name": "fileId",
          "type": "string"
        },
        {
          "name": "fileHash",
          "type": "string"
        },
        {
          "name": "fileSize",
          "type": "uint256"
        },
        {
          "name": "fileType",
          "type": "string"
        },
        {
          "name": "fileName",
          "type": "string"
        },
        {
          "name": "uploadTime",
          "type": "uint256"
        }
      ],
      "payable": false,
      "stateMutability": "view",
      "type": "function"
    },
    {
      "constant": true,
      "inputs": [
        {
          "name": "",
          "type": "address"
        },
        {
          "name": "",
          "type": "uint256"
        }
      ],
      "name": "users",
      "outputs": [
        {
          "name": "fileId",
          "type": "string"
        },
        {
          "name": "fileHash",
          "type": "string"
        },
        {
          "name": "fileSize",
          "type": "uint256"
        },
        {
          "name": "fileType",
          "type": "string"
        },
        {
          "name": "fileName",
          "type": "string"
        },
        {
          "name": "uploadTime",
          "type": "uint256"
        }
      ],
      "payable": false,
      "stateMutability": "view",
      "type": "function"
    },
    {
      "inputs": [],
      "payable": false,
      "stateMutability": "nonpayable",
      "type": "constructor"
    },
    {
      "anonymous": false,
      "inputs": [
        {
          "indexed": false,
          "name": "fileId",
          "type": "string"
        },
        {
          "indexed": false,
          "name": "fileHash",
          "type": "string"
        },
        {
          "indexed": false,
          "name": "fileSize",
          "type": "uint256"
        },
        {
          "indexed": false,
          "name": "fileType",
          "type": "string"
        },
        {
          "indexed": false,
          "name": "fileName",
          "type": "string"
        },
        {
          "indexed": false,
          "name": "uploadTime",
          "type": "uint256"
        }
      ],
      "name": "FileUploaded",
      "type": "event"
    },
    {
      "anonymous": false,
      "inputs": [
        {
          "indexed": false,
          "name": "fileId",
          "type": "string"
        },
        {
          "indexed": false,
          "name": "fileHash",
          "type": "string"
        },
        {
          "indexed": false,
          "name": "fileSize",
          "type": "uint256"
        },
        {
          "indexed": false,
          "name": "fileType",
          "type": "string"
        },
        {
          "indexed": false,
          "name": "fileName",
          "type": "string"
        },
        {
          "indexed": false,
          "name": "uploadTime",
          "type": "uint256"
        }
      ],
      "name": "FileShareUploaded",
      "type": "event"
    },
    {
      "constant": false,
      "inputs": [
        {
          "name": "_address",
          "type": "address"
        },
        {
          "name": "_fileId",
          "type": "string"
        },
        {
          "name": "_fileHash",
          "type": "string"
        },
        {
          "name": "_fileSize",
          "type": "uint256"
        },
        {
          "name": "_fileType",
          "type": "string"
        },
        {
          "name": "_fileName",
          "type": "string"
        }
      ],
      "name": "uploadFile",
      "outputs": [
        {
          "name": "",
          "type": "string"
        },
        {
          "name": "",
          "type": "string"
        },
        {
          "name": "",
          "type": "uint256"
        },
        {
          "name": "",
          "type": "string"
        },
        {
          "name": "",
          "type": "string"
        },
        {
          "name": "",
          "type": "uint256"
        }
      ],
      "payable": false,
      "stateMutability": "nonpayable",
      "type": "function"
    },
    {
      "constant": true,
      "inputs": [
        {
          "name": "_address",
          "type": "address"
        }
      ],
      "name": "getCount",
      "outputs": [
        {
          "name": "",
          "type": "uint256"
        }
      ],
      "payable": false,
      "stateMutability": "view",
      "type": "function"
    },
    {
      "constant": true,
      "inputs": [
        {
          "name": "_index",
          "type": "uint256"
        },
        {
          "name": "_address",
          "type": "address"
        }
      ],
      "name": "getFilesofUser",
      "outputs": [
        {
          "name": "",
          "type": "string"
        },
        {
          "name": "",
          "type": "string"
        },
        {
          "name": "",
          "type": "uint256"
        },
        {
          "name": "",
          "type": "string"
        },
        {
          "name": "",
          "type": "string"
        },
        {
          "name": "",
          "type": "uint256"
        }
      ],
      "payable": false,
      "stateMutability": "view",
      "type": "function"
    },
    {
      "constant": false,
      "inputs": [
        {
          "name": "_fileId",
          "type": "string"
        },
        {
          "name": "_address",
          "type": "address"
        }
      ],
      "name": "removeHash",
      "outputs": [],
      "payable": false,
      "stateMutability": "nonpayable",
      "type": "function"
    },
    {
      "constant": false,
      "inputs": [
        {
          "name": "_to",
          "type": "address"
        },
        {
          "name": "_fileId",
          "type": "string"
        },
        {
          "name": "_fileHash",
          "type": "string"
        },
        {
          "name": "_fileSize",
          "type": "uint256"
        },
        {
          "name": "_fileType",
          "type": "string"
        },
        {
          "name": "_fileName",
          "type": "string"
        }
      ],
      "name": "uploadShareFile",
      "outputs": [
        {
          "name": "",
          "type": "string"
        },
        {
          "name": "",
          "type": "string"
        },
        {
          "name": "",
          "type": "uint256"
        },
        {
          "name": "",
          "type": "string"
        },
        {
          "name": "",
          "type": "string"
        },
        {
          "name": "",
          "type": "uint256"
        }
      ],
      "payable": false,
      "stateMutability": "nonpayable",
      "type": "function"
    },
    {
      "constant": true,
      "inputs": [
        {
          "name": "_address",
          "type": "address"
        }
      ],
      "name": "getShareCount",
      "outputs": [
        {
          "name": "",
          "type": "uint256"
        }
      ],
      "payable": false,
      "stateMutability": "view",
      "type": "function"
    },
    {
      "constant": true,
      "inputs": [
        {
          "name": "_index",
          "type": "uint256"
        },
        {
          "name": "_address",
          "type": "address"
        }
      ],
      "name": "getShareFilesofUser",
      "outputs": [
        {
          "name": "",
          "type": "string"
        },
        {
          "name": "",
          "type": "string"
        },
        {
          "name": "",
          "type": "uint256"
        },
        {
          "name": "",
          "type": "string"
        },
        {
          "name": "",
          "type": "string"
        },
        {
          "name": "",
          "type": "uint256"
        }
      ],
      "payable": false,
      "stateMutability": "view",
      "type": "function"
    },
    {
      "constant": false,
      "inputs": [
        {
          "name": "_fileId",
          "type": "string"
        },
        {
          "name": "_address",
          "type": "address"
        }
      ],
      "name": "removeShareHash",
      "outputs": [],
      "payable": false,
      "stateMutability": "nonpayable",
      "type": "function"
    }
  ],
  "bytecode": "0x60806040526040805190810160405280600381526020017f5a61700000000000000000000000000000000000000000000000000000000000815250600090805190602001906200005192919062000066565b503480156200005f57600080fd5b5062000115565b828054600181600116156101000203166002900490600052602060002090601f016020900481019282601f10620000a957805160ff1916838001178555620000da565b82800160010185558215620000da579182015b82811115620000d9578251825591602001919060010190620000bc565b5b509050620000e99190620000ed565b5090565b6200011291905b808211156200010e576000816000905550600101620000f4565b5090565b90565b6136a280620001256000396000f3fe608060405234801561001057600080fd5b50600436106100c6576000357c0100000000000000000000000000000000000000000000000000000000900480634f0cd27b1161008e5780634f0cd27b1461099257806354a02f9e146109ea578063729d846014610c03578063a6f3437014610c5b578063aefbbfca14610e74578063e82240f8146112e9576100c6565b806306fdde03146100cb5780630b6eab0f1461014e578063259ddefc1461022957806326c6a263146104425780632b09808b1461051d575b600080fd5b6100d3611502565b6040518080602001828103825283818151815260200191508051906020019080838360005b838110156101135780820151818401526020810190506100f8565b50505050905090810190601f1680156101405780820380516001836020036101000a031916815260200191505b509250505060405180910390f35b6102276004803603604081101561016457600080fd5b810190808035906020019064010000000081111561018157600080fd5b82018360208201111561019357600080fd5b803590602001918460018302840111640100000000831117156101b557600080fd5b91908080601f016020809104026020016040519081016040528093929190818152602001838380828437600081840152601f19601f820116905080830192505050505050509192919290803573ffffffffffffffffffffffffffffffffffffffff1690602001909291905050506115a0565b005b6102756004803603604081101561023f57600080fd5b81019080803573ffffffffffffffffffffffffffffffffffffffff169060200190929190803590602001909291905050506117c8565b604051808060200180602001878152602001806020018060200186815260200185810385528b818151815260200191508051906020019080838360005b838110156102cd5780820151818401526020810190506102b2565b50505050905090810190601f1680156102fa5780820380516001836020036101000a031916815260200191505b5085810384528a818151815260200191508051906020019080838360005b83811015610333578082015181840152602081019050610318565b50505050905090810190601f1680156103605780820380516001836020036101000a031916815260200191505b50858103835288818151815260200191508051906020019080838360005b8381101561039957808201518184015260208101905061037e565b50505050905090810190601f1680156103c65780820380516001836020036101000a031916815260200191505b50858103825287818151815260200191508051906020019080838360005b838110156103ff5780820151818401526020810190506103e4565b50505050905090810190601f16801561042c5780820380516001836020036101000a031916815260200191505b509a505050505050505050505060405180910390f35b61051b6004803603604081101561045857600080fd5b810190808035906020019064010000000081111561047557600080fd5b82018360208201111561048757600080fd5b803590602001918460018302840111640100000000831117156104a957600080fd5b91908080601f016020809104026020016040519081016040528093929190818152602001838380828437600081840152601f19601f820116905080830192505050505050509192919290803573ffffffffffffffffffffffffffffffffffffffff169060200190929190505050611a80565b005b6107c5600480360360c081101561053357600080fd5b81019080803573ffffffffffffffffffffffffffffffffffffffff1690602001909291908035906020019064010000000081111561057057600080fd5b82018360208201111561058257600080fd5b803590602001918460018302840111640100000000831117156105a457600080fd5b91908080601f016020809104026020016040519081016040528093929190818152602001838380828437600081840152601f19601f8201169050808301925050505050505091929192908035906020019064010000000081111561060757600080fd5b82018360208201111561061957600080fd5b8035906020019184600183028401116401000000008311171561063b57600080fd5b91908080601f016020809104026020016040519081016040528093929190818152602001838380828437600081840152601f19601f82011690508083019250505050505050919291929080359060200190929190803590602001906401000000008111156106a857600080fd5b8201836020820111156106ba57600080fd5b803590602001918460018302840111640100000000831117156106dc57600080fd5b91908080601f016020809104026020016040519081016040528093929190818152602001838380828437600081840152601f19601f8201169050808301925050505050505091929192908035906020019064010000000081111561073f57600080fd5b82018360208201111561075157600080fd5b8035906020019184600183028401116401000000008311171561077357600080fd5b91908080601f016020809104026020016040519081016040528093929190818152602001838380828437600081840152601f19601f820116905080830192505050505050509192919290505050611ca8565b604051808060200180602001878152602001806020018060200186815260200185810385528b818151815260200191508051906020019080838360005b8381101561081d578082015181840152602081019050610802565b50505050905090810190601f16801561084a5780820380516001836020036101000a031916815260200191505b5085810384528a818151815260200191508051906020019080838360005b83811015610883578082015181840152602081019050610868565b50505050905090810190601f1680156108b05780820380516001836020036101000a031916815260200191505b50858103835288818151815260200191508051906020019080838360005b838110156108e95780820151818401526020810190506108ce565b50505050905090810190601f1680156109165780820380516001836020036101000a031916815260200191505b50858103825287818151815260200191508051906020019080838360005b8381101561094f578082015181840152602081019050610934565b50505050905090810190601f16801561097c5780820380516001836020036101000a031916815260200191505b509a505050505050505050505060405180910390f35b6109d4600480360360208110156109a857600080fd5b81019080803573ffffffffffffffffffffffffffffffffffffffff1690602001909291905050506123ef565b6040518082815260200191505060405180910390f35b610a3660048036036040811015610a0057600080fd5b81019080803573ffffffffffffffffffffffffffffffffffffffff1690602001909291908035906020019092919050505061243b565b604051808060200180602001878152602001806020018060200186815260200185810385528b818151815260200191508051906020019080838360005b83811015610a8e578082015181840152602081019050610a73565b50505050905090810190601f168015610abb5780820380516001836020036101000a031916815260200191505b5085810384528a818151815260200191508051906020019080838360005b83811015610af4578082015181840152602081019050610ad9565b50505050905090810190601f168015610b215780820380516001836020036101000a031916815260200191505b50858103835288818151815260200191508051906020019080838360005b83811015610b5a578082015181840152602081019050610b3f565b50505050905090810190601f168015610b875780820380516001836020036101000a031916815260200191505b50858103825287818151815260200191508051906020019080838360005b83811015610bc0578082015181840152602081019050610ba5565b50505050905090810190601f168015610bed5780820380516001836020036101000a031916815260200191505b509a505050505050505050505060405180910390f35b610c4560048036036020811015610c1957600080fd5b81019080803573ffffffffffffffffffffffffffffffffffffffff1690602001909291905050506126f3565b6040518082815260200191505060405180910390f35b610ca760048036036040811015610c7157600080fd5b8101908080359060200190929190803573ffffffffffffffffffffffffffffffffffffffff16906020019092919050505061273f565b604051808060200180602001878152602001806020018060200186815260200185810385528b818151815260200191508051906020019080838360005b83811015610cff578082015181840152602081019050610ce4565b50505050905090810190601f168015610d2c5780820380516001836020036101000a031916815260200191505b5085810384528a818151815260200191508051906020019080838360005b83811015610d65578082015181840152602081019050610d4a565b50505050905090810190601f168015610d925780820380516001836020036101000a031916815260200191505b50858103835288818151815260200191508051906020019080838360005b83811015610dcb578082015181840152602081019050610db0565b50505050905090810190601f168015610df85780820380516001836020036101000a031916815260200191505b50858103825287818151815260200191508051906020019080838360005b83811015610e31578082015181840152602081019050610e16565b50505050905090810190601f168015610e5e5780820380516001836020036101000a031916815260200191505b509a505050505050505050505060405180910390f35b61111c600480360360c0811015610e8a57600080fd5b81019080803573ffffffffffffffffffffffffffffffffffffffff16906020019092919080359060200190640100000000811115610ec757600080fd5b820183602082011115610ed957600080fd5b80359060200191846001830284011164010000000083111715610efb57600080fd5b91908080601f016020809104026020016040519081016040528093929190818152602001838380828437600081840152601f19601f82011690508083019250505050505050919291929080359060200190640100000000811115610f5e57600080fd5b820183602082011115610f7057600080fd5b80359060200191846001830284011164010000000083111715610f9257600080fd5b91908080601f016020809104026020016040519081016040528093929190818152602001838380828437600081840152601f19601f8201169050808301925050505050505091929192908035906020019092919080359060200190640100000000811115610fff57600080fd5b82018360208201111561101157600080fd5b8035906020019184600183028401116401000000008311171561103357600080fd5b91908080601f016020809104026020016040519081016040528093929190818152602001838380828437600081840152601f19601f8201169050808301925050505050505091929192908035906020019064010000000081111561109657600080fd5b8201836020820111156110a857600080fd5b803590602001918460018302840111640100000000831117156110ca57600080fd5b91908080601f016020809104026020016040519081016040528093929190818152602001838380828437600081840152601f19601f820116905080830192505050505050509192919290505050612aa5565b604051808060200180602001878152602001806020018060200186815260200185810385528b818151815260200191508051906020019080838360005b83811015611174578082015181840152602081019050611159565b50505050905090810190601f1680156111a15780820380516001836020036101000a031916815260200191505b5085810384528a818151815260200191508051906020019080838360005b838110156111da5780820151818401526020810190506111bf565b50505050905090810190601f1680156112075780820380516001836020036101000a031916815260200191505b50858103835288818151815260200191508051906020019080838360005b83811015611240578082015181840152602081019050611225565b50505050905090810190601f16801561126d5780820380516001836020036101000a031916815260200191505b50858103825287818151815260200191508051906020019080838360005b838110156112a657808201518184015260208101905061128b565b50505050905090810190601f1680156112d35780820380516001836020036101000a031916815260200191505b509a505050505050505050505060405180910390f35b611335600480360360408110156112ff57600080fd5b8101908080359060200190929190803573ffffffffffffffffffffffffffffffffffffffff1690602001909291905050506131ec565b604051808060200180602001878152602001806020018060200186815260200185810385528b818151815260200191508051906020019080838360005b8381101561138d578082015181840152602081019050611372565b50505050905090810190601f1680156113ba5780820380516001836020036101000a031916815260200191505b5085810384528a818151815260200191508051906020019080838360005b838110156113f35780820151818401526020810190506113d8565b50505050905090810190601f1680156114205780820380516001836020036101000a031916815260200191505b50858103835288818151815260200191508051906020019080838360005b8381101561145957808201518184015260208101905061143e565b50505050905090810190601f1680156114865780820380516001836020036101000a031916815260200191505b50858103825287818151815260200191508051906020019080838360005b838110156114bf5780820151818401526020810190506114a4565b50505050905090810190601f1680156114ec5780820380516001836020036101000a031916815260200191505b509a505050505050505050505060405180910390f35b60008054600181600116156101000203166002900480601f0160208091040260200160405190810160405280929190818152602001828054600181600116156101000203166002900480156115985780601f1061156d57610100808354040283529160200191611598565b820191906000526020600020905b81548152906001019060200180831161157b57829003601f168201915b505050505081565b6000600160008373ffffffffffffffffffffffffffffffffffffffff1673ffffffffffffffffffffffffffffffffffffffff168152602001908152602001600020905060008090505b81805490508110156117c257836040516020018082805190602001908083835b60208310151561162e5780518252602082019150602081019050602083039250611609565b6001836020036101000a03801982511681845116808217855250505050505090500191505060405160208183030381529060405280519060200120828281548110151561167757fe5b906000526020600020906006020160000160405160200180828054600181600116156101000203166002900480156116e65780601f106116c45761010080835404028352918201916116e6565b820191906000526020600020905b8154815290600101906020018083116116d2575b50509150506040516020818303038152906040528051906020012014156117b557600160008473ffffffffffffffffffffffffffffffffffffffff1673ffffffffffffffffffffffffffffffffffffffff1681526020019081526020016000208181548110151561175357fe5b9060005260206000209060060201600080820160006117729190613552565b6001820160006117829190613552565b600282016000905560038201600061179a9190613552565b6004820160006117aa9190613552565b600582016000905550505b80806001019150506115e9565b50505050565b6002602052816000526040600020818154811015156117e357fe5b906000526020600020906006020160009150915050806000018054600181600116156101000203166002900480601f0160208091040260200160405190810160405280929190818152602001828054600181600116156101000203166002900480156118905780601f1061186557610100808354040283529160200191611890565b820191906000526020600020905b81548152906001019060200180831161187357829003601f168201915b505050505090806001018054600181600116156101000203166002900480601f01602080910402602001604051908101604052809291908181526020018280546001816001161561010002031660029004801561192e5780601f106119035761010080835404028352916020019161192e565b820191906000526020600020905b81548152906001019060200180831161191157829003601f168201915b505050505090806002015490806003018054600181600116156101000203166002900480601f0160208091040260200160405190810160405280929190818152602001828054600181600116156101000203166002900480156119d25780601f106119a7576101008083540402835291602001916119d2565b820191906000526020600020905b8154815290600101906020018083116119b557829003601f168201915b505050505090806004018054600181600116156101000203166002900480601f016020809104026020016040519081016040528092919081815260200182805460018160011615610100020316600290048015611a705780601f10611a4557610100808354040283529160200191611a70565b820191906000526020600020905b815481529060010190602001808311611a5357829003601f168201915b5050505050908060050154905086565b6000600260008373ffffffffffffffffffffffffffffffffffffffff1673ffffffffffffffffffffffffffffffffffffffff168152602001908152602001600020905060008090505b8180549050811015611ca257836040516020018082805190602001908083835b602083101515611b0e5780518252602082019150602081019050602083039250611ae9565b6001836020036101000a038019825116818451168082178552505050505050905001915050604051602081830303815290604052805190602001208282815481101515611b5757fe5b90600052602060002090600602016000016040516020018082805460018160011615610100020316600290048015611bc65780601f10611ba4576101008083540402835291820191611bc6565b820191906000526020600020905b815481529060010190602001808311611bb2575b5050915050604051602081830303815290604052805190602001201415611c9557600260008473ffffffffffffffffffffffffffffffffffffffff1673ffffffffffffffffffffffffffffffffffffffff16815260200190815260200160002081815481101515611c3357fe5b906000526020600020906006020160008082016000611c529190613552565b600182016000611c629190613552565b6002820160009055600382016000611c7a9190613552565b600482016000611c8a9190613552565b600582016000905550505b8080600101915050611ac9565b50505050565b60608060006060806000808a51111515611cc157600080fd5b60008b51111515611cd157600080fd5b60008851111515611ce157600080fd5b60008751111515611cf157600080fd5b600073ffffffffffffffffffffffffffffffffffffffff168c73ffffffffffffffffffffffffffffffffffffffff1614151515611d2d57600080fd5b600089111515611d3c57600080fd5b600160008d73ffffffffffffffffffffffffffffffffffffffff1673ffffffffffffffffffffffffffffffffffffffff16815260200190815260200160002060c0604051908101604052808d81526020018c81526020018b81526020018a815260200189815260200142815250908060018154018082558091505090600182039060005260206000209060060201600090919290919091506000820151816000019080519060200190611df092919061359a565b506020820151816001019080519060200190611e0d92919061359a565b50604082015181600201556060820151816003019080519060200190611e3492919061359a565b506080820151816004019080519060200190611e5192919061359a565b5060a082015181600501555050507f6c1f9a68defcb9c01c4d23ec8500356148eb1397f05f30b04bf432fdc596bda28b8b8b8b8b42604051808060200180602001878152602001806020018060200186815260200185810385528b818151815260200191508051906020019080838360005b83811015611ede578082015181840152602081019050611ec3565b50505050905090810190601f168015611f0b5780820380516001836020036101000a031916815260200191505b5085810384528a818151815260200191508051906020019080838360005b83811015611f44578082015181840152602081019050611f29565b50505050905090810190601f168015611f715780820380516001836020036101000a031916815260200191505b50858103835288818151815260200191508051906020019080838360005b83811015611faa578082015181840152602081019050611f8f565b50505050905090810190601f168015611fd75780820380516001836020036101000a031916815260200191505b50858103825287818151815260200191508051906020019080838360005b83811015612010578082015181840152602081019050611ff5565b50505050905090810190601f16801561203d5780820380516001836020036101000a031916815260200191505b509a505050505050505050505060405180910390a16000600160008e73ffffffffffffffffffffffffffffffffffffffff1673ffffffffffffffffffffffffffffffffffffffff1681526020019081526020016000208054905090506120a161361a565b600160008f73ffffffffffffffffffffffffffffffffffffffff1673ffffffffffffffffffffffffffffffffffffffff168152602001908152602001600020600183038154811015156120f057fe5b906000526020600020906006020160c06040519081016040529081600082018054600181600116156101000203166002900480601f0160208091040260200160405190810160405280929190818152602001828054600181600116156101000203166002900480156121a35780601f10612178576101008083540402835291602001916121a3565b820191906000526020600020905b81548152906001019060200180831161218657829003601f168201915b50505050508152602001600182018054600181600116156101000203166002900480601f0160208091040260200160405190810160405280929190818152602001828054600181600116156101000203166002900480156122455780601f1061221a57610100808354040283529160200191612245565b820191906000526020600020905b81548152906001019060200180831161222857829003601f168201915b5050505050815260200160028201548152602001600382018054600181600116156101000203166002900480601f0160208091040260200160405190810160405280929190818152602001828054600181600116156101000203166002900480156122f15780601f106122c6576101008083540402835291602001916122f1565b820191906000526020600020905b8154815290600101906020018083116122d457829003601f168201915b50505050508152602001600482018054600181600116156101000203166002900480601f0160208091040260200160405190810160405280929190818152602001828054600181600116156101000203166002900480156123935780601f1061236857610100808354040283529160200191612393565b820191906000526020600020905b81548152906001019060200180831161237657829003601f168201915b505050505081526020016005820154815250509050806000015181602001518260400151836060015184608001518560a00151859550849450829250819150975097509750975097509750505096509650965096509650969050565b6000600160008373ffffffffffffffffffffffffffffffffffffffff1673ffffffffffffffffffffffffffffffffffffffff168152602001908152602001600020805490509050919050565b60016020528160005260406000208181548110151561245657fe5b906000526020600020906006020160009150915050806000018054600181600116156101000203166002900480601f0160208091040260200160405190810160405280929190818152602001828054600181600116156101000203166002900480156125035780601f106124d857610100808354040283529160200191612503565b820191906000526020600020905b8154815290600101906020018083116124e657829003601f168201915b505050505090806001018054600181600116156101000203166002900480601f0160208091040260200160405190810160405280929190818152602001828054600181600116156101000203166002900480156125a15780601f10612576576101008083540402835291602001916125a1565b820191906000526020600020905b81548152906001019060200180831161258457829003601f168201915b505050505090806002015490806003018054600181600116156101000203166002900480601f0160208091040260200160405190810160405280929190818152602001828054600181600116156101000203166002900480156126455780601f1061261a57610100808354040283529160200191612645565b820191906000526020600020905b81548152906001019060200180831161262857829003601f168201915b505050505090806004018054600181600116156101000203166002900480601f0160208091040260200160405190810160405280929190818152602001828054600181600116156101000203166002900480156126e35780601f106126b8576101008083540402835291602001916126e3565b820191906000526020600020905b8154815290600101906020018083116126c657829003601f168201915b5050505050908060050154905086565b6000600260008373ffffffffffffffffffffffffffffffffffffffff1673ffffffffffffffffffffffffffffffffffffffff168152602001908152602001600020805490509050919050565b6060806000606080600080881015151561275857600080fd5b61276061361a565b600260008973ffffffffffffffffffffffffffffffffffffffff1673ffffffffffffffffffffffffffffffffffffffff168152602001908152602001600020898154811015156127ac57fe5b906000526020600020906006020160c06040519081016040529081600082018054600181600116156101000203166002900480601f01602080910402602001604051908101604052809291908181526020018280546001816001161561010002031660029004801561285f5780601f106128345761010080835404028352916020019161285f565b820191906000526020600020905b81548152906001019060200180831161284257829003601f168201915b50505050508152602001600182018054600181600116156101000203166002900480601f0160208091040260200160405190810160405280929190818152602001828054600181600116156101000203166002900480156129015780601f106128d657610100808354040283529160200191612901565b820191906000526020600020905b8154815290600101906020018083116128e457829003601f168201915b5050505050815260200160028201548152602001600382018054600181600116156101000203166002900480601f0160208091040260200160405190810160405280929190818152602001828054600181600116156101000203166002900480156129ad5780601f10612982576101008083540402835291602001916129ad565b820191906000526020600020905b81548152906001019060200180831161299057829003601f168201915b50505050508152602001600482018054600181600116156101000203166002900480601f016020809104026020016040519081016040528092919081815260200182805460018160011615610100020316600290048015612a4f5780601f10612a2457610100808354040283529160200191612a4f565b820191906000526020600020905b815481529060010190602001808311612a3257829003601f168201915b505050505081526020016005820154815250509050806000015181602001518260400151836060015184608001518560a00151859550849450829250819150965096509650965096509650509295509295509295565b60608060006060806000808a51111515612abe57600080fd5b60008b51111515612ace57600080fd5b60008851111515612ade57600080fd5b60008751111515612aee57600080fd5b600073ffffffffffffffffffffffffffffffffffffffff168c73ffffffffffffffffffffffffffffffffffffffff1614151515612b2a57600080fd5b600089111515612b3957600080fd5b600260008d73ffffffffffffffffffffffffffffffffffffffff1673ffffffffffffffffffffffffffffffffffffffff16815260200190815260200160002060c0604051908101604052808d81526020018c81526020018b81526020018a815260200189815260200142815250908060018154018082558091505090600182039060005260206000209060060201600090919290919091506000820151816000019080519060200190612bed92919061359a565b506020820151816001019080519060200190612c0a92919061359a565b50604082015181600201556060820151816003019080519060200190612c3192919061359a565b506080820151816004019080519060200190612c4e92919061359a565b5060a082015181600501555050507fab1ca4b4cb31dc367f42d2745e7b10bdb6a3cd4adec76e94e4d15fc4974900568b8b8b8b8b42604051808060200180602001878152602001806020018060200186815260200185810385528b818151815260200191508051906020019080838360005b83811015612cdb578082015181840152602081019050612cc0565b50505050905090810190601f168015612d085780820380516001836020036101000a031916815260200191505b5085810384528a818151815260200191508051906020019080838360005b83811015612d41578082015181840152602081019050612d26565b50505050905090810190601f168015612d6e5780820380516001836020036101000a031916815260200191505b50858103835288818151815260200191508051906020019080838360005b83811015612da7578082015181840152602081019050612d8c565b50505050905090810190601f168015612dd45780820380516001836020036101000a031916815260200191505b50858103825287818151815260200191508051906020019080838360005b83811015612e0d578082015181840152602081019050612df2565b50505050905090810190601f168015612e3a5780820380516001836020036101000a031916815260200191505b509a505050505050505050505060405180910390a16000600260008e73ffffffffffffffffffffffffffffffffffffffff1673ffffffffffffffffffffffffffffffffffffffff168152602001908152602001600020805490509050612e9e61361a565b600260008f73ffffffffffffffffffffffffffffffffffffffff1673ffffffffffffffffffffffffffffffffffffffff16815260200190815260200160002060018303815481101515612eed57fe5b906000526020600020906006020160c06040519081016040529081600082018054600181600116156101000203166002900480601f016020809104026020016040519081016040528092919081815260200182805460018160011615610100020316600290048015612fa05780601f10612f7557610100808354040283529160200191612fa0565b820191906000526020600020905b815481529060010190602001808311612f8357829003601f168201915b50505050508152602001600182018054600181600116156101000203166002900480601f0160208091040260200160405190810160405280929190818152602001828054600181600116156101000203166002900480156130425780601f1061301757610100808354040283529160200191613042565b820191906000526020600020905b81548152906001019060200180831161302557829003601f168201915b5050505050815260200160028201548152602001600382018054600181600116156101000203166002900480601f0160208091040260200160405190810160405280929190818152602001828054600181600116156101000203166002900480156130ee5780601f106130c3576101008083540402835291602001916130ee565b820191906000526020600020905b8154815290600101906020018083116130d157829003601f168201915b50505050508152602001600482018054600181600116156101000203166002900480601f0160208091040260200160405190810160405280929190818152602001828054600181600116156101000203166002900480156131905780601f1061316557610100808354040283529160200191613190565b820191906000526020600020905b81548152906001019060200180831161317357829003601f168201915b505050505081526020016005820154815250509050806000015181602001518260400151836060015184608001518560a00151859550849450829250819150975097509750975097509750505096509650965096509650969050565b6060806000606080600080881015151561320557600080fd5b61320d61361a565b600160008973ffffffffffffffffffffffffffffffffffffffff1673ffffffffffffffffffffffffffffffffffffffff1681526020019081526020016000208981548110151561325957fe5b906000526020600020906006020160c06040519081016040529081600082018054600181600116156101000203166002900480601f01602080910402602001604051908101604052809291908181526020018280546001816001161561010002031660029004801561330c5780601f106132e15761010080835404028352916020019161330c565b820191906000526020600020905b8154815290600101906020018083116132ef57829003601f168201915b50505050508152602001600182018054600181600116156101000203166002900480601f0160208091040260200160405190810160405280929190818152602001828054600181600116156101000203166002900480156133ae5780601f10613383576101008083540402835291602001916133ae565b820191906000526020600020905b81548152906001019060200180831161339157829003601f168201915b5050505050815260200160028201548152602001600382018054600181600116156101000203166002900480601f01602080910402602001604051908101604052809291908181526020018280546001816001161561010002031660029004801561345a5780601f1061342f5761010080835404028352916020019161345a565b820191906000526020600020905b81548152906001019060200180831161343d57829003601f168201915b50505050508152602001600482018054600181600116156101000203166002900480601f0160208091040260200160405190810160405280929190818152602001828054600181600116156101000203166002900480156134fc5780601f106134d1576101008083540402835291602001916134fc565b820191906000526020600020905b8154815290600101906020018083116134df57829003601f168201915b505050505081526020016005820154815250509050806000015181602001518260400151836060015184608001518560a00151859550849450829250819150965096509650965096509650509295509295509295565b50805460018160011615610100020316600290046000825580601f106135785750613597565b601f0160209004906000526020600020908101906135969190613651565b5b50565b828054600181600116156101000203166002900490600052602060002090601f016020900481019282601f106135db57805160ff1916838001178555613609565b82800160010185558215613609579182015b828111156136085782518255916020019190600101906135ed565b5b5090506136169190613651565b5090565b60c0604051908101604052806060815260200160608152602001600081526020016060815260200160608152602001600081525090565b61367391905b8082111561366f576000816000905550600101613657565b5090565b9056fea165627a7a72305820aa9b38cf4584d82c791aefd1cac1230613aa99701979c9ded33d5f8874c3ad3b0029",
  "source": "pragma solidity >=0.4.21 <0.7.0;\n\ncontract Zap{\n    \n    string public name = 'Zap';\n    \n    \n    struct File {\n        string fileId;\n        string fileHash;\n        uint fileSize;\n        string fileType;\n        string fileName;\n        uint uploadTime;\n    }\n    \n\n    \n    mapping(address => File[]) public users;\n\n    mapping(address => File[]) public shares;\n    \n    \n     event FileUploaded(\n        string fileId,\n        string fileHash,\n        uint fileSize,\n        string fileType,\n        string fileName,\n        uint uploadTime\n  );\n\n       event FileShareUploaded(\n        string fileId,\n        string fileHash,\n        uint fileSize,\n        string fileType,\n        string fileName,\n        uint uploadTime\n  );\n  \n  constructor() public {\n  }\n    \n  function uploadFile(address _address,string memory _fileId,string memory _fileHash, uint _fileSize, string memory _fileType, string memory _fileName) public returns(string memory,string memory,uint, string memory,string memory,uint) {\n\n    require(bytes(_fileHash).length > 0);\n    require(bytes(_fileId).length > 0);\n\n    require(bytes(_fileType).length > 0);\n\n    require(bytes(_fileName).length > 0);\n\n    require(_address != address(0));\n\n    require(_fileSize>0);\n    \n    users[_address].push(File(_fileId,_fileHash, _fileSize, _fileType, _fileName, now));\n\n\n    emit FileUploaded(_fileId,_fileHash, _fileSize, _fileType, _fileName,now);\n\n\n    uint length = users[_address].length;\n\n    File memory file = users[_address][length-1];\n      \n    return (file.fileId,file.fileHash,file.fileSize,file.fileType,file.fileName,file.uploadTime);\n  }\n  \n  function getCount(address _address) public view returns(uint){\n      \n    return users[_address].length;\n  }\n  \n  function getFilesofUser(uint _index, address _address) public view returns(string memory,string memory,uint, string memory,string memory,uint) {\n      \n      \n      require(_index>=0);\n      \n      File memory file = users[_address][_index];\n      \n      return (file.fileId,file.fileHash,file.fileSize,file.fileType,file.fileName,file.uploadTime);\n    \n  }\n\n    function removeHash(string memory _fileId, address _address) public {\n      \n         File[] storage f = users[_address];\n  \n         for (uint i = 0; i < f.length; i++) {\n             if (keccak256(abi.encodePacked(f[i].fileId)) == keccak256(abi.encodePacked(_fileId))) {\n              \n               delete users[_address][i];\n                 \n             }\n             \n         }\n  }\n\n  function uploadShareFile(address _to,string memory _fileId,string memory _fileHash, uint _fileSize, string memory _fileType, string memory _fileName) public returns(string memory,string memory,uint, string memory,string memory,uint) {\n\n    require(bytes(_fileHash).length > 0);\n    require(bytes(_fileId).length > 0);\n\n    require(bytes(_fileType).length > 0);\n\n    require(bytes(_fileName).length > 0);\n\n    require(_to!=address(0));\n\n    require(_fileSize>0);\n    \n    shares[_to].push(File(_fileId,_fileHash, _fileSize, _fileType, _fileName, now));\n\n\n    emit FileShareUploaded(_fileId,_fileHash, _fileSize, _fileType, _fileName,now);\n\n\n    uint length = shares[_to].length;\n\n    File memory file = shares[_to][length-1];\n      \n    return (file.fileId,file.fileHash,file.fileSize,file.fileType,file.fileName,file.uploadTime);\n  }\n  \n  function getShareCount(address _address) public view returns(uint){\n      \n    return shares[_address].length;\n  }\n  \n  function getShareFilesofUser(uint _index,address _address) public view returns(string memory,string memory,uint, string memory,string memory,uint) {\n      \n      \n      require(_index>=0);\n      \n      File memory file = shares[_address][_index];\n      \n      return (file.fileId,file.fileHash,file.fileSize,file.fileType,file.fileName,file.uploadTime);\n    \n  }\n\n    function removeShareHash(string memory _fileId,address _address) public {\n      \n         File[] storage f = shares[_address];\n  \n         for (uint i = 0; i < f.length; i++) {\n             if (keccak256(abi.encodePacked(f[i].fileId)) == keccak256(abi.encodePacked(_fileId))) {\n              \n               delete shares[_address][i];\n                 \n             }\n             \n         }\n  }\n    \n}",
  "sourcePath": "D:/WorkSpaces/Pfe/ETBSSI1/contracts/Zap.sol",
  "compiler": {
    "name": "solc",
    "version": "0.5.3+commit.10d17f24.Emscripten.clang"
  },
  "schemaVersion": "3.3.4",
  "updatedAt": "2021-05-15T10:05:45.827Z",
  "networkType": "ethereum",
  "devdoc": {
    "methods": {}
  },
  "userdoc": {
    "methods": {}
  }
}